{
  "contractName": "DriverFactory",
  "abi": [
    {
      "anonymous": false,
      "inputs": [
        {
          "indexed": false,
          "internalType": "address",
          "name": "walletAddress",
          "type": "address"
        },
        {
          "indexed": false,
          "internalType": "uint256",
          "name": "userId",
          "type": "uint256"
        },
        {
          "indexed": false,
          "internalType": "string",
          "name": "firstName",
          "type": "string"
        },
        {
          "indexed": false,
          "internalType": "string",
          "name": "middleInitial",
          "type": "string"
        },
        {
          "indexed": false,
          "internalType": "string",
          "name": "lastName",
          "type": "string"
        },
        {
          "indexed": false,
          "internalType": "string",
          "name": "sex",
          "type": "string"
        },
        {
          "indexed": false,
          "internalType": "string",
          "name": "height",
          "type": "string"
        },
        {
          "indexed": false,
          "internalType": "string",
          "name": "eyes",
          "type": "string"
        }
      ],
      "name": "DriverGotten",
      "type": "event"
    },
    {
      "anonymous": false,
      "inputs": [
        {
          "indexed": false,
          "internalType": "address",
          "name": "walletAddress",
          "type": "address"
        },
        {
          "indexed": false,
          "internalType": "uint256",
          "name": "driverId",
          "type": "uint256"
        },
        {
          "indexed": false,
          "internalType": "string",
          "name": "firstName",
          "type": "string"
        },
        {
          "indexed": false,
          "internalType": "string",
          "name": "middleInitial",
          "type": "string"
        },
        {
          "indexed": false,
          "internalType": "string",
          "name": "lastName",
          "type": "string"
        },
        {
          "indexed": false,
          "internalType": "string",
          "name": "sex",
          "type": "string"
        },
        {
          "indexed": false,
          "internalType": "string",
          "name": "height",
          "type": "string"
        },
        {
          "indexed": false,
          "internalType": "string",
          "name": "eyes",
          "type": "string"
        }
      ],
      "name": "DriverSet",
      "type": "event"
    },
    {
      "constant": true,
      "inputs": [
        {
          "internalType": "uint256",
          "name": "",
          "type": "uint256"
        }
      ],
      "name": "driverAddresses",
      "outputs": [
        {
          "internalType": "string",
          "name": "addressLineOne",
          "type": "string"
        },
        {
          "internalType": "string",
          "name": "city",
          "type": "string"
        },
        {
          "internalType": "string",
          "name": "state",
          "type": "string"
        },
        {
          "internalType": "string",
          "name": "zip",
          "type": "string"
        }
      ],
      "payable": false,
      "stateMutability": "view",
      "type": "function"
    },
    {
      "constant": true,
      "inputs": [
        {
          "internalType": "uint256",
          "name": "",
          "type": "uint256"
        }
      ],
      "name": "driverFeatures",
      "outputs": [
        {
          "internalType": "string",
          "name": "sex",
          "type": "string"
        },
        {
          "internalType": "string",
          "name": "height",
          "type": "string"
        },
        {
          "internalType": "string",
          "name": "eyes",
          "type": "string"
        }
      ],
      "payable": false,
      "stateMutability": "view",
      "type": "function"
    },
    {
      "constant": true,
      "inputs": [
        {
          "internalType": "uint256",
          "name": "",
          "type": "uint256"
        }
      ],
      "name": "driverNames",
      "outputs": [
        {
          "internalType": "string",
          "name": "firstName",
          "type": "string"
        },
        {
          "internalType": "string",
          "name": "middleInitial",
          "type": "string"
        },
        {
          "internalType": "string",
          "name": "lastName",
          "type": "string"
        }
      ],
      "payable": false,
      "stateMutability": "view",
      "type": "function"
    },
    {
      "constant": true,
      "inputs": [
        {
          "internalType": "uint256",
          "name": "",
          "type": "uint256"
        }
      ],
      "name": "driverToOwner",
      "outputs": [
        {
          "internalType": "address",
          "name": "",
          "type": "address"
        }
      ],
      "payable": false,
      "stateMutability": "view",
      "type": "function"
    },
    {
      "constant": true,
      "inputs": [
        {
          "internalType": "address",
          "name": "",
          "type": "address"
        }
      ],
      "name": "userAccountsCount",
      "outputs": [
        {
          "internalType": "uint256",
          "name": "",
          "type": "uint256"
        }
      ],
      "payable": false,
      "stateMutability": "view",
      "type": "function"
    },
    {
      "constant": false,
      "inputs": [
        {
          "internalType": "string",
          "name": "_first",
          "type": "string"
        },
        {
          "internalType": "string",
          "name": "_midInit",
          "type": "string"
        },
        {
          "internalType": "string",
          "name": "_last",
          "type": "string"
        },
        {
          "internalType": "string",
          "name": "_sx",
          "type": "string"
        },
        {
          "internalType": "string",
          "name": "_ht",
          "type": "string"
        },
        {
          "internalType": "string",
          "name": "_eyeColor",
          "type": "string"
        },
        {
          "internalType": "string",
          "name": "_addressLineOne",
          "type": "string"
        },
        {
          "internalType": "string",
          "name": "_city",
          "type": "string"
        },
        {
          "internalType": "string",
          "name": "_state",
          "type": "string"
        },
        {
          "internalType": "string",
          "name": "_zip",
          "type": "string"
        }
      ],
      "name": "setDriver",
      "outputs": [],
      "payable": false,
      "stateMutability": "nonpayable",
      "type": "function"
    },
    {
      "constant": false,
      "inputs": [
        {
          "internalType": "uint256",
          "name": "_driverId",
          "type": "uint256"
        }
      ],
      "name": "getAccountInfo",
      "outputs": [],
      "payable": false,
      "stateMutability": "nonpayable",
      "type": "function"
    }
  ],
  "bytecode": "0x608060405234801561001057600080fd5b506122b1806100206000396000f3fe608060405234801561001057600080fd5b506004361061007d5760003560e01c8063812f2b551161005b578063812f2b551461029d578063a96137be146102f5578063b1da3c0214610474578063c85feec414610a7f5761007d565b80632b325557146100825780633b561afc146100f05780635f2d74851461011e575b600080fd5b6100ae6004803603602081101561009857600080fd5b8101908080359060200190929190505050610c6a565b604051808273ffffffffffffffffffffffffffffffffffffffff1673ffffffffffffffffffffffffffffffffffffffff16815260200191505060405180910390f35b61011c6004803603602081101561010657600080fd5b8101908080359060200190929190505050610c9d565b005b61014a6004803603602081101561013457600080fd5b810190808035906020019092919050505061114d565b60405180806020018060200180602001848103845287818151815260200191508051906020019080838360005b83811015610192578082015181840152602081019050610177565b50505050905090810190601f1680156101bf5780820380516001836020036101000a031916815260200191505b50848103835286818151815260200191508051906020019080838360005b838110156101f85780820151818401526020810190506101dd565b50505050905090810190601f1680156102255780820380516001836020036101000a031916815260200191505b50848103825285818151815260200191508051906020019080838360005b8381101561025e578082015181840152602081019050610243565b50505050905090810190601f16801561028b5780820380516001836020036101000a031916815260200191505b50965050505050505060405180910390f35b6102df600480360360208110156102b357600080fd5b81019080803573ffffffffffffffffffffffffffffffffffffffff16906020019092919050505061134c565b6040518082815260200191505060405180910390f35b6103216004803603602081101561030b57600080fd5b8101908080359060200190929190505050611364565b60405180806020018060200180602001848103845287818151815260200191508051906020019080838360005b8381101561036957808201518184015260208101905061034e565b50505050905090810190601f1680156103965780820380516001836020036101000a031916815260200191505b50848103835286818151815260200191508051906020019080838360005b838110156103cf5780820151818401526020810190506103b4565b50505050905090810190601f1680156103fc5780820380516001836020036101000a031916815260200191505b50848103825285818151815260200191508051906020019080838360005b8381101561043557808201518184015260208101905061041a565b50505050905090810190601f1680156104625780820380516001836020036101000a031916815260200191505b50965050505050505060405180910390f35b610a7d600480360361014081101561048b57600080fd5b81019080803590602001906401000000008111156104a857600080fd5b8201836020820111156104ba57600080fd5b803590602001918460018302840111640100000000831117156104dc57600080fd5b91908080601f016020809104026020016040519081016040528093929190818152602001838380828437600081840152601f19601f8201169050808301925050505050505091929192908035906020019064010000000081111561053f57600080fd5b82018360208201111561055157600080fd5b8035906020019184600183028401116401000000008311171561057357600080fd5b91908080601f016020809104026020016040519081016040528093929190818152602001838380828437600081840152601f19601f820116905080830192505050505050509192919290803590602001906401000000008111156105d657600080fd5b8201836020820111156105e857600080fd5b8035906020019184600183028401116401000000008311171561060a57600080fd5b91908080601f016020809104026020016040519081016040528093929190818152602001838380828437600081840152601f19601f8201169050808301925050505050505091929192908035906020019064010000000081111561066d57600080fd5b82018360208201111561067f57600080fd5b803590602001918460018302840111640100000000831117156106a157600080fd5b91908080601f016020809104026020016040519081016040528093929190818152602001838380828437600081840152601f19601f8201169050808301925050505050505091929192908035906020019064010000000081111561070457600080fd5b82018360208201111561071657600080fd5b8035906020019184600183028401116401000000008311171561073857600080fd5b91908080601f016020809104026020016040519081016040528093929190818152602001838380828437600081840152601f19601f8201169050808301925050505050505091929192908035906020019064010000000081111561079b57600080fd5b8201836020820111156107ad57600080fd5b803590602001918460018302840111640100000000831117156107cf57600080fd5b91908080601f016020809104026020016040519081016040528093929190818152602001838380828437600081840152601f19601f8201169050808301925050505050505091929192908035906020019064010000000081111561083257600080fd5b82018360208201111561084457600080fd5b8035906020019184600183028401116401000000008311171561086657600080fd5b91908080601f016020809104026020016040519081016040528093929190818152602001838380828437600081840152601f19601f820116905080830192505050505050509192919290803590602001906401000000008111156108c957600080fd5b8201836020820111156108db57600080fd5b803590602001918460018302840111640100000000831117156108fd57600080fd5b91908080601f016020809104026020016040519081016040528093929190818152602001838380828437600081840152601f19601f8201169050808301925050505050505091929192908035906020019064010000000081111561096057600080fd5b82018360208201111561097257600080fd5b8035906020019184600183028401116401000000008311171561099457600080fd5b91908080601f016020809104026020016040519081016040528093929190818152602001838380828437600081840152601f19601f820116905080830192505050505050509192919290803590602001906401000000008111156109f757600080fd5b820183602082011115610a0957600080fd5b80359060200191846001830284011164010000000083111715610a2b57600080fd5b91908080601f016020809104026020016040519081016040528093929190818152602001838380828437600081840152601f19601f820116905080830192505050505050509192919290505050611563565b005b610aab60048036036020811015610a9557600080fd5b8101908080359060200190929190505050611bb9565b6040518080602001806020018060200180602001858103855289818151815260200191508051906020019080838360005b83811015610af7578082015181840152602081019050610adc565b50505050905090810190601f168015610b245780820380516001836020036101000a031916815260200191505b50858103845288818151815260200191508051906020019080838360005b83811015610b5d578082015181840152602081019050610b42565b50505050905090810190601f168015610b8a5780820380516001836020036101000a031916815260200191505b50858103835287818151815260200191508051906020019080838360005b83811015610bc3578082015181840152602081019050610ba8565b50505050905090810190601f168015610bf05780820380516001836020036101000a031916815260200191505b50858103825286818151815260200191508051906020019080838360005b83811015610c29578082015181840152602081019050610c0e565b50505050905090810190601f168015610c565780820380516001836020036101000a031916815260200191505b509850505050505050505060405180910390f35b60006020528060005260406000206000915054906101000a900473ffffffffffffffffffffffffffffffffffffffff1681565b610ca681611e56565b50505050610cb381611fd4565b505050610cbf8161211c565b505050507ff26ad77430b1781c51897f09c9ed9254e2ca0d20c086cf719af4530d0ef77cc860008083815260200190815260200160002060009054906101000a900473ffffffffffffffffffffffffffffffffffffffff168260028481548110610d2557fe5b906000526020600020906003020160000160028581548110610d4357fe5b906000526020600020906003020160010160028681548110610d6157fe5b906000526020600020906003020160020160038781548110610d7f57fe5b906000526020600020906003020160000160038881548110610d9d57fe5b906000526020600020906003020160010160038981548110610dbb57fe5b9060005260206000209060030201600201604051808973ffffffffffffffffffffffffffffffffffffffff1673ffffffffffffffffffffffffffffffffffffffff16815260200188815260200180602001806020018060200180602001806020018060200187810387528d818154600181600116156101000203166002900481526020019150805460018160011615610100020316600290048015610ea15780601f10610e7657610100808354040283529160200191610ea1565b820191906000526020600020905b815481529060010190602001808311610e8457829003601f168201915b505087810386528c818154600181600116156101000203166002900481526020019150805460018160011615610100020316600290048015610f245780601f10610ef957610100808354040283529160200191610f24565b820191906000526020600020905b815481529060010190602001808311610f0757829003601f168201915b505087810385528b818154600181600116156101000203166002900481526020019150805460018160011615610100020316600290048015610fa75780601f10610f7c57610100808354040283529160200191610fa7565b820191906000526020600020905b815481529060010190602001808311610f8a57829003601f168201915b505087810384528a81815460018160011615610100020316600290048152602001915080546001816001161561010002031660029004801561102a5780601f10610fff5761010080835404028352916020019161102a565b820191906000526020600020905b81548152906001019060200180831161100d57829003601f168201915b50508781038352898181546001816001161561010002031660029004815260200191508054600181600116156101000203166002900480156110ad5780601f10611082576101008083540402835291602001916110ad565b820191906000526020600020905b81548152906001019060200180831161109057829003601f168201915b50508781038252888181546001816001161561010002031660029004815260200191508054600181600116156101000203166002900480156111305780601f1061110557610100808354040283529160200191611130565b820191906000526020600020905b81548152906001019060200180831161111357829003601f168201915b50509e50505050505050505050505050505060405180910390a150565b6003818154811061115a57fe5b9060005260206000209060030201600091509050806000018054600181600116156101000203166002900480601f0160208091040260200160405190810160405280929190818152602001828054600181600116156101000203166002900480156112065780601f106111db57610100808354040283529160200191611206565b820191906000526020600020905b8154815290600101906020018083116111e957829003601f168201915b505050505090806001018054600181600116156101000203166002900480601f0160208091040260200160405190810160405280929190818152602001828054600181600116156101000203166002900480156112a45780601f10611279576101008083540402835291602001916112a4565b820191906000526020600020905b81548152906001019060200180831161128757829003601f168201915b505050505090806002018054600181600116156101000203166002900480601f0160208091040260200160405190810160405280929190818152602001828054600181600116156101000203166002900480156113425780601f1061131757610100808354040283529160200191611342565b820191906000526020600020905b81548152906001019060200180831161132557829003601f168201915b5050505050905083565b60016020528060005260406000206000915090505481565b6002818154811061137157fe5b9060005260206000209060030201600091509050806000018054600181600116156101000203166002900480601f01602080910402602001604051908101604052809291908181526020018280546001816001161561010002031660029004801561141d5780601f106113f25761010080835404028352916020019161141d565b820191906000526020600020905b81548152906001019060200180831161140057829003601f168201915b505050505090806001018054600181600116156101000203166002900480601f0160208091040260200160405190810160405280929190818152602001828054600181600116156101000203166002900480156114bb5780601f10611490576101008083540402835291602001916114bb565b820191906000526020600020905b81548152906001019060200180831161149e57829003601f168201915b505050505090806002018054600181600116156101000203166002900480601f0160208091040260200160405190810160405280929190818152602001828054600181600116156101000203166002900480156115595780601f1061152e57610100808354040283529160200191611559565b820191906000526020600020905b81548152906001019060200180831161153c57829003601f168201915b5050505050905083565b6000600160003373ffffffffffffffffffffffffffffffffffffffff1673ffffffffffffffffffffffffffffffffffffffff16815260200190815260200160002054146115fb576040517f08c379a000000000000000000000000000000000000000000000000000000000815260040180806020018281038252602281526020018061225b6022913960400191505060405180910390fd5b600260405180606001604052808c81526020018b81526020018a81525090806001815401808255809150509060018203906000526020600020906003020160009091929091909150600082015181600001908051906020019061165f9291906121b5565b50602082015181600101908051906020019061167c9291906121b5565b5060408201518160020190805190602001906116999291906121b5565b5050505060036040518060600160405280898152602001888152602001878152509080600181540180825580915050906001820390600052602060002090600302016000909192909190915060008201518160000190805190602001906117019291906121b5565b50602082015181600101908051906020019061171e9291906121b5565b50604082015181600201908051906020019061173b9291906121b5565b5050505060046040518060800160405280868152602001858152602001848152602001838152509080600181540180825580915050906001820390600052602060002090600402016000909192909190915060008201518160000190805190602001906117a99291906121b5565b5060208201518160010190805190602001906117c69291906121b5565b5060408201518160020190805190602001906117e39291906121b5565b5060608201518160030190805190602001906118009291906121b5565b5050505033600080600160028054905003815260200190815260200160002060006101000a81548173ffffffffffffffffffffffffffffffffffffffff021916908373ffffffffffffffffffffffffffffffffffffffff160217905550600160003373ffffffffffffffffffffffffffffffffffffffff1673ffffffffffffffffffffffffffffffffffffffff168152602001908152602001600020600081548092919060010191905055507f5e12c0cb56ade5f1eee122a4f6a88aa40bed7c7c8d485a155c7390cf129de517336001600280549050038c8c8c8c8c8c604051808973ffffffffffffffffffffffffffffffffffffffff1673ffffffffffffffffffffffffffffffffffffffff16815260200188815260200180602001806020018060200180602001806020018060200187810387528d818151815260200191508051906020019080838360005b8381101561196957808201518184015260208101905061194e565b50505050905090810190601f1680156119965780820380516001836020036101000a031916815260200191505b5087810386528c818151815260200191508051906020019080838360005b838110156119cf5780820151818401526020810190506119b4565b50505050905090810190601f1680156119fc5780820380516001836020036101000a031916815260200191505b5087810385528b818151815260200191508051906020019080838360005b83811015611a35578082015181840152602081019050611a1a565b50505050905090810190601f168015611a625780820380516001836020036101000a031916815260200191505b5087810384528a818151815260200191508051906020019080838360005b83811015611a9b578082015181840152602081019050611a80565b50505050905090810190601f168015611ac85780820380516001836020036101000a031916815260200191505b50878103835289818151815260200191508051906020019080838360005b83811015611b01578082015181840152602081019050611ae6565b50505050905090810190601f168015611b2e5780820380516001836020036101000a031916815260200191505b50878103825288818151815260200191508051906020019080838360005b83811015611b67578082015181840152602081019050611b4c565b50505050905090810190601f168015611b945780820380516001836020036101000a031916815260200191505b509e50505050505050505050505050505060405180910390a150505050505050505050565b60048181548110611bc657fe5b9060005260206000209060040201600091509050806000018054600181600116156101000203166002900480601f016020809104026020016040519081016040528092919081815260200182805460018160011615610100020316600290048015611c725780601f10611c4757610100808354040283529160200191611c72565b820191906000526020600020905b815481529060010190602001808311611c5557829003601f168201915b505050505090806001018054600181600116156101000203166002900480601f016020809104026020016040519081016040528092919081815260200182805460018160011615610100020316600290048015611d105780601f10611ce557610100808354040283529160200191611d10565b820191906000526020600020905b815481529060010190602001808311611cf357829003601f168201915b505050505090806002018054600181600116156101000203166002900480601f016020809104026020016040519081016040528092919081815260200182805460018160011615610100020316600290048015611dae5780601f10611d8357610100808354040283529160200191611dae565b820191906000526020600020905b815481529060010190602001808311611d9157829003601f168201915b505050505090806003018054600181600116156101000203166002900480601f016020809104026020016040519081016040528092919081815260200182805460018160011615610100020316600290048015611e4c5780601f10611e2157610100808354040283529160200191611e4c565b820191906000526020600020905b815481529060010190602001808311611e2f57829003601f168201915b5050505050905084565b6000806000803373ffffffffffffffffffffffffffffffffffffffff1660008087815260200190815260200160002060009054906101000a900473ffffffffffffffffffffffffffffffffffffffff1673ffffffffffffffffffffffffffffffffffffffff1614611f2f576040517f08c379a00000000000000000000000000000000000000000000000000000000081526004018080602001828103825260108152602001807f4e6f7420796f7572206163636f756e740000000000000000000000000000000081525060200191505060405180910390fd5b60008086815260200190815260200160002060009054906101000a900473ffffffffffffffffffffffffffffffffffffffff1660028681548110611f6f57fe5b906000526020600020906003020160000160028781548110611f8d57fe5b906000526020600020906003020160010160028881548110611fab57fe5b906000526020600020906003020160020182925081915080905093509350935093509193509193565b60008060003373ffffffffffffffffffffffffffffffffffffffff1660008086815260200190815260200160002060009054906101000a900473ffffffffffffffffffffffffffffffffffffffff1673ffffffffffffffffffffffffffffffffffffffff16146120ac576040517f08c379a00000000000000000000000000000000000000000000000000000000081526004018080602001828103825260108152602001807f4e6f7420796f7572206163636f756e740000000000000000000000000000000081525060200191505060405180910390fd5b600384815481106120b957fe5b9060005260206000209060030201600001600385815481106120d757fe5b9060005260206000209060030201600101600386815481106120f557fe5b90600052602060002090600302016002018292508191508090509250925092509193909250565b6000806000806004858154811061212f57fe5b90600052602060002090600402016000016004868154811061214d57fe5b90600052602060002090600402016001016004878154811061216b57fe5b90600052602060002090600402016002016004888154811061218957fe5b906000526020600020906004020160030183935082925081915080905093509350935093509193509193565b828054600181600116156101000203166002900490600052602060002090601f016020900481019282601f106121f657805160ff1916838001178555612224565b82800160010185558215612224579182015b82811115612223578251825591602001919060010190612208565b5b5090506122319190612235565b5090565b61225791905b8082111561225357600081600090555060010161223b565b5090565b9056fe55736572732063616e206f6e6c7920637265617465206f6e652070726f66696c6521a265627a7a72315820e5b8ac0401ac3913d5a85c8313a12cee7f94ad8b52f23fe8f4c1c8744023f6b464736f6c63430005100032",
  "source": "// SPDX-License-Identifier: MIT\npragma solidity ^0.5.11;\n\ncontract DriverFactory {\n\n    event DriverSet(\n        address walletAddress,\n        uint driverId,\n        string firstName,\n        string middleInitial,\n        string lastName,\n        string sex,\n        string height,\n        string eyes\n    );\n\n    event DriverGotten(\n        address walletAddress,\n        uint userId,\n        string firstName,\n        string middleInitial,\n        string lastName,\n        string sex,\n        string height,\n        string eyes\n    );\n\n    mapping (uint => address) public driverToOwner; // maps user account Id to a wallet address\n    mapping (address => uint) public userAccountsCount; // assures user only are able to create one account\n\n    // mapping (uint => address) public insuranceToOwner;\n    struct Driver {\n        address walletAddress;\n        string firstName;\n        string middleInitial;\n        string lastName;\n        string sex;\n        string height;\n        string eyes;\n        string addressLineOne;\n        string city;\n        string state;\n        string zip;\n    }\n\n    struct DriverName {\n        string firstName;\n        string middleInitial;\n        string lastName;\n    }\n\n    struct DriverFeature {\n        string sex;\n        string height;\n        string eyes;\n    }\n\n    struct DriverAddress {\n        string addressLineOne;\n        string city;\n        string state;\n        string zip;\n    }\n\n    //Driver name database\n    DriverName[] public driverNames;\n    //Driver features database\n    DriverFeature[] public driverFeatures;\n    //Driver address database\n    DriverAddress[] public driverAddresses;\n\n    modifier isAccount(uint _driverId) {\n        require(driverToOwner[_driverId] == msg.sender, \"Not your account\");\n        _;\n    }\n\n    // Create a Driver Account\n    function setDriver(\n        string memory _first,\n        string memory _midInit,\n        string memory _last,\n        string memory _sx,\n        string memory _ht,\n        string memory _eyeColor,\n        string memory _addressLineOne,\n        string memory _city,\n        string memory _state,\n        string memory _zip\n        ) public {\n        require(userAccountsCount[msg.sender] == 0, \"Users can only create one profile!\");\n        driverNames.push(DriverName(_first, _midInit, _last));\n        driverFeatures.push(DriverFeature(_sx, _ht, _eyeColor));\n        driverAddresses.push(DriverAddress(_addressLineOne, _city, _state, _zip));\n        driverToOwner[driverNames.length - 1] = msg.sender;\n        userAccountsCount[msg.sender]++;\n        emit DriverSet(\n            msg.sender,\n            driverNames.length - 1,\n            _first,\n            _midInit,\n            _last,\n            _sx,\n            _ht,\n            _eyeColor\n        );\n    }\n    // Get Driver's Account By its unique identifier\n    function getDriverName(uint _driverId) internal view returns (address, string storage, string storage, string storage) {\n        require(driverToOwner[_driverId] == msg.sender, \"Not your account\");\n        return (\n            driverToOwner[_driverId],\n            driverNames[_driverId].firstName,\n            driverNames[_driverId].middleInitial,\n            driverNames[_driverId].lastName\n        );\n    }\n\n    function getDriverFeatures(uint _driverId) internal view returns (string storage, string storage, string storage) {\n        require(driverToOwner[_driverId] == msg.sender, \"Not your account\");\n        return (\n            driverFeatures[_driverId].sex,\n            driverFeatures[_driverId].height,\n            driverFeatures[_driverId].eyes\n        );\n    }\n\n    function getDriverAddress(uint _driverId) internal view returns (\n        string storage,\n        string storage,\n        string storage,\n        string storage\n    ) {\n        return (\n            driverAddresses[_driverId].addressLineOne,\n            driverAddresses[_driverId].city,\n            driverAddresses[_driverId].state,\n            driverAddresses[_driverId].zip\n        );\n    }\n\n    function getAccountInfo(uint _driverId) public {\n        getDriverName(_driverId);\n        getDriverFeatures(_driverId);\n        getDriverAddress(_driverId);\n        emit DriverGotten(\n            driverToOwner[_driverId],\n            _driverId,\n            driverNames[_driverId].firstName,\n            driverNames[_driverId].middleInitial,\n            driverNames[_driverId].lastName,\n            driverFeatures[_driverId].sex,\n            driverFeatures[_driverId].height,\n            driverFeatures[_driverId].eyes\n        );\n    }\n}",
  "sourcePath": "/Users/Marcus/Documents/Projects/dmvAppContracts/contracts/DriverFactory.sol",
  "compiler": {
    "name": "solc",
    "version": "0.5.16+commit.9c3226ce.Emscripten.clang"
  },
  "schemaVersion": "3.4.4",
  "updatedAt": "2022-01-09T19:24:56.572Z",
  "devdoc": {
    "methods": {}
  },
  "userdoc": {
    "methods": {}
  }
}