{
  "contractName": "DriverFactory",
  "abi": [
    {
      "inputs": [],
      "payable": false,
      "stateMutability": "nonpayable",
      "type": "constructor"
    },
    {
      "anonymous": false,
      "inputs": [
        {
          "indexed": false,
          "internalType": "address",
          "name": "walletAddress",
          "type": "address"
        },
        {
          "components": [
            {
              "internalType": "string",
              "name": "firstName",
              "type": "string"
            },
            {
              "internalType": "string",
              "name": "middleInitial",
              "type": "string"
            },
            {
              "internalType": "string",
              "name": "lastName",
              "type": "string"
            },
            {
              "internalType": "uint256",
              "name": "dob",
              "type": "uint256"
            },
            {
              "internalType": "string",
              "name": "sex",
              "type": "string"
            },
            {
              "internalType": "string",
              "name": "height",
              "type": "string"
            },
            {
              "internalType": "string",
              "name": "eyes",
              "type": "string"
            },
            {
              "internalType": "string",
              "name": "addressLineOne",
              "type": "string"
            },
            {
              "internalType": "string",
              "name": "city",
              "type": "string"
            },
            {
              "internalType": "string",
              "name": "state",
              "type": "string"
            },
            {
              "internalType": "string",
              "name": "zip",
              "type": "string"
            }
          ],
          "indexed": false,
          "internalType": "struct DriverFactory.Account",
          "name": "account",
          "type": "tuple"
        }
      ],
      "name": "DriverReturned",
      "type": "event"
    },
    {
      "anonymous": false,
      "inputs": [
        {
          "indexed": false,
          "internalType": "address",
          "name": "walletAddress",
          "type": "address"
        },
        {
          "components": [
            {
              "internalType": "string",
              "name": "firstName",
              "type": "string"
            },
            {
              "internalType": "string",
              "name": "middleInitial",
              "type": "string"
            },
            {
              "internalType": "string",
              "name": "lastName",
              "type": "string"
            },
            {
              "internalType": "uint256",
              "name": "dob",
              "type": "uint256"
            },
            {
              "internalType": "string",
              "name": "sex",
              "type": "string"
            },
            {
              "internalType": "string",
              "name": "height",
              "type": "string"
            },
            {
              "internalType": "string",
              "name": "eyes",
              "type": "string"
            },
            {
              "internalType": "string",
              "name": "addressLineOne",
              "type": "string"
            },
            {
              "internalType": "string",
              "name": "city",
              "type": "string"
            },
            {
              "internalType": "string",
              "name": "state",
              "type": "string"
            },
            {
              "internalType": "string",
              "name": "zip",
              "type": "string"
            }
          ],
          "indexed": false,
          "internalType": "struct DriverFactory.Account",
          "name": "account",
          "type": "tuple"
        }
      ],
      "name": "DriverSet",
      "type": "event"
    },
    {
      "constant": true,
      "inputs": [
        {
          "internalType": "address",
          "name": "",
          "type": "address"
        }
      ],
      "name": "account",
      "outputs": [
        {
          "internalType": "string",
          "name": "firstName",
          "type": "string"
        },
        {
          "internalType": "string",
          "name": "middleInitial",
          "type": "string"
        },
        {
          "internalType": "string",
          "name": "lastName",
          "type": "string"
        },
        {
          "internalType": "uint256",
          "name": "dob",
          "type": "uint256"
        },
        {
          "internalType": "string",
          "name": "sex",
          "type": "string"
        },
        {
          "internalType": "string",
          "name": "height",
          "type": "string"
        },
        {
          "internalType": "string",
          "name": "eyes",
          "type": "string"
        },
        {
          "internalType": "string",
          "name": "addressLineOne",
          "type": "string"
        },
        {
          "internalType": "string",
          "name": "city",
          "type": "string"
        },
        {
          "internalType": "string",
          "name": "state",
          "type": "string"
        },
        {
          "internalType": "string",
          "name": "zip",
          "type": "string"
        }
      ],
      "payable": false,
      "stateMutability": "view",
      "type": "function"
    },
    {
      "constant": true,
      "inputs": [
        {
          "internalType": "address",
          "name": "",
          "type": "address"
        }
      ],
      "name": "hasAccount",
      "outputs": [
        {
          "internalType": "bool",
          "name": "",
          "type": "bool"
        }
      ],
      "payable": false,
      "stateMutability": "view",
      "type": "function"
    },
    {
      "constant": false,
      "inputs": [
        {
          "internalType": "string",
          "name": "_first",
          "type": "string"
        },
        {
          "internalType": "string",
          "name": "_midInit",
          "type": "string"
        },
        {
          "internalType": "string",
          "name": "_last",
          "type": "string"
        },
        {
          "internalType": "uint256",
          "name": "_dob",
          "type": "uint256"
        },
        {
          "internalType": "string",
          "name": "_sx",
          "type": "string"
        },
        {
          "internalType": "string",
          "name": "_ht",
          "type": "string"
        },
        {
          "internalType": "string",
          "name": "_eyeColor",
          "type": "string"
        },
        {
          "internalType": "string",
          "name": "_addressLineOne",
          "type": "string"
        },
        {
          "internalType": "string",
          "name": "_city",
          "type": "string"
        },
        {
          "internalType": "string",
          "name": "_state",
          "type": "string"
        },
        {
          "internalType": "string",
          "name": "_zip",
          "type": "string"
        }
      ],
      "name": "setAccount",
      "outputs": [],
      "payable": false,
      "stateMutability": "nonpayable",
      "type": "function"
    },
    {
      "constant": false,
      "inputs": [],
      "name": "getAccount",
      "outputs": [
        {
          "components": [
            {
              "internalType": "string",
              "name": "firstName",
              "type": "string"
            },
            {
              "internalType": "string",
              "name": "middleInitial",
              "type": "string"
            },
            {
              "internalType": "string",
              "name": "lastName",
              "type": "string"
            },
            {
              "internalType": "uint256",
              "name": "dob",
              "type": "uint256"
            },
            {
              "internalType": "string",
              "name": "sex",
              "type": "string"
            },
            {
              "internalType": "string",
              "name": "height",
              "type": "string"
            },
            {
              "internalType": "string",
              "name": "eyes",
              "type": "string"
            },
            {
              "internalType": "string",
              "name": "addressLineOne",
              "type": "string"
            },
            {
              "internalType": "string",
              "name": "city",
              "type": "string"
            },
            {
              "internalType": "string",
              "name": "state",
              "type": "string"
            },
            {
              "internalType": "string",
              "name": "zip",
              "type": "string"
            }
          ],
          "internalType": "struct DriverFactory.Account",
          "name": "",
          "type": "tuple"
        }
      ],
      "payable": false,
      "stateMutability": "nonpayable",
      "type": "function"
    }
  ],
  "bytecode": "0x608060405234801561001057600080fd5b506000600160003373ffffffffffffffffffffffffffffffffffffffff1673ffffffffffffffffffffffffffffffffffffffff16815260200190815260200160002060006101000a81548160ff021916908315150217905550611d60806100786000396000f3fe608060405234801561001057600080fd5b506004361061004c5760003560e01c806335e0af4c1461005157806373b9aa911461006d578063c8e40fbf146100a7578063db613e81146100d7575b600080fd5b61006b6004803603610066919081019061136f565b6100f5565b005b61008760048036036100829190810190611346565b6103a1565b60405161009e9b9a999897969594939291906119ff565b60405180910390f35b6100c160048036036100bc9190810190611346565b6109eb565b6040516100ce91906119e4565b60405180910390f35b6100df610a0b565b6040516100ec9190611b30565b60405180910390f35b60001515600160003373ffffffffffffffffffffffffffffffffffffffff1673ffffffffffffffffffffffffffffffffffffffff16815260200190815260200160002060009054906101000a900460ff16151514610188576040517f08c379a000000000000000000000000000000000000000000000000000000000815260040161017f90611b10565b60405180910390fd5b6040518061016001604052808c81526020018b81526020018a8152602001898152602001888152602001878152602001868152602001858152602001848152602001838152602001828152506000803373ffffffffffffffffffffffffffffffffffffffff1673ffffffffffffffffffffffffffffffffffffffff168152602001908152602001600020600082015181600001908051906020019061022e9291906111c9565b50602082015181600101908051906020019061024b9291906111c9565b5060408201518160020190805190602001906102689291906111c9565b5060608201518160030155608082015181600401908051906020019061028f9291906111c9565b5060a08201518160050190805190602001906102ac9291906111c9565b5060c08201518160060190805190602001906102c99291906111c9565b5060e08201518160070190805190602001906102e69291906111c9565b506101008201518160080190805190602001906103049291906111c9565b506101208201518160090190805190602001906103229291906111c9565b5061014082015181600a0190805190602001906103409291906111c9565b5090505060011515600160003373ffffffffffffffffffffffffffffffffffffffff1673ffffffffffffffffffffffffffffffffffffffff16815260200190815260200160002060009054906101000a905050505050505050505050505050565b6000602052806000526040600020600091509050806000018054600181600116156101000203166002900480601f01602080910402602001604051908101604052809291908181526020018280546001816001161561010002031660029004801561044d5780601f106104225761010080835404028352916020019161044d565b820191906000526020600020905b81548152906001019060200180831161043057829003601f168201915b505050505090806001018054600181600116156101000203166002900480601f0160208091040260200160405190810160405280929190818152602001828054600181600116156101000203166002900480156104eb5780601f106104c0576101008083540402835291602001916104eb565b820191906000526020600020905b8154815290600101906020018083116104ce57829003601f168201915b505050505090806002018054600181600116156101000203166002900480601f0160208091040260200160405190810160405280929190818152602001828054600181600116156101000203166002900480156105895780601f1061055e57610100808354040283529160200191610589565b820191906000526020600020905b81548152906001019060200180831161056c57829003601f168201915b505050505090806003015490806004018054600181600116156101000203166002900480601f01602080910402602001604051908101604052809291908181526020018280546001816001161561010002031660029004801561062d5780601f106106025761010080835404028352916020019161062d565b820191906000526020600020905b81548152906001019060200180831161061057829003601f168201915b505050505090806005018054600181600116156101000203166002900480601f0160208091040260200160405190810160405280929190818152602001828054600181600116156101000203166002900480156106cb5780601f106106a0576101008083540402835291602001916106cb565b820191906000526020600020905b8154815290600101906020018083116106ae57829003601f168201915b505050505090806006018054600181600116156101000203166002900480601f0160208091040260200160405190810160405280929190818152602001828054600181600116156101000203166002900480156107695780601f1061073e57610100808354040283529160200191610769565b820191906000526020600020905b81548152906001019060200180831161074c57829003601f168201915b505050505090806007018054600181600116156101000203166002900480601f0160208091040260200160405190810160405280929190818152602001828054600181600116156101000203166002900480156108075780601f106107dc57610100808354040283529160200191610807565b820191906000526020600020905b8154815290600101906020018083116107ea57829003601f168201915b505050505090806008018054600181600116156101000203166002900480601f0160208091040260200160405190810160405280929190818152602001828054600181600116156101000203166002900480156108a55780601f1061087a576101008083540402835291602001916108a5565b820191906000526020600020905b81548152906001019060200180831161088857829003601f168201915b505050505090806009018054600181600116156101000203166002900480601f0160208091040260200160405190810160405280929190818152602001828054600181600116156101000203166002900480156109435780601f1061091857610100808354040283529160200191610943565b820191906000526020600020905b81548152906001019060200180831161092657829003601f168201915b50505050509080600a018054600181600116156101000203166002900480601f0160208091040260200160405190810160405280929190818152602001828054600181600116156101000203166002900480156109e15780601f106109b6576101008083540402835291602001916109e1565b820191906000526020600020905b8154815290600101906020018083116109c457829003601f168201915b505050505090508b565b60016020528060005260406000206000915054906101000a900460ff1681565b610a13611249565b60011515600160003373ffffffffffffffffffffffffffffffffffffffff1673ffffffffffffffffffffffffffffffffffffffff16815260200190815260200160002060009054906101000a900460ff16151514610aa6576040517f08c379a0000000000000000000000000000000000000000000000000000000008152600401610a9d90611af0565b60405180910390fd5b7f07f82f11950654413668f96f23437566482859b4074abd60ad2cd84e50bdc3fb336000803373ffffffffffffffffffffffffffffffffffffffff1673ffffffffffffffffffffffffffffffffffffffff168152602001908152602001600020604051610b149291906119b4565b60405180910390a16000803373ffffffffffffffffffffffffffffffffffffffff1673ffffffffffffffffffffffffffffffffffffffff16815260200190815260200160002060405180610160016040529081600082018054600181600116156101000203166002900480601f016020809104026020016040519081016040528092919081815260200182805460018160011615610100020316600290048015610bff5780601f10610bd457610100808354040283529160200191610bff565b820191906000526020600020905b815481529060010190602001808311610be257829003601f168201915b50505050508152602001600182018054600181600116156101000203166002900480601f016020809104026020016040519081016040528092919081815260200182805460018160011615610100020316600290048015610ca15780601f10610c7657610100808354040283529160200191610ca1565b820191906000526020600020905b815481529060010190602001808311610c8457829003601f168201915b50505050508152602001600282018054600181600116156101000203166002900480601f016020809104026020016040519081016040528092919081815260200182805460018160011615610100020316600290048015610d435780601f10610d1857610100808354040283529160200191610d43565b820191906000526020600020905b815481529060010190602001808311610d2657829003601f168201915b5050505050815260200160038201548152602001600482018054600181600116156101000203166002900480601f016020809104026020016040519081016040528092919081815260200182805460018160011615610100020316600290048015610def5780601f10610dc457610100808354040283529160200191610def565b820191906000526020600020905b815481529060010190602001808311610dd257829003601f168201915b50505050508152602001600582018054600181600116156101000203166002900480601f016020809104026020016040519081016040528092919081815260200182805460018160011615610100020316600290048015610e915780601f10610e6657610100808354040283529160200191610e91565b820191906000526020600020905b815481529060010190602001808311610e7457829003601f168201915b50505050508152602001600682018054600181600116156101000203166002900480601f016020809104026020016040519081016040528092919081815260200182805460018160011615610100020316600290048015610f335780601f10610f0857610100808354040283529160200191610f33565b820191906000526020600020905b815481529060010190602001808311610f1657829003601f168201915b50505050508152602001600782018054600181600116156101000203166002900480601f016020809104026020016040519081016040528092919081815260200182805460018160011615610100020316600290048015610fd55780601f10610faa57610100808354040283529160200191610fd5565b820191906000526020600020905b815481529060010190602001808311610fb857829003601f168201915b50505050508152602001600882018054600181600116156101000203166002900480601f0160208091040260200160405190810160405280929190818152602001828054600181600116156101000203166002900480156110775780601f1061104c57610100808354040283529160200191611077565b820191906000526020600020905b81548152906001019060200180831161105a57829003601f168201915b50505050508152602001600982018054600181600116156101000203166002900480601f0160208091040260200160405190810160405280929190818152602001828054600181600116156101000203166002900480156111195780601f106110ee57610100808354040283529160200191611119565b820191906000526020600020905b8154815290600101906020018083116110fc57829003601f168201915b50505050508152602001600a82018054600181600116156101000203166002900480601f0160208091040260200160405190810160405280929190818152602001828054600181600116156101000203166002900480156111bb5780601f10611190576101008083540402835291602001916111bb565b820191906000526020600020905b81548152906001019060200180831161119e57829003601f168201915b505050505081525050905090565b828054600181600116156101000203166002900490600052602060002090601f016020900481019282601f1061120a57805160ff1916838001178555611238565b82800160010185558215611238579182015b8281111561123757825182559160200191906001019061121c565b5b50905061124591906112a3565b5090565b60405180610160016040528060608152602001606081526020016060815260200160008152602001606081526020016060815260200160608152602001606081526020016060815260200160608152602001606081525090565b6112c591905b808211156112c15760008160009055506001016112a9565b5090565b90565b6000813590506112d781611cef565b92915050565b600082601f8301126112ee57600080fd5b81356113016112fc82611b7f565b611b52565b9150808252602083016020830185838301111561131d57600080fd5b611328838284611c75565b50505092915050565b60008135905061134081611d06565b92915050565b60006020828403121561135857600080fd5b6000611366848285016112c8565b91505092915050565b60008060008060008060008060008060006101608c8e03121561139157600080fd5b60008c013567ffffffffffffffff8111156113ab57600080fd5b6113b78e828f016112dd565b9b505060208c013567ffffffffffffffff8111156113d457600080fd5b6113e08e828f016112dd565b9a505060408c013567ffffffffffffffff8111156113fd57600080fd5b6114098e828f016112dd565b995050606061141a8e828f01611331565b98505060808c013567ffffffffffffffff81111561143757600080fd5b6114438e828f016112dd565b97505060a08c013567ffffffffffffffff81111561146057600080fd5b61146c8e828f016112dd565b96505060c08c013567ffffffffffffffff81111561148957600080fd5b6114958e828f016112dd565b95505060e08c013567ffffffffffffffff8111156114b257600080fd5b6114be8e828f016112dd565b9450506101008c013567ffffffffffffffff8111156114dc57600080fd5b6114e88e828f016112dd565b9350506101208c013567ffffffffffffffff81111561150657600080fd5b6115128e828f016112dd565b9250506101408c013567ffffffffffffffff81111561153057600080fd5b61153c8e828f016112dd565b9150509295989b509295989b9093969950565b61155881611c3f565b82525050565b61156781611c09565b82525050565b600061157882611bc0565b6115828185611bcb565b9350611592818560208601611c84565b61159b81611cd1565b840191505092915050565b60006115b182611bc0565b6115bb8185611bdc565b93506115cb818560208601611c84565b6115d481611cd1565b840191505092915050565b6000815460018116600081146115fc576001811461162257611666565b607f600283041661160d8187611bcb565b955060ff198316865260208601935050611666565b600282046116308187611bcb565b955061163b85611bab565b60005b8281101561165d5781548189015260018201915060208101905061163e565b80880195505050505b505092915050565b600061167b602783611bdc565b91507f4163636f756e74206d757374206265206372656174656420666f72207468697360008301527f20667574757265000000000000000000000000000000000000000000000000006020830152604082019050919050565b60006116e1602283611bdc565b91507f55736572732063616e206f6e6c7920637265617465206f6e652070726f66696c60008301527f65210000000000000000000000000000000000000000000000000000000000006020830152604082019050919050565b6000610160830160008301518482036000860152611758828261156d565b91505060208301518482036020860152611772828261156d565b9150506040830151848203604086015261178c828261156d565b91505060608301516117a16060860182611996565b50608083015184820360808601526117b9828261156d565b91505060a083015184820360a08601526117d3828261156d565b91505060c083015184820360c08601526117ed828261156d565b91505060e083015184820360e0860152611807828261156d565b915050610100830151848203610100860152611823828261156d565b91505061012083015184820361012086015261183f828261156d565b91505061014083015184820361014086015261185b828261156d565b9150508091505092915050565b600061016083016000808401858303600087015261188683826115df565b92505060018401858303602087015261189f83826115df565b9250506002840185830360408701526118b883826115df565b925050600384015490506118cb81611cb7565b6118d86060870182611996565b506004840185830360808701526118ef83826115df565b9250506005840185830360a087015261190883826115df565b9250506006840185830360c087015261192183826115df565b9250506007840185830360e087015261193a83826115df565b9250506008840185830361010087015261195483826115df565b9250506009840185830361012087015261196e83826115df565b925050600a840185830361014087015261198883826115df565b925050819250505092915050565b61199f81611c35565b82525050565b6119ae81611c35565b82525050565b60006040820190506119c9600083018561154f565b81810360208301526119db8184611868565b90509392505050565b60006020820190506119f9600083018461155e565b92915050565b6000610160820190508181036000830152611a1a818e6115a6565b90508181036020830152611a2e818d6115a6565b90508181036040830152611a42818c6115a6565b9050611a51606083018b6119a5565b8181036080830152611a63818a6115a6565b905081810360a0830152611a7781896115a6565b905081810360c0830152611a8b81886115a6565b905081810360e0830152611a9f81876115a6565b9050818103610100830152611ab481866115a6565b9050818103610120830152611ac981856115a6565b9050818103610140830152611ade81846115a6565b90509c9b505050505050505050505050565b60006020820190508181036000830152611b098161166e565b9050919050565b60006020820190508181036000830152611b29816116d4565b9050919050565b60006020820190508181036000830152611b4a818461173a565b905092915050565b6000604051905081810181811067ffffffffffffffff82111715611b7557600080fd5b8060405250919050565b600067ffffffffffffffff821115611b9657600080fd5b601f19601f8301169050602081019050919050565b60008190508160005260206000209050919050565b600081519050919050565b600082825260208201905092915050565b600082825260208201905092915050565b6000819050919050565b6000611c0282611c15565b9050919050565b60008115159050919050565b600073ffffffffffffffffffffffffffffffffffffffff82169050919050565b6000819050919050565b6000611c4a82611c51565b9050919050565b6000611c5c82611c63565b9050919050565b6000611c6e82611c15565b9050919050565b82818337600083830152505050565b60005b83811015611ca2578082015181840152602081019050611c87565b83811115611cb1576000848401525b50505050565b6000611cca611cc583611ce2565b611bed565b9050919050565b6000601f19601f8301169050919050565b60008160001c9050919050565b611cf881611bf7565b8114611d0357600080fd5b50565b611d0f81611c35565b8114611d1a57600080fd5b5056fea365627a7a72315820793c7797dee58594b87b4bf16a3eb15e71500d6e01d1c615272c5b204fc5d8d96c6578706572696d656e74616cf564736f6c63430005100040",
  "source": "// SPDX-License-Identifier: MIT\npragma solidity ^0.5.11;\npragma experimental ABIEncoderV2;\n\ncontract DriverFactory {\n\n    constructor() public {\n        hasAccount[msg.sender] = false;\n    }\n\n    event DriverSet(\n        address walletAddress,\n        Account account\n    );\n\n    event DriverReturned(\n        address walletAddress,\n        Account account\n    );\n\n    mapping (address => Account) public account; // maps user account Id to a wallet address\n    mapping (address => bool) public hasAccount; // assures user only are able to create one account\n\n\n\n    struct Account {\n        string firstName;\n        string middleInitial;\n        string lastName;\n        uint dob;\n        string sex;\n        string height;\n        string eyes;\n        string addressLineOne;\n        string city;\n        string state;\n        string zip;\n    }\n\n    modifier registered {\n        require(hasAccount[msg.sender] == true, \"Account must be created for this future\");\n        _;\n    }\n\n    function setAccount(\n        string memory _first,\n        string memory _midInit,\n        string memory _last,\n        uint _dob,\n        string memory _sx,\n        string memory _ht,\n        string memory _eyeColor,\n        string memory _addressLineOne,\n        string memory _city,\n        string memory _state,\n        string memory _zip\n        ) public {\n        require(hasAccount[msg.sender] == false, \"Users can only create one profile!\");\n        account[msg.sender] = Account(\n            _first,\n            _midInit,\n            _last,\n            _dob,\n            _sx,\n            _ht,\n            _eyeColor,\n            _addressLineOne,\n            _city,\n            _state,\n            _zip\n        );\n        hasAccount[msg.sender] == true;\n    }\n\n    function getAccount() public registered returns (Account memory) {\n        emit DriverReturned(msg.sender, account[msg.sender]);\n        return account[msg.sender];\n    }\n}",
  "sourcePath": "/Users/Marcus/Documents/Projects/dmvAppContracts/contracts/DriverFactory.sol",
  "compiler": {
    "name": "solc",
    "version": "0.5.16+commit.9c3226ce.Emscripten.clang"
  },
  "schemaVersion": "3.4.4",
  "updatedAt": "2022-02-17T21:16:30.171Z",
  "devdoc": {
    "methods": {}
  },
  "userdoc": {
    "methods": {}
  }
}