{
  "contractName": "LicenseFactory",
  "abi": [
    {
      "anonymous": false,
      "inputs": [
        {
          "indexed": false,
          "internalType": "address",
          "name": "walletAddress",
          "type": "address"
        },
        {
          "components": [
            {
              "internalType": "string",
              "name": "firstName",
              "type": "string"
            },
            {
              "internalType": "string",
              "name": "middleInitial",
              "type": "string"
            },
            {
              "internalType": "string",
              "name": "lastName",
              "type": "string"
            },
            {
              "internalType": "uint256",
              "name": "dob",
              "type": "uint256"
            },
            {
              "internalType": "string",
              "name": "sex",
              "type": "string"
            },
            {
              "internalType": "string",
              "name": "height",
              "type": "string"
            },
            {
              "internalType": "string",
              "name": "eyes",
              "type": "string"
            },
            {
              "internalType": "string",
              "name": "addressLineOne",
              "type": "string"
            },
            {
              "internalType": "string",
              "name": "city",
              "type": "string"
            },
            {
              "internalType": "string",
              "name": "state",
              "type": "string"
            },
            {
              "internalType": "string",
              "name": "zip",
              "type": "string"
            }
          ],
          "indexed": false,
          "internalType": "struct DriverFactory.Account",
          "name": "account",
          "type": "tuple"
        }
      ],
      "name": "DriverReturned",
      "type": "event"
    },
    {
      "anonymous": false,
      "inputs": [
        {
          "indexed": false,
          "internalType": "address",
          "name": "walletAddress",
          "type": "address"
        },
        {
          "components": [
            {
              "internalType": "string",
              "name": "firstName",
              "type": "string"
            },
            {
              "internalType": "string",
              "name": "middleInitial",
              "type": "string"
            },
            {
              "internalType": "string",
              "name": "lastName",
              "type": "string"
            },
            {
              "internalType": "uint256",
              "name": "dob",
              "type": "uint256"
            },
            {
              "internalType": "string",
              "name": "sex",
              "type": "string"
            },
            {
              "internalType": "string",
              "name": "height",
              "type": "string"
            },
            {
              "internalType": "string",
              "name": "eyes",
              "type": "string"
            },
            {
              "internalType": "string",
              "name": "addressLineOne",
              "type": "string"
            },
            {
              "internalType": "string",
              "name": "city",
              "type": "string"
            },
            {
              "internalType": "string",
              "name": "state",
              "type": "string"
            },
            {
              "internalType": "string",
              "name": "zip",
              "type": "string"
            }
          ],
          "indexed": false,
          "internalType": "struct DriverFactory.Account",
          "name": "account",
          "type": "tuple"
        }
      ],
      "name": "DriverSet",
      "type": "event"
    },
    {
      "anonymous": false,
      "inputs": [
        {
          "indexed": false,
          "internalType": "address",
          "name": "walletAddress",
          "type": "address"
        },
        {
          "indexed": false,
          "internalType": "string",
          "name": "licenseNumber",
          "type": "string"
        }
      ],
      "name": "LicenseAdded",
      "type": "event"
    },
    {
      "anonymous": false,
      "inputs": [
        {
          "indexed": false,
          "internalType": "address",
          "name": "walletAddress",
          "type": "address"
        },
        {
          "components": [
            {
              "internalType": "string",
              "name": "licenseNumber",
              "type": "string"
            },
            {
              "internalType": "uint256",
              "name": "issued",
              "type": "uint256"
            },
            {
              "internalType": "uint256",
              "name": "exp",
              "type": "uint256"
            },
            {
              "internalType": "string",
              "name": "cl",
              "type": "string"
            },
            {
              "internalType": "string",
              "name": "end",
              "type": "string"
            },
            {
              "internalType": "string",
              "name": "restr",
              "type": "string"
            }
          ],
          "indexed": false,
          "internalType": "struct LicenseFactory.License[]",
          "name": "licenseNumber",
          "type": "tuple[]"
        }
      ],
      "name": "LicenseListReturned",
      "type": "event"
    },
    {
      "constant": true,
      "inputs": [
        {
          "internalType": "address",
          "name": "",
          "type": "address"
        }
      ],
      "name": "account",
      "outputs": [
        {
          "internalType": "string",
          "name": "firstName",
          "type": "string"
        },
        {
          "internalType": "string",
          "name": "middleInitial",
          "type": "string"
        },
        {
          "internalType": "string",
          "name": "lastName",
          "type": "string"
        },
        {
          "internalType": "uint256",
          "name": "dob",
          "type": "uint256"
        },
        {
          "internalType": "string",
          "name": "sex",
          "type": "string"
        },
        {
          "internalType": "string",
          "name": "height",
          "type": "string"
        },
        {
          "internalType": "string",
          "name": "eyes",
          "type": "string"
        },
        {
          "internalType": "string",
          "name": "addressLineOne",
          "type": "string"
        },
        {
          "internalType": "string",
          "name": "city",
          "type": "string"
        },
        {
          "internalType": "string",
          "name": "state",
          "type": "string"
        },
        {
          "internalType": "string",
          "name": "zip",
          "type": "string"
        }
      ],
      "payable": false,
      "stateMutability": "view",
      "type": "function"
    },
    {
      "constant": false,
      "inputs": [],
      "name": "getAccount",
      "outputs": [
        {
          "components": [
            {
              "internalType": "string",
              "name": "firstName",
              "type": "string"
            },
            {
              "internalType": "string",
              "name": "middleInitial",
              "type": "string"
            },
            {
              "internalType": "string",
              "name": "lastName",
              "type": "string"
            },
            {
              "internalType": "uint256",
              "name": "dob",
              "type": "uint256"
            },
            {
              "internalType": "string",
              "name": "sex",
              "type": "string"
            },
            {
              "internalType": "string",
              "name": "height",
              "type": "string"
            },
            {
              "internalType": "string",
              "name": "eyes",
              "type": "string"
            },
            {
              "internalType": "string",
              "name": "addressLineOne",
              "type": "string"
            },
            {
              "internalType": "string",
              "name": "city",
              "type": "string"
            },
            {
              "internalType": "string",
              "name": "state",
              "type": "string"
            },
            {
              "internalType": "string",
              "name": "zip",
              "type": "string"
            }
          ],
          "internalType": "struct DriverFactory.Account",
          "name": "",
          "type": "tuple"
        }
      ],
      "payable": false,
      "stateMutability": "nonpayable",
      "type": "function"
    },
    {
      "constant": true,
      "inputs": [
        {
          "internalType": "address",
          "name": "",
          "type": "address"
        }
      ],
      "name": "hasAccount",
      "outputs": [
        {
          "internalType": "bool",
          "name": "",
          "type": "bool"
        }
      ],
      "payable": false,
      "stateMutability": "view",
      "type": "function"
    },
    {
      "constant": false,
      "inputs": [
        {
          "internalType": "string",
          "name": "_first",
          "type": "string"
        },
        {
          "internalType": "string",
          "name": "_midInit",
          "type": "string"
        },
        {
          "internalType": "string",
          "name": "_last",
          "type": "string"
        },
        {
          "internalType": "uint256",
          "name": "_dob",
          "type": "uint256"
        },
        {
          "internalType": "string",
          "name": "_sx",
          "type": "string"
        },
        {
          "internalType": "string",
          "name": "_ht",
          "type": "string"
        },
        {
          "internalType": "string",
          "name": "_eyeColor",
          "type": "string"
        },
        {
          "internalType": "string",
          "name": "_addressLineOne",
          "type": "string"
        },
        {
          "internalType": "string",
          "name": "_city",
          "type": "string"
        },
        {
          "internalType": "string",
          "name": "_state",
          "type": "string"
        },
        {
          "internalType": "string",
          "name": "_zip",
          "type": "string"
        }
      ],
      "name": "setAccount",
      "outputs": [],
      "payable": false,
      "stateMutability": "nonpayable",
      "type": "function"
    },
    {
      "constant": false,
      "inputs": [
        {
          "internalType": "string",
          "name": "_licNum",
          "type": "string"
        },
        {
          "internalType": "uint256",
          "name": "_licIssued",
          "type": "uint256"
        },
        {
          "internalType": "uint256",
          "name": "_licExp",
          "type": "uint256"
        },
        {
          "internalType": "string",
          "name": "_licClass",
          "type": "string"
        },
        {
          "internalType": "string",
          "name": "_licEnd",
          "type": "string"
        },
        {
          "internalType": "string",
          "name": "_licRestr",
          "type": "string"
        }
      ],
      "name": "setLicense",
      "outputs": [],
      "payable": false,
      "stateMutability": "nonpayable",
      "type": "function"
    },
    {
      "constant": false,
      "inputs": [],
      "name": "getLicense",
      "outputs": [
        {
          "components": [
            {
              "internalType": "string",
              "name": "licenseNumber",
              "type": "string"
            },
            {
              "internalType": "uint256",
              "name": "issued",
              "type": "uint256"
            },
            {
              "internalType": "uint256",
              "name": "exp",
              "type": "uint256"
            },
            {
              "internalType": "string",
              "name": "cl",
              "type": "string"
            },
            {
              "internalType": "string",
              "name": "end",
              "type": "string"
            },
            {
              "internalType": "string",
              "name": "restr",
              "type": "string"
            }
          ],
          "internalType": "struct LicenseFactory.License[]",
          "name": "",
          "type": "tuple[]"
        }
      ],
      "payable": false,
      "stateMutability": "nonpayable",
      "type": "function"
    }
  ],
  "bytecode": "0x60806040526000600160003373ffffffffffffffffffffffffffffffffffffffff1673ffffffffffffffffffffffffffffffffffffffff16815260200190815260200160002060006101000a81548160ff02191690831515021790555061285e8061006b6000396000f3fe608060405234801561001057600080fd5b50600436106100625760003560e01c806335e0af4c146100675780635a33d6671461008357806373b9aa911461009f578063c5e4dd82146100d9578063c8e40fbf146100f7578063db613e8114610127575b600080fd5b610081600480360361007c91908101906119f7565b610145565b005b61009d60048036036100989190810190611bd7565b6103f1565b005b6100b960048036036100b491908101906119ce565b6105e7565b6040516100d09b9a9998979695949392919061248c565b60405180910390f35b6100e1610c31565b6040516100ee919061244f565b60405180910390f35b610111600480360361010c91908101906119ce565b611073565b60405161011e9190612471565b60405180910390f35b61012f611093565b60405161013c91906125bd565b60405180910390f35b60001515600160003373ffffffffffffffffffffffffffffffffffffffff1673ffffffffffffffffffffffffffffffffffffffff16815260200190815260200160002060009054906101000a900460ff161515146101d8576040517f08c379a00000000000000000000000000000000000000000000000000000000081526004016101cf9061259d565b60405180910390fd5b6040518061016001604052808c81526020018b81526020018a8152602001898152602001888152602001878152602001868152602001858152602001848152602001838152602001828152506000803373ffffffffffffffffffffffffffffffffffffffff1673ffffffffffffffffffffffffffffffffffffffff168152602001908152602001600020600082015181600001908051906020019061027e929190611851565b50602082015181600101908051906020019061029b929190611851565b5060408201518160020190805190602001906102b8929190611851565b506060820151816003015560808201518160040190805190602001906102df929190611851565b5060a08201518160050190805190602001906102fc929190611851565b5060c0820151816006019080519060200190610319929190611851565b5060e0820151816007019080519060200190610336929190611851565b50610100820151816008019080519060200190610354929190611851565b50610120820151816009019080519060200190610372929190611851565b5061014082015181600a019080519060200190610390929190611851565b5090505060011515600160003373ffffffffffffffffffffffffffffffffffffffff1673ffffffffffffffffffffffffffffffffffffffff16815260200190815260200160002060009054906101000a905050505050505050505050505050565b60011515600160003373ffffffffffffffffffffffffffffffffffffffff1673ffffffffffffffffffffffffffffffffffffffff16815260200190815260200160002060009054906101000a900460ff16151514610484576040517f08c379a000000000000000000000000000000000000000000000000000000000815260040161047b9061257d565b60405180910390fd5b7fa0d8c398d30fd0147d57089b54c3519605ada1a237f683aa9199404bf5ad935033876040516104b59291906123ef565b60405180910390a1600260003373ffffffffffffffffffffffffffffffffffffffff1673ffffffffffffffffffffffffffffffffffffffff1681526020019081526020016000206040518060c0016040528088815260200187815260200186815260200185815260200184815260200183815250908060018154018082558091505090600182039060005260206000209060060201600090919290919091506000820151816000019080519060200190610570929190611851565b50602082015181600101556040820151816002015560608201518160030190805190602001906105a1929190611851565b5060808201518160040190805190602001906105be929190611851565b5060a08201518160050190805190602001906105db929190611851565b50505050505050505050565b6000602052806000526040600020600091509050806000018054600181600116156101000203166002900480601f0160208091040260200160405190810160405280929190818152602001828054600181600116156101000203166002900480156106935780601f1061066857610100808354040283529160200191610693565b820191906000526020600020905b81548152906001019060200180831161067657829003601f168201915b505050505090806001018054600181600116156101000203166002900480601f0160208091040260200160405190810160405280929190818152602001828054600181600116156101000203166002900480156107315780601f1061070657610100808354040283529160200191610731565b820191906000526020600020905b81548152906001019060200180831161071457829003601f168201915b505050505090806002018054600181600116156101000203166002900480601f0160208091040260200160405190810160405280929190818152602001828054600181600116156101000203166002900480156107cf5780601f106107a4576101008083540402835291602001916107cf565b820191906000526020600020905b8154815290600101906020018083116107b257829003601f168201915b505050505090806003015490806004018054600181600116156101000203166002900480601f0160208091040260200160405190810160405280929190818152602001828054600181600116156101000203166002900480156108735780601f1061084857610100808354040283529160200191610873565b820191906000526020600020905b81548152906001019060200180831161085657829003601f168201915b505050505090806005018054600181600116156101000203166002900480601f0160208091040260200160405190810160405280929190818152602001828054600181600116156101000203166002900480156109115780601f106108e657610100808354040283529160200191610911565b820191906000526020600020905b8154815290600101906020018083116108f457829003601f168201915b505050505090806006018054600181600116156101000203166002900480601f0160208091040260200160405190810160405280929190818152602001828054600181600116156101000203166002900480156109af5780601f10610984576101008083540402835291602001916109af565b820191906000526020600020905b81548152906001019060200180831161099257829003601f168201915b505050505090806007018054600181600116156101000203166002900480601f016020809104026020016040519081016040528092919081815260200182805460018160011615610100020316600290048015610a4d5780601f10610a2257610100808354040283529160200191610a4d565b820191906000526020600020905b815481529060010190602001808311610a3057829003601f168201915b505050505090806008018054600181600116156101000203166002900480601f016020809104026020016040519081016040528092919081815260200182805460018160011615610100020316600290048015610aeb5780601f10610ac057610100808354040283529160200191610aeb565b820191906000526020600020905b815481529060010190602001808311610ace57829003601f168201915b505050505090806009018054600181600116156101000203166002900480601f016020809104026020016040519081016040528092919081815260200182805460018160011615610100020316600290048015610b895780601f10610b5e57610100808354040283529160200191610b89565b820191906000526020600020905b815481529060010190602001808311610b6c57829003601f168201915b50505050509080600a018054600181600116156101000203166002900480601f016020809104026020016040519081016040528092919081815260200182805460018160011615610100020316600290048015610c275780601f10610bfc57610100808354040283529160200191610c27565b820191906000526020600020905b815481529060010190602001808311610c0a57829003601f168201915b505050505090508b565b606060011515600160003373ffffffffffffffffffffffffffffffffffffffff1673ffffffffffffffffffffffffffffffffffffffff16815260200190815260200160002060009054906101000a900460ff16151514610cc6576040517f08c379a0000000000000000000000000000000000000000000000000000000008152600401610cbd9061257d565b60405180910390fd5b7ffad9d45e54d012fb78096a6fa7b92a4ad136b1fa62e6c8b5aa39294022dc564e33600260003373ffffffffffffffffffffffffffffffffffffffff1673ffffffffffffffffffffffffffffffffffffffff168152602001908152602001600020604051610d359291906123bf565b60405180910390a1600260003373ffffffffffffffffffffffffffffffffffffffff1673ffffffffffffffffffffffffffffffffffffffff168152602001908152602001600020805480602002602001604051908101604052809291908181526020016000905b8282101561106a57838290600052602060002090600602016040518060c0016040529081600082018054600181600116156101000203166002900480601f016020809104026020016040519081016040528092919081815260200182805460018160011615610100020316600290048015610e585780601f10610e2d57610100808354040283529160200191610e58565b820191906000526020600020905b815481529060010190602001808311610e3b57829003601f168201915b505050505081526020016001820154815260200160028201548152602001600382018054600181600116156101000203166002900480601f016020809104026020016040519081016040528092919081815260200182805460018160011615610100020316600290048015610f0e5780601f10610ee357610100808354040283529160200191610f0e565b820191906000526020600020905b815481529060010190602001808311610ef157829003601f168201915b50505050508152602001600482018054600181600116156101000203166002900480601f016020809104026020016040519081016040528092919081815260200182805460018160011615610100020316600290048015610fb05780601f10610f8557610100808354040283529160200191610fb0565b820191906000526020600020905b815481529060010190602001808311610f9357829003601f168201915b50505050508152602001600582018054600181600116156101000203166002900480601f0160208091040260200160405190810160405280929190818152602001828054600181600116156101000203166002900480156110525780601f1061102757610100808354040283529160200191611052565b820191906000526020600020905b81548152906001019060200180831161103557829003601f168201915b50505050508152505081526020019060010190610d9c565b50505050905090565b60016020528060005260406000206000915054906101000a900460ff1681565b61109b6118d1565b60011515600160003373ffffffffffffffffffffffffffffffffffffffff1673ffffffffffffffffffffffffffffffffffffffff16815260200190815260200160002060009054906101000a900460ff1615151461112e576040517f08c379a00000000000000000000000000000000000000000000000000000000081526004016111259061257d565b60405180910390fd5b7f07f82f11950654413668f96f23437566482859b4074abd60ad2cd84e50bdc3fb336000803373ffffffffffffffffffffffffffffffffffffffff1673ffffffffffffffffffffffffffffffffffffffff16815260200190815260200160002060405161119c92919061241f565b60405180910390a16000803373ffffffffffffffffffffffffffffffffffffffff1673ffffffffffffffffffffffffffffffffffffffff16815260200190815260200160002060405180610160016040529081600082018054600181600116156101000203166002900480601f0160208091040260200160405190810160405280929190818152602001828054600181600116156101000203166002900480156112875780601f1061125c57610100808354040283529160200191611287565b820191906000526020600020905b81548152906001019060200180831161126a57829003601f168201915b50505050508152602001600182018054600181600116156101000203166002900480601f0160208091040260200160405190810160405280929190818152602001828054600181600116156101000203166002900480156113295780601f106112fe57610100808354040283529160200191611329565b820191906000526020600020905b81548152906001019060200180831161130c57829003601f168201915b50505050508152602001600282018054600181600116156101000203166002900480601f0160208091040260200160405190810160405280929190818152602001828054600181600116156101000203166002900480156113cb5780601f106113a0576101008083540402835291602001916113cb565b820191906000526020600020905b8154815290600101906020018083116113ae57829003601f168201915b5050505050815260200160038201548152602001600482018054600181600116156101000203166002900480601f0160208091040260200160405190810160405280929190818152602001828054600181600116156101000203166002900480156114775780601f1061144c57610100808354040283529160200191611477565b820191906000526020600020905b81548152906001019060200180831161145a57829003601f168201915b50505050508152602001600582018054600181600116156101000203166002900480601f0160208091040260200160405190810160405280929190818152602001828054600181600116156101000203166002900480156115195780601f106114ee57610100808354040283529160200191611519565b820191906000526020600020905b8154815290600101906020018083116114fc57829003601f168201915b50505050508152602001600682018054600181600116156101000203166002900480601f0160208091040260200160405190810160405280929190818152602001828054600181600116156101000203166002900480156115bb5780601f10611590576101008083540402835291602001916115bb565b820191906000526020600020905b81548152906001019060200180831161159e57829003601f168201915b50505050508152602001600782018054600181600116156101000203166002900480601f01602080910402602001604051908101604052809291908181526020018280546001816001161561010002031660029004801561165d5780601f106116325761010080835404028352916020019161165d565b820191906000526020600020905b81548152906001019060200180831161164057829003601f168201915b50505050508152602001600882018054600181600116156101000203166002900480601f0160208091040260200160405190810160405280929190818152602001828054600181600116156101000203166002900480156116ff5780601f106116d4576101008083540402835291602001916116ff565b820191906000526020600020905b8154815290600101906020018083116116e257829003601f168201915b50505050508152602001600982018054600181600116156101000203166002900480601f0160208091040260200160405190810160405280929190818152602001828054600181600116156101000203166002900480156117a15780601f10611776576101008083540402835291602001916117a1565b820191906000526020600020905b81548152906001019060200180831161178457829003601f168201915b50505050508152602001600a82018054600181600116156101000203166002900480601f0160208091040260200160405190810160405280929190818152602001828054600181600116156101000203166002900480156118435780601f1061181857610100808354040283529160200191611843565b820191906000526020600020905b81548152906001019060200180831161182657829003601f168201915b505050505081525050905090565b828054600181600116156101000203166002900490600052602060002090601f016020900481019282601f1061189257805160ff19168380011785556118c0565b828001600101855582156118c0579182015b828111156118bf5782518255916020019190600101906118a4565b5b5090506118cd919061192b565b5090565b60405180610160016040528060608152602001606081526020016060815260200160008152602001606081526020016060815260200160608152602001606081526020016060815260200160608152602001606081525090565b61194d91905b80821115611949576000816000905550600101611931565b5090565b90565b60008135905061195f816127ed565b92915050565b600082601f83011261197657600080fd5b81356119896119848261260c565b6125df565b915080825260208301602083018583830111156119a557600080fd5b6119b0838284612773565b50505092915050565b6000813590506119c881612804565b92915050565b6000602082840312156119e057600080fd5b60006119ee84828501611950565b91505092915050565b60008060008060008060008060008060006101608c8e031215611a1957600080fd5b60008c013567ffffffffffffffff811115611a3357600080fd5b611a3f8e828f01611965565b9b505060208c013567ffffffffffffffff811115611a5c57600080fd5b611a688e828f01611965565b9a505060408c013567ffffffffffffffff811115611a8557600080fd5b611a918e828f01611965565b9950506060611aa28e828f016119b9565b98505060808c013567ffffffffffffffff811115611abf57600080fd5b611acb8e828f01611965565b97505060a08c013567ffffffffffffffff811115611ae857600080fd5b611af48e828f01611965565b96505060c08c013567ffffffffffffffff811115611b1157600080fd5b611b1d8e828f01611965565b95505060e08c013567ffffffffffffffff811115611b3a57600080fd5b611b468e828f01611965565b9450506101008c013567ffffffffffffffff811115611b6457600080fd5b611b708e828f01611965565b9350506101208c013567ffffffffffffffff811115611b8e57600080fd5b611b9a8e828f01611965565b9250506101408c013567ffffffffffffffff811115611bb857600080fd5b611bc48e828f01611965565b9150509295989b509295989b9093969950565b60008060008060008060c08789031215611bf057600080fd5b600087013567ffffffffffffffff811115611c0a57600080fd5b611c1689828a01611965565b9650506020611c2789828a016119b9565b9550506040611c3889828a016119b9565b945050606087013567ffffffffffffffff811115611c5557600080fd5b611c6189828a01611965565b935050608087013567ffffffffffffffff811115611c7e57600080fd5b611c8a89828a01611965565b92505060a087013567ffffffffffffffff811115611ca757600080fd5b611cb389828a01611965565b9150509295509295509295565b6000611ccc8383612251565b905092915050565b6000611ce083836122ef565b905092915050565b611cf18161273d565b82525050565b6000611d0282612672565b611d0c81856126b8565b935083602082028501611d1e85612638565b8060005b85811015611d5a5784840389528151611d3b8582611cc0565b9450611d468361269e565b925060208a01995050600181019050611d22565b50829750879550505050505092915050565b6000611d778261267d565b611d8181856126b8565b935083602082028501611d9385612648565b8060005b85811015611dce57848403895281611daf8582611cd4565b9450611dba836126ab565b925060208a01995050600181019050611d97565b50829750879550505050505092915050565b611de981612707565b82525050565b6000611dfa82612693565b611e0481856126da565b9350611e14818560208601612782565b611e1d816127cf565b840191505092915050565b6000611e3382612688565b611e3d81856126c9565b9350611e4d818560208601612782565b611e56816127cf565b840191505092915050565b6000611e6c82612688565b611e7681856126da565b9350611e86818560208601612782565b611e8f816127cf565b840191505092915050565b600081546001811660008114611eb75760018114611edd57611f21565b607f6002830416611ec881876126c9565b955060ff198316865260208601935050611f21565b60028204611eeb81876126c9565b9550611ef68561265d565b60005b82811015611f1857815481890152600182019150602081019050611ef9565b80880195505050505b505092915050565b6000611f366027836126da565b91507f4163636f756e74206d757374206265206372656174656420666f72207468697360008301527f20667574757265000000000000000000000000000000000000000000000000006020830152604082019050919050565b6000611f9c6022836126da565b91507f55736572732063616e206f6e6c7920637265617465206f6e652070726f66696c60008301527f65210000000000000000000000000000000000000000000000000000000000006020830152604082019050919050565b60006101608301600083015184820360008601526120138282611e28565b9150506020830151848203602086015261202d8282611e28565b915050604083015184820360408601526120478282611e28565b915050606083015161205c60608601826123a1565b50608083015184820360808601526120748282611e28565b91505060a083015184820360a086015261208e8282611e28565b91505060c083015184820360c08601526120a88282611e28565b91505060e083015184820360e08601526120c28282611e28565b9150506101008301518482036101008601526120de8282611e28565b9150506101208301518482036101208601526120fa8282611e28565b9150506101408301518482036101408601526121168282611e28565b9150508091505092915050565b60006101608301600080840185830360008701526121418382611e9a565b92505060018401858303602087015261215a8382611e9a565b9250506002840185830360408701526121738382611e9a565b92505060038401549050612186816127b5565b61219360608701826123a1565b506004840185830360808701526121aa8382611e9a565b9250506005840185830360a08701526121c38382611e9a565b9250506006840185830360c08701526121dc8382611e9a565b9250506007840185830360e08701526121f58382611e9a565b9250506008840185830361010087015261220f8382611e9a565b925050600984018583036101208701526122298382611e9a565b925050600a84018583036101408701526122438382611e9a565b925050819250505092915050565b600060c083016000830151848203600086015261226e8282611e28565b915050602083015161228360208601826123a1565b50604083015161229660408601826123a1565b50606083015184820360608601526122ae8282611e28565b915050608083015184820360808601526122c88282611e28565b91505060a083015184820360a08601526122e28282611e28565b9150508091505092915050565b600060c083016000808401858303600087015261230c8382611e9a565b9250506001840154905061231f816127b5565b61232c60208701826123a1565b506002840154905061233d816127b5565b61234a60408701826123a1565b506003840185830360608701526123618382611e9a565b92505060048401858303608087015261237a8382611e9a565b9250506005840185830360a08701526123938382611e9a565b925050819250505092915050565b6123aa81612733565b82525050565b6123b981612733565b82525050565b60006040820190506123d46000830185611ce8565b81810360208301526123e68184611d6c565b90509392505050565b60006040820190506124046000830185611ce8565b81810360208301526124168184611def565b90509392505050565b60006040820190506124346000830185611ce8565b81810360208301526124468184612123565b90509392505050565b600060208201905081810360008301526124698184611cf7565b905092915050565b60006020820190506124866000830184611de0565b92915050565b60006101608201905081810360008301526124a7818e611e61565b905081810360208301526124bb818d611e61565b905081810360408301526124cf818c611e61565b90506124de606083018b6123b0565b81810360808301526124f0818a611e61565b905081810360a08301526125048189611e61565b905081810360c08301526125188188611e61565b905081810360e083015261252c8187611e61565b90508181036101008301526125418186611e61565b90508181036101208301526125568185611e61565b905081810361014083015261256b8184611e61565b90509c9b505050505050505050505050565b6000602082019050818103600083015261259681611f29565b9050919050565b600060208201905081810360008301526125b681611f8f565b9050919050565b600060208201905081810360008301526125d78184611ff5565b905092915050565b6000604051905081810181811067ffffffffffffffff8211171561260257600080fd5b8060405250919050565b600067ffffffffffffffff82111561262357600080fd5b601f19601f8301169050602081019050919050565b6000819050602082019050919050565b60008190508160005260206000209050919050565b60008190508160005260206000209050919050565b600081519050919050565b600081549050919050565b600081519050919050565b600081519050919050565b6000602082019050919050565b6000600682019050919050565b600082825260208201905092915050565b600082825260208201905092915050565b600082825260208201905092915050565b6000819050919050565b600061270082612713565b9050919050565b60008115159050919050565b600073ffffffffffffffffffffffffffffffffffffffff82169050919050565b6000819050919050565b60006127488261274f565b9050919050565b600061275a82612761565b9050919050565b600061276c82612713565b9050919050565b82818337600083830152505050565b60005b838110156127a0578082015181840152602081019050612785565b838111156127af576000848401525b50505050565b60006127c86127c3836127e0565b6126eb565b9050919050565b6000601f19601f8301169050919050565b60008160001c9050919050565b6127f6816126f5565b811461280157600080fd5b50565b61280d81612733565b811461281857600080fd5b5056fea365627a7a7231582087683635fb2fa83b8d09e3def9b170e70ee59057041afd8e53938516bbc320596c6578706572696d656e74616cf564736f6c63430005100040",
  "source": "// SPDX-License-Identifier: MIT\npragma solidity ^0.5.11;\npragma experimental ABIEncoderV2;\nimport \"./DriverFactory.sol\";\n\ncontract LicenseFactory is DriverFactory {\n\n    event LicenseAdded(address walletAddress, string licenseNumber);\n    event LicenseListReturned(address walletAddress, License[] licenseNumber);\n    mapping (address => License[]) licenses;\n\n    struct License {\n        string licenseNumber;\n        uint issued;\n        uint exp;\n        string cl;\n        string end;\n        string restr;\n    }\n\n    function setLicense(\n        string memory _licNum,\n        uint _licIssued,\n        uint _licExp,\n        string memory _licClass,\n        string memory _licEnd,\n        string memory _licRestr\n    ) public registered {\n        emit LicenseAdded(msg.sender, _licNum);\n        licenses[msg.sender].push(License(\n            _licNum,\n            _licIssued,\n            _licExp,\n            _licClass,\n            _licEnd,\n            _licRestr\n        ));\n    }\n\n    function getLicense() public registered returns (License[] memory) {\n        emit LicenseListReturned(msg.sender, licenses[msg.sender]);\n        return licenses[msg.sender];\n    }\n}\n",
  "sourcePath": "/Users/Marcus/Documents/Projects/dmvAppContracts/contracts/LicenseFactory.sol",
  "compiler": {
    "name": "solc",
    "version": "0.5.16+commit.9c3226ce.Emscripten.clang"
  },
  "schemaVersion": "3.4.4",
  "updatedAt": "2022-02-17T21:16:30.177Z",
  "devdoc": {
    "methods": {}
  },
  "userdoc": {
    "methods": {}
  }
}