{
  "contractName": "LicenseFactory",
  "abi": [
    {
      "anonymous": false,
      "inputs": [
        {
          "indexed": false,
          "internalType": "address",
          "name": "walletAddress",
          "type": "address"
        },
        {
          "indexed": false,
          "internalType": "uint256",
          "name": "userId",
          "type": "uint256"
        },
        {
          "indexed": false,
          "internalType": "string",
          "name": "firstName",
          "type": "string"
        },
        {
          "indexed": false,
          "internalType": "string",
          "name": "middleInitial",
          "type": "string"
        },
        {
          "indexed": false,
          "internalType": "string",
          "name": "lastName",
          "type": "string"
        },
        {
          "indexed": false,
          "internalType": "string",
          "name": "sex",
          "type": "string"
        },
        {
          "indexed": false,
          "internalType": "string",
          "name": "height",
          "type": "string"
        },
        {
          "indexed": false,
          "internalType": "string",
          "name": "eyes",
          "type": "string"
        }
      ],
      "name": "DriverGotten",
      "type": "event"
    },
    {
      "anonymous": false,
      "inputs": [
        {
          "indexed": false,
          "internalType": "address",
          "name": "walletAddress",
          "type": "address"
        },
        {
          "indexed": false,
          "internalType": "uint256",
          "name": "driverId",
          "type": "uint256"
        },
        {
          "indexed": false,
          "internalType": "string",
          "name": "firstName",
          "type": "string"
        },
        {
          "indexed": false,
          "internalType": "string",
          "name": "middleInitial",
          "type": "string"
        },
        {
          "indexed": false,
          "internalType": "string",
          "name": "lastName",
          "type": "string"
        },
        {
          "indexed": false,
          "internalType": "string",
          "name": "sex",
          "type": "string"
        },
        {
          "indexed": false,
          "internalType": "string",
          "name": "height",
          "type": "string"
        },
        {
          "indexed": false,
          "internalType": "string",
          "name": "eyes",
          "type": "string"
        }
      ],
      "name": "DriverSet",
      "type": "event"
    },
    {
      "anonymous": false,
      "inputs": [
        {
          "indexed": false,
          "internalType": "address",
          "name": "walletAddress",
          "type": "address"
        },
        {
          "indexed": false,
          "internalType": "uint256",
          "name": "driverId",
          "type": "uint256"
        },
        {
          "indexed": false,
          "internalType": "string",
          "name": "licenseNumber",
          "type": "string"
        }
      ],
      "name": "LicenseAdded",
      "type": "event"
    },
    {
      "anonymous": false,
      "inputs": [
        {
          "indexed": false,
          "internalType": "address",
          "name": "walletAddress",
          "type": "address"
        },
        {
          "indexed": false,
          "internalType": "uint256",
          "name": "driverId",
          "type": "uint256"
        },
        {
          "indexed": false,
          "internalType": "string",
          "name": "licenseNumber",
          "type": "string"
        }
      ],
      "name": "LicenseGotten",
      "type": "event"
    },
    {
      "constant": true,
      "inputs": [
        {
          "internalType": "uint256",
          "name": "",
          "type": "uint256"
        }
      ],
      "name": "driverAddresses",
      "outputs": [
        {
          "internalType": "string",
          "name": "addressLineOne",
          "type": "string"
        },
        {
          "internalType": "string",
          "name": "city",
          "type": "string"
        },
        {
          "internalType": "string",
          "name": "state",
          "type": "string"
        },
        {
          "internalType": "string",
          "name": "zip",
          "type": "string"
        }
      ],
      "payable": false,
      "stateMutability": "view",
      "type": "function"
    },
    {
      "constant": true,
      "inputs": [
        {
          "internalType": "uint256",
          "name": "",
          "type": "uint256"
        }
      ],
      "name": "driverFeatures",
      "outputs": [
        {
          "internalType": "string",
          "name": "sex",
          "type": "string"
        },
        {
          "internalType": "string",
          "name": "height",
          "type": "string"
        },
        {
          "internalType": "string",
          "name": "eyes",
          "type": "string"
        }
      ],
      "payable": false,
      "stateMutability": "view",
      "type": "function"
    },
    {
      "constant": true,
      "inputs": [
        {
          "internalType": "uint256",
          "name": "",
          "type": "uint256"
        }
      ],
      "name": "driverNames",
      "outputs": [
        {
          "internalType": "string",
          "name": "firstName",
          "type": "string"
        },
        {
          "internalType": "string",
          "name": "middleInitial",
          "type": "string"
        },
        {
          "internalType": "string",
          "name": "lastName",
          "type": "string"
        }
      ],
      "payable": false,
      "stateMutability": "view",
      "type": "function"
    },
    {
      "constant": true,
      "inputs": [
        {
          "internalType": "uint256",
          "name": "",
          "type": "uint256"
        }
      ],
      "name": "driverToOwner",
      "outputs": [
        {
          "internalType": "address",
          "name": "",
          "type": "address"
        }
      ],
      "payable": false,
      "stateMutability": "view",
      "type": "function"
    },
    {
      "constant": false,
      "inputs": [
        {
          "internalType": "uint256",
          "name": "_driverId",
          "type": "uint256"
        }
      ],
      "name": "getAccountInfo",
      "outputs": [],
      "payable": false,
      "stateMutability": "nonpayable",
      "type": "function"
    },
    {
      "constant": true,
      "inputs": [
        {
          "internalType": "string",
          "name": "",
          "type": "string"
        }
      ],
      "name": "licenseAdded",
      "outputs": [
        {
          "internalType": "bool",
          "name": "",
          "type": "bool"
        }
      ],
      "payable": false,
      "stateMutability": "view",
      "type": "function"
    },
    {
      "constant": true,
      "inputs": [
        {
          "internalType": "string",
          "name": "",
          "type": "string"
        }
      ],
      "name": "licenseToOwner",
      "outputs": [
        {
          "internalType": "address",
          "name": "",
          "type": "address"
        }
      ],
      "payable": false,
      "stateMutability": "view",
      "type": "function"
    },
    {
      "constant": true,
      "inputs": [
        {
          "internalType": "uint256",
          "name": "",
          "type": "uint256"
        }
      ],
      "name": "licenses",
      "outputs": [
        {
          "internalType": "uint256",
          "name": "driverId",
          "type": "uint256"
        },
        {
          "internalType": "string",
          "name": "licenseType",
          "type": "string"
        },
        {
          "internalType": "string",
          "name": "licenseNumber",
          "type": "string"
        },
        {
          "internalType": "uint256",
          "name": "issued",
          "type": "uint256"
        },
        {
          "internalType": "uint256",
          "name": "exp",
          "type": "uint256"
        },
        {
          "internalType": "string",
          "name": "cl",
          "type": "string"
        },
        {
          "internalType": "string",
          "name": "end",
          "type": "string"
        },
        {
          "internalType": "string",
          "name": "restr",
          "type": "string"
        }
      ],
      "payable": false,
      "stateMutability": "view",
      "type": "function"
    },
    {
      "constant": true,
      "inputs": [
        {
          "internalType": "address",
          "name": "",
          "type": "address"
        },
        {
          "internalType": "uint256",
          "name": "",
          "type": "uint256"
        }
      ],
      "name": "ownerLicensesList",
      "outputs": [
        {
          "internalType": "string",
          "name": "",
          "type": "string"
        }
      ],
      "payable": false,
      "stateMutability": "view",
      "type": "function"
    },
    {
      "constant": false,
      "inputs": [
        {
          "internalType": "string",
          "name": "_first",
          "type": "string"
        },
        {
          "internalType": "string",
          "name": "_midInit",
          "type": "string"
        },
        {
          "internalType": "string",
          "name": "_last",
          "type": "string"
        },
        {
          "internalType": "string",
          "name": "_sx",
          "type": "string"
        },
        {
          "internalType": "string",
          "name": "_ht",
          "type": "string"
        },
        {
          "internalType": "string",
          "name": "_eyeColor",
          "type": "string"
        },
        {
          "internalType": "string",
          "name": "_addressLineOne",
          "type": "string"
        },
        {
          "internalType": "string",
          "name": "_city",
          "type": "string"
        },
        {
          "internalType": "string",
          "name": "_state",
          "type": "string"
        },
        {
          "internalType": "string",
          "name": "_zip",
          "type": "string"
        }
      ],
      "name": "setDriver",
      "outputs": [],
      "payable": false,
      "stateMutability": "nonpayable",
      "type": "function"
    },
    {
      "constant": true,
      "inputs": [
        {
          "internalType": "address",
          "name": "",
          "type": "address"
        }
      ],
      "name": "userAccountsCount",
      "outputs": [
        {
          "internalType": "uint256",
          "name": "",
          "type": "uint256"
        }
      ],
      "payable": false,
      "stateMutability": "view",
      "type": "function"
    },
    {
      "constant": false,
      "inputs": [
        {
          "internalType": "uint256",
          "name": "_driverId",
          "type": "uint256"
        },
        {
          "internalType": "string",
          "name": "_licType",
          "type": "string"
        },
        {
          "internalType": "string",
          "name": "_licNum",
          "type": "string"
        },
        {
          "internalType": "uint256",
          "name": "_licIssued",
          "type": "uint256"
        },
        {
          "internalType": "uint256",
          "name": "_licExp",
          "type": "uint256"
        },
        {
          "internalType": "string",
          "name": "_licClass",
          "type": "string"
        },
        {
          "internalType": "string",
          "name": "_licEnd",
          "type": "string"
        },
        {
          "internalType": "string",
          "name": "_licRestr",
          "type": "string"
        }
      ],
      "name": "setLicense",
      "outputs": [],
      "payable": false,
      "stateMutability": "nonpayable",
      "type": "function"
    }
  ],
  "bytecode": "0x608060405234801561001057600080fd5b5061366b806100206000396000f3fe608060405234801561001057600080fd5b50600436106100b45760003560e01c80639ca549f2116100715780639ca549f2146108ce578063a96137be14610995578063aabad71614610b14578063b1da3c0214610be7578063c85feec4146111f2578063e6c18e59146113dd576100b4565b80632b325557146100b9578063337908451461012757806339c2c04d146103935780633b561afc146106c95780635f2d7485146106f7578063812f2b5514610876575b600080fd5b6100e5600480360360208110156100cf57600080fd5b81019080803590602001909291905050506114d8565b604051808273ffffffffffffffffffffffffffffffffffffffff1673ffffffffffffffffffffffffffffffffffffffff16815260200191505060405180910390f35b6101536004803603602081101561013d57600080fd5b810190808035906020019092919050505061150b565b60405180898152602001806020018060200188815260200187815260200180602001806020018060200186810386528d818151815260200191508051906020019080838360005b838110156101b557808201518184015260208101905061019a565b50505050905090810190601f1680156101e25780820380516001836020036101000a031916815260200191505b5086810385528c818151815260200191508051906020019080838360005b8381101561021b578082015181840152602081019050610200565b50505050905090810190601f1680156102485780820380516001836020036101000a031916815260200191505b50868103845289818151815260200191508051906020019080838360005b83811015610281578082015181840152602081019050610266565b50505050905090810190601f1680156102ae5780820380516001836020036101000a031916815260200191505b50868103835288818151815260200191508051906020019080838360005b838110156102e75780820151818401526020810190506102cc565b50505050905090810190601f1680156103145780820380516001836020036101000a031916815260200191505b50868103825287818151815260200191508051906020019080838360005b8381101561034d578082015181840152602081019050610332565b50505050905090810190601f16801561037a5780820380516001836020036101000a031916815260200191505b509d505050505050505050505050505060405180910390f35b6106c760048036036101008110156103aa57600080fd5b8101908080359060200190929190803590602001906401000000008111156103d157600080fd5b8201836020820111156103e357600080fd5b8035906020019184600183028401116401000000008311171561040557600080fd5b91908080601f016020809104026020016040519081016040528093929190818152602001838380828437600081840152601f19601f8201169050808301925050505050505091929192908035906020019064010000000081111561046857600080fd5b82018360208201111561047a57600080fd5b8035906020019184600183028401116401000000008311171561049c57600080fd5b91908080601f016020809104026020016040519081016040528093929190818152602001838380828437600081840152601f19601f82011690508083019250505050505050919291929080359060200190929190803590602001909291908035906020019064010000000081111561051357600080fd5b82018360208201111561052557600080fd5b8035906020019184600183028401116401000000008311171561054757600080fd5b91908080601f016020809104026020016040519081016040528093929190818152602001838380828437600081840152601f19601f820116905080830192505050505050509192919290803590602001906401000000008111156105aa57600080fd5b8201836020820111156105bc57600080fd5b803590602001918460018302840111640100000000831117156105de57600080fd5b91908080601f016020809104026020016040519081016040528093929190818152602001838380828437600081840152601f19601f8201169050808301925050505050505091929192908035906020019064010000000081111561064157600080fd5b82018360208201111561065357600080fd5b8035906020019184600183028401116401000000008311171561067557600080fd5b91908080601f016020809104026020016040519081016040528093929190818152602001838380828437600081840152601f19601f820116905080830192505050505050509192919290505050611858565b005b6106f5600480360360208110156106df57600080fd5b8101908080359060200190929190505050611dbd565b005b6107236004803603602081101561070d57600080fd5b8101908080359060200190929190505050612342565b60405180806020018060200180602001848103845287818151815260200191508051906020019080838360005b8381101561076b578082015181840152602081019050610750565b50505050905090810190601f1680156107985780820380516001836020036101000a031916815260200191505b50848103835286818151815260200191508051906020019080838360005b838110156107d15780820151818401526020810190506107b6565b50505050905090810190601f1680156107fe5780820380516001836020036101000a031916815260200191505b50848103825285818151815260200191508051906020019080838360005b8381101561083757808201518184015260208101905061081c565b50505050905090810190601f1680156108645780820380516001836020036101000a031916815260200191505b50965050505050505060405180910390f35b6108b86004803603602081101561088c57600080fd5b81019080803573ffffffffffffffffffffffffffffffffffffffff169060200190929190505050612541565b6040518082815260200191505060405180910390f35b61091a600480360360408110156108e457600080fd5b81019080803573ffffffffffffffffffffffffffffffffffffffff16906020019092919080359060200190929190505050612559565b6040518080602001828103825283818151815260200191508051906020019080838360005b8381101561095a57808201518184015260208101905061093f565b50505050905090810190601f1680156109875780820380516001836020036101000a031916815260200191505b509250505060405180910390f35b6109c1600480360360208110156109ab57600080fd5b810190808035906020019092919050505061261f565b60405180806020018060200180602001848103845287818151815260200191508051906020019080838360005b83811015610a095780820151818401526020810190506109ee565b50505050905090810190601f168015610a365780820380516001836020036101000a031916815260200191505b50848103835286818151815260200191508051906020019080838360005b83811015610a6f578082015181840152602081019050610a54565b50505050905090810190601f168015610a9c5780820380516001836020036101000a031916815260200191505b50848103825285818151815260200191508051906020019080838360005b83811015610ad5578082015181840152602081019050610aba565b50505050905090810190601f168015610b025780820380516001836020036101000a031916815260200191505b50965050505050505060405180910390f35b610bcd60048036036020811015610b2a57600080fd5b8101908080359060200190640100000000811115610b4757600080fd5b820183602082011115610b5957600080fd5b80359060200191846001830284011164010000000083111715610b7b57600080fd5b91908080601f016020809104026020016040519081016040528093929190818152602001838380828437600081840152601f19601f82011690508083019250505050505050919291929050505061281e565b604051808215151515815260200191505060405180910390f35b6111f06004803603610140811015610bfe57600080fd5b8101908080359060200190640100000000811115610c1b57600080fd5b820183602082011115610c2d57600080fd5b80359060200191846001830284011164010000000083111715610c4f57600080fd5b91908080601f016020809104026020016040519081016040528093929190818152602001838380828437600081840152601f19601f82011690508083019250505050505050919291929080359060200190640100000000811115610cb257600080fd5b820183602082011115610cc457600080fd5b80359060200191846001830284011164010000000083111715610ce657600080fd5b91908080601f016020809104026020016040519081016040528093929190818152602001838380828437600081840152601f19601f82011690508083019250505050505050919291929080359060200190640100000000811115610d4957600080fd5b820183602082011115610d5b57600080fd5b80359060200191846001830284011164010000000083111715610d7d57600080fd5b91908080601f016020809104026020016040519081016040528093929190818152602001838380828437600081840152601f19601f82011690508083019250505050505050919291929080359060200190640100000000811115610de057600080fd5b820183602082011115610df257600080fd5b80359060200191846001830284011164010000000083111715610e1457600080fd5b91908080601f016020809104026020016040519081016040528093929190818152602001838380828437600081840152601f19601f82011690508083019250505050505050919291929080359060200190640100000000811115610e7757600080fd5b820183602082011115610e8957600080fd5b80359060200191846001830284011164010000000083111715610eab57600080fd5b91908080601f016020809104026020016040519081016040528093929190818152602001838380828437600081840152601f19601f82011690508083019250505050505050919291929080359060200190640100000000811115610f0e57600080fd5b820183602082011115610f2057600080fd5b80359060200191846001830284011164010000000083111715610f4257600080fd5b91908080601f016020809104026020016040519081016040528093929190818152602001838380828437600081840152601f19601f82011690508083019250505050505050919291929080359060200190640100000000811115610fa557600080fd5b820183602082011115610fb757600080fd5b80359060200191846001830284011164010000000083111715610fd957600080fd5b91908080601f016020809104026020016040519081016040528093929190818152602001838380828437600081840152601f19601f8201169050808301925050505050505091929192908035906020019064010000000081111561103c57600080fd5b82018360208201111561104e57600080fd5b8035906020019184600183028401116401000000008311171561107057600080fd5b91908080601f016020809104026020016040519081016040528093929190818152602001838380828437600081840152601f19601f820116905080830192505050505050509192919290803590602001906401000000008111156110d357600080fd5b8201836020820111156110e557600080fd5b8035906020019184600183028401116401000000008311171561110757600080fd5b91908080601f016020809104026020016040519081016040528093929190818152602001838380828437600081840152601f19601f8201169050808301925050505050505091929192908035906020019064010000000081111561116a57600080fd5b82018360208201111561117c57600080fd5b8035906020019184600183028401116401000000008311171561119e57600080fd5b91908080601f016020809104026020016040519081016040528093929190818152602001838380828437600081840152601f19601f820116905080830192505050505050509192919290505050612854565b005b61121e6004803603602081101561120857600080fd5b8101908080359060200190929190505050612eaa565b6040518080602001806020018060200180602001858103855289818151815260200191508051906020019080838360005b8381101561126a57808201518184015260208101905061124f565b50505050905090810190601f1680156112975780820380516001836020036101000a031916815260200191505b50858103845288818151815260200191508051906020019080838360005b838110156112d05780820151818401526020810190506112b5565b50505050905090810190601f1680156112fd5780820380516001836020036101000a031916815260200191505b50858103835287818151815260200191508051906020019080838360005b8381101561133657808201518184015260208101905061131b565b50505050905090810190601f1680156113635780820380516001836020036101000a031916815260200191505b50858103825286818151815260200191508051906020019080838360005b8381101561139c578082015181840152602081019050611381565b50505050905090810190601f1680156113c95780820380516001836020036101000a031916815260200191505b509850505050505050505060405180910390f35b611496600480360360208110156113f357600080fd5b810190808035906020019064010000000081111561141057600080fd5b82018360208201111561142257600080fd5b8035906020019184600183028401116401000000008311171561144457600080fd5b91908080601f016020809104026020016040519081016040528093929190818152602001838380828437600081840152601f19601f820116905080830192505050505050509192919290505050613147565b604051808273ffffffffffffffffffffffffffffffffffffffff1673ffffffffffffffffffffffffffffffffffffffff16815260200191505060405180910390f35b60006020528060005260406000206000915054906101000a900473ffffffffffffffffffffffffffffffffffffffff1681565b6008818154811061151857fe5b9060005260206000209060080201600091509050806000015490806001018054600181600116156101000203166002900480601f0160208091040260200160405190810160405280929190818152602001828054600181600116156101000203166002900480156115ca5780601f1061159f576101008083540402835291602001916115ca565b820191906000526020600020905b8154815290600101906020018083116115ad57829003601f168201915b505050505090806002018054600181600116156101000203166002900480601f0160208091040260200160405190810160405280929190818152602001828054600181600116156101000203166002900480156116685780601f1061163d57610100808354040283529160200191611668565b820191906000526020600020905b81548152906001019060200180831161164b57829003601f168201915b505050505090806003015490806004015490806005018054600181600116156101000203166002900480601f0160208091040260200160405190810160405280929190818152602001828054600181600116156101000203166002900480156117125780601f106116e757610100808354040283529160200191611712565b820191906000526020600020905b8154815290600101906020018083116116f557829003601f168201915b505050505090806006018054600181600116156101000203166002900480601f0160208091040260200160405190810160405280929190818152602001828054600181600116156101000203166002900480156117b05780601f10611785576101008083540402835291602001916117b0565b820191906000526020600020905b81548152906001019060200180831161179357829003601f168201915b505050505090806007018054600181600116156101000203166002900480601f01602080910402602001604051908101604052809291908181526020018280546001816001161561010002031660029004801561184e5780601f106118235761010080835404028352916020019161184e565b820191906000526020600020905b81548152906001019060200180831161183157829003601f168201915b5050505050905088565b3373ffffffffffffffffffffffffffffffffffffffff166000808a815260200190815260200160002060009054906101000a900473ffffffffffffffffffffffffffffffffffffffff1673ffffffffffffffffffffffffffffffffffffffff161461192b576040517f08c379a00000000000000000000000000000000000000000000000000000000081526004018080602001828103825260108152602001807f4e6f7420796f7572206163636f756e740000000000000000000000000000000081525060200191505060405180910390fd5b600115156007876040518082805190602001908083835b602083106119655780518252602082019150602081019050602083039250611942565b6001836020036101000a038019825116818451168082178552505050505050905001915050908152602001604051809103902060009054906101000a900460ff1615151415611a1c576040517f08c379a00000000000000000000000000000000000000000000000000000000081526004018080602001828103825260158152602001807f4c6963656e736520616464656420616c7265616479000000000000000000000081525060200191505060405180910390fd5b60086040518061010001604052808a81526020018981526020018881526020018781526020018681526020018581526020018481526020018381525090806001815401808255809150509060018203906000526020600020906008020160009091929091909150600082015181600001556020820151816001019080519060200190611aa99291906134ef565b506040820151816002019080519060200190611ac69291906134ef565b50606082015181600301556080820151816004015560a0820151816005019080519060200190611af79291906134ef565b5060c0820151816006019080519060200190611b149291906134ef565b5060e0820151816007019080519060200190611b319291906134ef565b5050505060016007876040518082805190602001908083835b60208310611b6d5780518252602082019150602081019050602083039250611b4a565b6001836020036101000a038019825116818451168082178552505050505050905001915050908152602001604051809103902060006101000a81548160ff021916908315150217905550336005876040518082805190602001908083835b60208310611bee5780518252602082019150602081019050602083039250611bcb565b6001836020036101000a038019825116818451168082178552505050505050905001915050908152602001604051809103902060006101000a81548173ffffffffffffffffffffffffffffffffffffffff021916908373ffffffffffffffffffffffffffffffffffffffff160217905550600660003373ffffffffffffffffffffffffffffffffffffffff1673ffffffffffffffffffffffffffffffffffffffff168152602001908152602001600020869080600181540180825580915050906001820390600052602060002001600090919290919091509080519060200190611cd992919061356f565b50507f5193be4edf57bce3ca93ba998f927ac1cfe0dd7e561d8a93dd844b4c6680e548338988604051808473ffffffffffffffffffffffffffffffffffffffff1673ffffffffffffffffffffffffffffffffffffffff16815260200183815260200180602001828103825283818151815260200191508051906020019080838360005b83811015611d77578082015181840152602081019050611d5c565b50505050905090810190601f168015611da45780820380516001836020036101000a031916815260200191505b5094505050505060405180910390a15050505050505050565b803373ffffffffffffffffffffffffffffffffffffffff1660008083815260200190815260200160002060009054906101000a900473ffffffffffffffffffffffffffffffffffffffff1673ffffffffffffffffffffffffffffffffffffffff1614611e91576040517f08c379a00000000000000000000000000000000000000000000000000000000081526004018080602001828103825260108152602001807f4e6f7420796f7572206163636f756e740000000000000000000000000000000081525060200191505060405180910390fd5b611e9a82613190565b50505050611ea78261330e565b505050611eb382613456565b505050507ff26ad77430b1781c51897f09c9ed9254e2ca0d20c086cf719af4530d0ef77cc860008084815260200190815260200160002060009054906101000a900473ffffffffffffffffffffffffffffffffffffffff168360028581548110611f1957fe5b906000526020600020906003020160000160028681548110611f3757fe5b906000526020600020906003020160010160028781548110611f5557fe5b906000526020600020906003020160020160038881548110611f7357fe5b906000526020600020906003020160000160038981548110611f9157fe5b906000526020600020906003020160010160038a81548110611faf57fe5b9060005260206000209060030201600201604051808973ffffffffffffffffffffffffffffffffffffffff1673ffffffffffffffffffffffffffffffffffffffff16815260200188815260200180602001806020018060200180602001806020018060200187810387528d8181546001816001161561010002031660029004815260200191508054600181600116156101000203166002900480156120955780601f1061206a57610100808354040283529160200191612095565b820191906000526020600020905b81548152906001019060200180831161207857829003601f168201915b505087810386528c8181546001816001161561010002031660029004815260200191508054600181600116156101000203166002900480156121185780601f106120ed57610100808354040283529160200191612118565b820191906000526020600020905b8154815290600101906020018083116120fb57829003601f168201915b505087810385528b81815460018160011615610100020316600290048152602001915080546001816001161561010002031660029004801561219b5780601f106121705761010080835404028352916020019161219b565b820191906000526020600020905b81548152906001019060200180831161217e57829003601f168201915b505087810384528a81815460018160011615610100020316600290048152602001915080546001816001161561010002031660029004801561221e5780601f106121f35761010080835404028352916020019161221e565b820191906000526020600020905b81548152906001019060200180831161220157829003601f168201915b50508781038352898181546001816001161561010002031660029004815260200191508054600181600116156101000203166002900480156122a15780601f10612276576101008083540402835291602001916122a1565b820191906000526020600020905b81548152906001019060200180831161228457829003601f168201915b50508781038252888181546001816001161561010002031660029004815260200191508054600181600116156101000203166002900480156123245780601f106122f957610100808354040283529160200191612324565b820191906000526020600020905b81548152906001019060200180831161230757829003601f168201915b50509e50505050505050505050505050505060405180910390a15050565b6003818154811061234f57fe5b9060005260206000209060030201600091509050806000018054600181600116156101000203166002900480601f0160208091040260200160405190810160405280929190818152602001828054600181600116156101000203166002900480156123fb5780601f106123d0576101008083540402835291602001916123fb565b820191906000526020600020905b8154815290600101906020018083116123de57829003601f168201915b505050505090806001018054600181600116156101000203166002900480601f0160208091040260200160405190810160405280929190818152602001828054600181600116156101000203166002900480156124995780601f1061246e57610100808354040283529160200191612499565b820191906000526020600020905b81548152906001019060200180831161247c57829003601f168201915b505050505090806002018054600181600116156101000203166002900480601f0160208091040260200160405190810160405280929190818152602001828054600181600116156101000203166002900480156125375780601f1061250c57610100808354040283529160200191612537565b820191906000526020600020905b81548152906001019060200180831161251a57829003601f168201915b5050505050905083565b60016020528060005260406000206000915090505481565b6006602052816000526040600020818154811061257257fe5b90600052602060002001600091509150508054600181600116156101000203166002900480601f0160208091040260200160405190810160405280929190818152602001828054600181600116156101000203166002900480156126175780601f106125ec57610100808354040283529160200191612617565b820191906000526020600020905b8154815290600101906020018083116125fa57829003601f168201915b505050505081565b6002818154811061262c57fe5b9060005260206000209060030201600091509050806000018054600181600116156101000203166002900480601f0160208091040260200160405190810160405280929190818152602001828054600181600116156101000203166002900480156126d85780601f106126ad576101008083540402835291602001916126d8565b820191906000526020600020905b8154815290600101906020018083116126bb57829003601f168201915b505050505090806001018054600181600116156101000203166002900480601f0160208091040260200160405190810160405280929190818152602001828054600181600116156101000203166002900480156127765780601f1061274b57610100808354040283529160200191612776565b820191906000526020600020905b81548152906001019060200180831161275957829003601f168201915b505050505090806002018054600181600116156101000203166002900480601f0160208091040260200160405190810160405280929190818152602001828054600181600116156101000203166002900480156128145780601f106127e957610100808354040283529160200191612814565b820191906000526020600020905b8154815290600101906020018083116127f757829003601f168201915b5050505050905083565b6007818051602081018201805184825260208301602085012081835280955050505050506000915054906101000a900460ff1681565b6000600160003373ffffffffffffffffffffffffffffffffffffffff1673ffffffffffffffffffffffffffffffffffffffff16815260200190815260200160002054146128ec576040517f08c379a00000000000000000000000000000000000000000000000000000000081526004018080602001828103825260228152602001806136156022913960400191505060405180910390fd5b600260405180606001604052808c81526020018b81526020018a8152509080600181540180825580915050906001820390600052602060002090600302016000909192909190915060008201518160000190805190602001906129509291906134ef565b50602082015181600101908051906020019061296d9291906134ef565b50604082015181600201908051906020019061298a9291906134ef565b5050505060036040518060600160405280898152602001888152602001878152509080600181540180825580915050906001820390600052602060002090600302016000909192909190915060008201518160000190805190602001906129f29291906134ef565b506020820151816001019080519060200190612a0f9291906134ef565b506040820151816002019080519060200190612a2c9291906134ef565b505050506004604051806080016040528086815260200185815260200184815260200183815250908060018154018082558091505090600182039060005260206000209060040201600090919290919091506000820151816000019080519060200190612a9a9291906134ef565b506020820151816001019080519060200190612ab79291906134ef565b506040820151816002019080519060200190612ad49291906134ef565b506060820151816003019080519060200190612af19291906134ef565b5050505033600080600160028054905003815260200190815260200160002060006101000a81548173ffffffffffffffffffffffffffffffffffffffff021916908373ffffffffffffffffffffffffffffffffffffffff160217905550600160003373ffffffffffffffffffffffffffffffffffffffff1673ffffffffffffffffffffffffffffffffffffffff168152602001908152602001600020600081548092919060010191905055507f5e12c0cb56ade5f1eee122a4f6a88aa40bed7c7c8d485a155c7390cf129de517336001600280549050038c8c8c8c8c8c604051808973ffffffffffffffffffffffffffffffffffffffff1673ffffffffffffffffffffffffffffffffffffffff16815260200188815260200180602001806020018060200180602001806020018060200187810387528d818151815260200191508051906020019080838360005b83811015612c5a578082015181840152602081019050612c3f565b50505050905090810190601f168015612c875780820380516001836020036101000a031916815260200191505b5087810386528c818151815260200191508051906020019080838360005b83811015612cc0578082015181840152602081019050612ca5565b50505050905090810190601f168015612ced5780820380516001836020036101000a031916815260200191505b5087810385528b818151815260200191508051906020019080838360005b83811015612d26578082015181840152602081019050612d0b565b50505050905090810190601f168015612d535780820380516001836020036101000a031916815260200191505b5087810384528a818151815260200191508051906020019080838360005b83811015612d8c578082015181840152602081019050612d71565b50505050905090810190601f168015612db95780820380516001836020036101000a031916815260200191505b50878103835289818151815260200191508051906020019080838360005b83811015612df2578082015181840152602081019050612dd7565b50505050905090810190601f168015612e1f5780820380516001836020036101000a031916815260200191505b50878103825288818151815260200191508051906020019080838360005b83811015612e58578082015181840152602081019050612e3d565b50505050905090810190601f168015612e855780820380516001836020036101000a031916815260200191505b509e50505050505050505050505050505060405180910390a150505050505050505050565b60048181548110612eb757fe5b9060005260206000209060040201600091509050806000018054600181600116156101000203166002900480601f016020809104026020016040519081016040528092919081815260200182805460018160011615610100020316600290048015612f635780601f10612f3857610100808354040283529160200191612f63565b820191906000526020600020905b815481529060010190602001808311612f4657829003601f168201915b505050505090806001018054600181600116156101000203166002900480601f0160208091040260200160405190810160405280929190818152602001828054600181600116156101000203166002900480156130015780601f10612fd657610100808354040283529160200191613001565b820191906000526020600020905b815481529060010190602001808311612fe457829003601f168201915b505050505090806002018054600181600116156101000203166002900480601f01602080910402602001604051908101604052809291908181526020018280546001816001161561010002031660029004801561309f5780601f106130745761010080835404028352916020019161309f565b820191906000526020600020905b81548152906001019060200180831161308257829003601f168201915b505050505090806003018054600181600116156101000203166002900480601f01602080910402602001604051908101604052809291908181526020018280546001816001161561010002031660029004801561313d5780601f106131125761010080835404028352916020019161313d565b820191906000526020600020905b81548152906001019060200180831161312057829003601f168201915b5050505050905084565b6005818051602081018201805184825260208301602085012081835280955050505050506000915054906101000a900473ffffffffffffffffffffffffffffffffffffffff1681565b6000806000803373ffffffffffffffffffffffffffffffffffffffff1660008087815260200190815260200160002060009054906101000a900473ffffffffffffffffffffffffffffffffffffffff1673ffffffffffffffffffffffffffffffffffffffff1614613269576040517f08c379a00000000000000000000000000000000000000000000000000000000081526004018080602001828103825260108152602001807f4e6f7420796f7572206163636f756e740000000000000000000000000000000081525060200191505060405180910390fd5b60008086815260200190815260200160002060009054906101000a900473ffffffffffffffffffffffffffffffffffffffff16600286815481106132a957fe5b9060005260206000209060030201600001600287815481106132c757fe5b9060005260206000209060030201600101600288815481106132e557fe5b906000526020600020906003020160020182925081915080905093509350935093509193509193565b60008060003373ffffffffffffffffffffffffffffffffffffffff1660008086815260200190815260200160002060009054906101000a900473ffffffffffffffffffffffffffffffffffffffff1673ffffffffffffffffffffffffffffffffffffffff16146133e6576040517f08c379a00000000000000000000000000000000000000000000000000000000081526004018080602001828103825260108152602001807f4e6f7420796f7572206163636f756e740000000000000000000000000000000081525060200191505060405180910390fd5b600384815481106133f357fe5b90600052602060002090600302016000016003858154811061341157fe5b90600052602060002090600302016001016003868154811061342f57fe5b90600052602060002090600302016002018292508191508090509250925092509193909250565b6000806000806004858154811061346957fe5b90600052602060002090600402016000016004868154811061348757fe5b9060005260206000209060040201600101600487815481106134a557fe5b9060005260206000209060040201600201600488815481106134c357fe5b906000526020600020906004020160030183935082925081915080905093509350935093509193509193565b828054600181600116156101000203166002900490600052602060002090601f016020900481019282601f1061353057805160ff191683800117855561355e565b8280016001018555821561355e579182015b8281111561355d578251825591602001919060010190613542565b5b50905061356b91906135ef565b5090565b828054600181600116156101000203166002900490600052602060002090601f016020900481019282601f106135b057805160ff19168380011785556135de565b828001600101855582156135de579182015b828111156135dd5782518255916020019190600101906135c2565b5b5090506135eb91906135ef565b5090565b61361191905b8082111561360d5760008160009055506001016135f5565b5090565b9056fe55736572732063616e206f6e6c7920637265617465206f6e652070726f66696c6521a265627a7a72315820a049d8c801e9f923ee05e2b64f82e48f1219724e896a1b2261e8c67523f677e864736f6c63430005100032",
  "source": "// SPDX-License-Identifier: MIT\npragma solidity ^0.5.11;\nimport \"./DriverFactory.sol\";\n\ncontract LicenseFactory is DriverFactory {\n\n    event LicenseAdded(address walletAddress, uint driverId, string licenseNumber);\n    // event LicenseListGotten(address walletAddress, uint driverId, uint licenseCount);\n    event LicenseGotten(address walletAddress, uint driverId, string licenseNumber);\n\n\n    mapping (string => address) public licenseToOwner; //maps license number with addresses\n    // mapping (string => uint) public licenseNumToId; //maps license id in licenses array to licensenumber confirms license existance\n    mapping (address => string[]) public ownerLicensesList; // possible ownership of multiple licenses\n\n    mapping (string => bool) public licenseAdded;\n\n    struct License {\n        uint driverId;\n        string licenseType;\n        string licenseNumber;\n        uint issued;\n        uint exp;\n        string cl;\n        string end;\n        string restr;\n    }\n\n    License[] public licenses;\n\n    modifier isLicensed(uint _driverId, string memory _licNum) {\n        require(driverToOwner[_driverId] == msg.sender, \"Not your account\");\n        require(licenseAdded[_licNum] == true, \"Not licensed\");\n        require(licenseToOwner[_licNum] == msg.sender, \"Not your license\");\n        _;\n    }\n\n    function setLicense(\n        uint _driverId,\n        string memory _licType,\n        string memory _licNum,\n        uint _licIssued,\n        uint _licExp,\n        string memory _licClass,\n        string memory _licEnd,\n        string memory _licRestr\n    ) public {\n        require(driverToOwner[_driverId] == msg.sender, \"Not your account\");\n        require(licenseAdded[_licNum] != true, \"License added already\");\n        licenses.push(License(\n            _driverId, _licType, _licNum, _licIssued, _licExp, _licClass, _licEnd, _licRestr)\n        );\n        licenseAdded[_licNum] = true;\n        licenseToOwner[_licNum] = msg.sender;\n        ownerLicensesList[msg.sender].push(_licNum);\n        emit LicenseAdded(msg.sender, _driverId, _licNum);\n    }\n\n    function _getLicense(uint _driverId, string memory _licNum) private returns (\n        string memory,\n        string memory,\n        uint,\n        uint,\n        string memory,\n        string memory,\n        string memory\n    ){\n        require(driverToOwner[_driverId] == msg.sender, \"Not your account\");\n        require(licenseToOwner[_licNum] == msg.sender, \"Not your license\");\n        for (uint i = 0; i < licenses.length; i++) {\n            if (licenses[i].driverId == _driverId) {\n                return (\n                    licenses[i].licenseType,\n                    licenses[i].licenseNumber,\n                    licenses[i].issued,\n                    licenses[i].exp,\n                    licenses[i].cl,\n                    licenses[i].end,\n                    licenses[i].restr\n                );\n            } else {\n                continue;\n            }\n        }\n        emit LicenseGotten(msg.sender, _driverId, _licNum);\n    }\n}\n",
  "sourcePath": "/Users/Marcus/Documents/Projects/dmvAppContracts/contracts/LicenseFactory.sol",
  "compiler": {
    "name": "solc",
    "version": "0.5.16+commit.9c3226ce.Emscripten.clang"
  },
  "schemaVersion": "3.4.4",
  "updatedAt": "2022-01-09T19:31:57.046Z",
  "devdoc": {
    "methods": {}
  },
  "userdoc": {
    "methods": {}
  }
}