{
  "contractName": "RegistrationFactory",
  "abi": [
    {
      "anonymous": false,
      "inputs": [
        {
          "indexed": false,
          "internalType": "address",
          "name": "walletAddress",
          "type": "address"
        },
        {
          "indexed": false,
          "internalType": "uint256",
          "name": "userId",
          "type": "uint256"
        },
        {
          "indexed": false,
          "internalType": "string",
          "name": "firstName",
          "type": "string"
        },
        {
          "indexed": false,
          "internalType": "string",
          "name": "middleInitial",
          "type": "string"
        },
        {
          "indexed": false,
          "internalType": "string",
          "name": "lastName",
          "type": "string"
        },
        {
          "indexed": false,
          "internalType": "string",
          "name": "sex",
          "type": "string"
        },
        {
          "indexed": false,
          "internalType": "string",
          "name": "height",
          "type": "string"
        },
        {
          "indexed": false,
          "internalType": "string",
          "name": "eyes",
          "type": "string"
        }
      ],
      "name": "DriverGotten",
      "type": "event"
    },
    {
      "anonymous": false,
      "inputs": [
        {
          "indexed": false,
          "internalType": "address",
          "name": "walletAddress",
          "type": "address"
        },
        {
          "indexed": false,
          "internalType": "uint256",
          "name": "driverId",
          "type": "uint256"
        },
        {
          "indexed": false,
          "internalType": "string",
          "name": "firstName",
          "type": "string"
        },
        {
          "indexed": false,
          "internalType": "string",
          "name": "middleInitial",
          "type": "string"
        },
        {
          "indexed": false,
          "internalType": "string",
          "name": "lastName",
          "type": "string"
        },
        {
          "indexed": false,
          "internalType": "string",
          "name": "sex",
          "type": "string"
        },
        {
          "indexed": false,
          "internalType": "string",
          "name": "height",
          "type": "string"
        },
        {
          "indexed": false,
          "internalType": "string",
          "name": "eyes",
          "type": "string"
        }
      ],
      "name": "DriverSet",
      "type": "event"
    },
    {
      "anonymous": false,
      "inputs": [
        {
          "indexed": false,
          "internalType": "address",
          "name": "walletAddress",
          "type": "address"
        },
        {
          "indexed": false,
          "internalType": "uint256",
          "name": "driverId",
          "type": "uint256"
        },
        {
          "indexed": false,
          "internalType": "string",
          "name": "licenseNumber",
          "type": "string"
        }
      ],
      "name": "LicenseAdded",
      "type": "event"
    },
    {
      "anonymous": false,
      "inputs": [
        {
          "indexed": false,
          "internalType": "address",
          "name": "walletAddress",
          "type": "address"
        },
        {
          "indexed": false,
          "internalType": "uint256",
          "name": "driverId",
          "type": "uint256"
        },
        {
          "indexed": false,
          "internalType": "string",
          "name": "licenseNumber",
          "type": "string"
        }
      ],
      "name": "LicenseGotten",
      "type": "event"
    },
    {
      "anonymous": false,
      "inputs": [
        {
          "indexed": false,
          "internalType": "uint256",
          "name": "driverId",
          "type": "uint256"
        },
        {
          "indexed": false,
          "internalType": "string",
          "name": "licenseNumber",
          "type": "string"
        },
        {
          "indexed": false,
          "internalType": "string",
          "name": "plateNumber",
          "type": "string"
        }
      ],
      "name": "RegistrationAdded",
      "type": "event"
    },
    {
      "anonymous": false,
      "inputs": [
        {
          "indexed": false,
          "internalType": "string",
          "name": "plateNumber",
          "type": "string"
        },
        {
          "indexed": false,
          "internalType": "uint256",
          "name": "carYear",
          "type": "uint256"
        },
        {
          "indexed": false,
          "internalType": "string",
          "name": "carMake",
          "type": "string"
        },
        {
          "indexed": false,
          "internalType": "string",
          "name": "carModel",
          "type": "string"
        },
        {
          "indexed": false,
          "internalType": "string",
          "name": "carColor",
          "type": "string"
        }
      ],
      "name": "RegistrationGotten",
      "type": "event"
    },
    {
      "constant": true,
      "inputs": [
        {
          "internalType": "uint256",
          "name": "",
          "type": "uint256"
        }
      ],
      "name": "carFeatures",
      "outputs": [
        {
          "internalType": "uint256",
          "name": "driverId",
          "type": "uint256"
        },
        {
          "internalType": "string",
          "name": "make",
          "type": "string"
        },
        {
          "internalType": "uint256",
          "name": "year",
          "type": "uint256"
        },
        {
          "internalType": "string",
          "name": "carType",
          "type": "string"
        },
        {
          "internalType": "string",
          "name": "model",
          "type": "string"
        },
        {
          "internalType": "string",
          "name": "color",
          "type": "string"
        }
      ],
      "payable": false,
      "stateMutability": "view",
      "type": "function"
    },
    {
      "constant": true,
      "inputs": [
        {
          "internalType": "uint256",
          "name": "",
          "type": "uint256"
        }
      ],
      "name": "driverAddresses",
      "outputs": [
        {
          "internalType": "string",
          "name": "addressLineOne",
          "type": "string"
        },
        {
          "internalType": "string",
          "name": "city",
          "type": "string"
        },
        {
          "internalType": "string",
          "name": "state",
          "type": "string"
        },
        {
          "internalType": "string",
          "name": "zip",
          "type": "string"
        }
      ],
      "payable": false,
      "stateMutability": "view",
      "type": "function"
    },
    {
      "constant": true,
      "inputs": [
        {
          "internalType": "uint256",
          "name": "",
          "type": "uint256"
        }
      ],
      "name": "driverDetails",
      "outputs": [
        {
          "internalType": "uint256",
          "name": "dob",
          "type": "uint256"
        },
        {
          "internalType": "string",
          "name": "sex",
          "type": "string"
        },
        {
          "internalType": "string",
          "name": "height",
          "type": "string"
        },
        {
          "internalType": "string",
          "name": "eyes",
          "type": "string"
        }
      ],
      "payable": false,
      "stateMutability": "view",
      "type": "function"
    },
    {
      "constant": true,
      "inputs": [
        {
          "internalType": "uint256",
          "name": "",
          "type": "uint256"
        }
      ],
      "name": "driverNames",
      "outputs": [
        {
          "internalType": "string",
          "name": "firstName",
          "type": "string"
        },
        {
          "internalType": "string",
          "name": "middleInitial",
          "type": "string"
        },
        {
          "internalType": "string",
          "name": "lastName",
          "type": "string"
        }
      ],
      "payable": false,
      "stateMutability": "view",
      "type": "function"
    },
    {
      "constant": true,
      "inputs": [
        {
          "internalType": "uint256",
          "name": "",
          "type": "uint256"
        }
      ],
      "name": "driverToOwner",
      "outputs": [
        {
          "internalType": "address",
          "name": "",
          "type": "address"
        }
      ],
      "payable": false,
      "stateMutability": "view",
      "type": "function"
    },
    {
      "constant": false,
      "inputs": [
        {
          "internalType": "uint256",
          "name": "_driverId",
          "type": "uint256"
        }
      ],
      "name": "getAccountInfo",
      "outputs": [],
      "payable": false,
      "stateMutability": "nonpayable",
      "type": "function"
    },
    {
      "constant": false,
      "inputs": [
        {
          "internalType": "uint256",
          "name": "_driverId",
          "type": "uint256"
        },
        {
          "internalType": "string",
          "name": "_licNum",
          "type": "string"
        }
      ],
      "name": "getLicense",
      "outputs": [
        {
          "internalType": "string",
          "name": "",
          "type": "string"
        },
        {
          "internalType": "uint256",
          "name": "",
          "type": "uint256"
        },
        {
          "internalType": "uint256",
          "name": "",
          "type": "uint256"
        },
        {
          "internalType": "string",
          "name": "",
          "type": "string"
        },
        {
          "internalType": "string",
          "name": "",
          "type": "string"
        },
        {
          "internalType": "string",
          "name": "",
          "type": "string"
        }
      ],
      "payable": false,
      "stateMutability": "nonpayable",
      "type": "function"
    },
    {
      "constant": true,
      "inputs": [
        {
          "internalType": "string",
          "name": "",
          "type": "string"
        }
      ],
      "name": "licenseAdded",
      "outputs": [
        {
          "internalType": "bool",
          "name": "",
          "type": "bool"
        }
      ],
      "payable": false,
      "stateMutability": "view",
      "type": "function"
    },
    {
      "constant": true,
      "inputs": [
        {
          "internalType": "string",
          "name": "",
          "type": "string"
        }
      ],
      "name": "licenseToOwner",
      "outputs": [
        {
          "internalType": "address",
          "name": "",
          "type": "address"
        }
      ],
      "payable": false,
      "stateMutability": "view",
      "type": "function"
    },
    {
      "constant": true,
      "inputs": [
        {
          "internalType": "uint256",
          "name": "",
          "type": "uint256"
        }
      ],
      "name": "licenses",
      "outputs": [
        {
          "internalType": "uint256",
          "name": "driverId",
          "type": "uint256"
        },
        {
          "internalType": "string",
          "name": "licenseNumber",
          "type": "string"
        },
        {
          "internalType": "uint256",
          "name": "issued",
          "type": "uint256"
        },
        {
          "internalType": "uint256",
          "name": "exp",
          "type": "uint256"
        },
        {
          "internalType": "string",
          "name": "cl",
          "type": "string"
        },
        {
          "internalType": "string",
          "name": "end",
          "type": "string"
        },
        {
          "internalType": "string",
          "name": "restr",
          "type": "string"
        }
      ],
      "payable": false,
      "stateMutability": "view",
      "type": "function"
    },
    {
      "constant": true,
      "inputs": [
        {
          "internalType": "uint256",
          "name": "",
          "type": "uint256"
        },
        {
          "internalType": "string",
          "name": "",
          "type": "string"
        },
        {
          "internalType": "uint256",
          "name": "",
          "type": "uint256"
        }
      ],
      "name": "ownerLicReg",
      "outputs": [
        {
          "internalType": "string",
          "name": "",
          "type": "string"
        }
      ],
      "payable": false,
      "stateMutability": "view",
      "type": "function"
    },
    {
      "constant": true,
      "inputs": [
        {
          "internalType": "address",
          "name": "",
          "type": "address"
        },
        {
          "internalType": "uint256",
          "name": "",
          "type": "uint256"
        }
      ],
      "name": "ownerLicensesList",
      "outputs": [
        {
          "internalType": "string",
          "name": "",
          "type": "string"
        }
      ],
      "payable": false,
      "stateMutability": "view",
      "type": "function"
    },
    {
      "constant": true,
      "inputs": [
        {
          "internalType": "uint256",
          "name": "",
          "type": "uint256"
        }
      ],
      "name": "registrationDetails",
      "outputs": [
        {
          "internalType": "uint256",
          "name": "driverId",
          "type": "uint256"
        },
        {
          "internalType": "string",
          "name": "plateNumber",
          "type": "string"
        },
        {
          "internalType": "string",
          "name": "vin",
          "type": "string"
        },
        {
          "internalType": "uint256",
          "name": "goodThru",
          "type": "uint256"
        }
      ],
      "payable": false,
      "stateMutability": "view",
      "type": "function"
    },
    {
      "constant": false,
      "inputs": [
        {
          "internalType": "string",
          "name": "_first",
          "type": "string"
        },
        {
          "internalType": "string",
          "name": "_midInit",
          "type": "string"
        },
        {
          "internalType": "string",
          "name": "_last",
          "type": "string"
        },
        {
          "internalType": "uint256",
          "name": "_dob",
          "type": "uint256"
        },
        {
          "internalType": "string",
          "name": "_sx",
          "type": "string"
        },
        {
          "internalType": "string",
          "name": "_ht",
          "type": "string"
        },
        {
          "internalType": "string",
          "name": "_eyeColor",
          "type": "string"
        },
        {
          "internalType": "string",
          "name": "_addressLineOne",
          "type": "string"
        },
        {
          "internalType": "string",
          "name": "_city",
          "type": "string"
        },
        {
          "internalType": "string",
          "name": "_state",
          "type": "string"
        },
        {
          "internalType": "string",
          "name": "_zip",
          "type": "string"
        }
      ],
      "name": "setDriver",
      "outputs": [],
      "payable": false,
      "stateMutability": "nonpayable",
      "type": "function"
    },
    {
      "constant": false,
      "inputs": [
        {
          "internalType": "uint256",
          "name": "_driverId",
          "type": "uint256"
        },
        {
          "internalType": "string",
          "name": "_licNum",
          "type": "string"
        },
        {
          "internalType": "uint256",
          "name": "_licIssued",
          "type": "uint256"
        },
        {
          "internalType": "uint256",
          "name": "_licExp",
          "type": "uint256"
        },
        {
          "internalType": "string",
          "name": "_licClass",
          "type": "string"
        },
        {
          "internalType": "string",
          "name": "_licEnd",
          "type": "string"
        },
        {
          "internalType": "string",
          "name": "_licRestr",
          "type": "string"
        }
      ],
      "name": "setLicense",
      "outputs": [],
      "payable": false,
      "stateMutability": "nonpayable",
      "type": "function"
    },
    {
      "constant": true,
      "inputs": [
        {
          "internalType": "address",
          "name": "",
          "type": "address"
        }
      ],
      "name": "userAccountsCount",
      "outputs": [
        {
          "internalType": "uint256",
          "name": "",
          "type": "uint256"
        }
      ],
      "payable": false,
      "stateMutability": "view",
      "type": "function"
    },
    {
      "constant": false,
      "inputs": [
        {
          "internalType": "uint256",
          "name": "_driverId",
          "type": "uint256"
        },
        {
          "internalType": "string",
          "name": "_licNumber",
          "type": "string"
        },
        {
          "internalType": "string",
          "name": "_plateNumber",
          "type": "string"
        },
        {
          "internalType": "string",
          "name": "_vin",
          "type": "string"
        },
        {
          "internalType": "uint256",
          "name": "_goodThru",
          "type": "uint256"
        },
        {
          "internalType": "string",
          "name": "_make",
          "type": "string"
        },
        {
          "internalType": "uint256",
          "name": "_year",
          "type": "uint256"
        },
        {
          "internalType": "string",
          "name": "_carType",
          "type": "string"
        },
        {
          "internalType": "string",
          "name": "_model",
          "type": "string"
        },
        {
          "internalType": "string",
          "name": "_color",
          "type": "string"
        }
      ],
      "name": "setRegistration",
      "outputs": [],
      "payable": false,
      "stateMutability": "nonpayable",
      "type": "function"
    },
    {
      "constant": false,
      "inputs": [
        {
          "internalType": "uint256",
          "name": "_driverId",
          "type": "uint256"
        },
        {
          "internalType": "string",
          "name": "_plateNumber",
          "type": "string"
        }
      ],
      "name": "getRegistration",
      "outputs": [
        {
          "internalType": "string",
          "name": "",
          "type": "string"
        },
        {
          "internalType": "string",
          "name": "",
          "type": "string"
        },
        {
          "internalType": "uint256",
          "name": "",
          "type": "uint256"
        },
        {
          "internalType": "string",
          "name": "",
          "type": "string"
        },
        {
          "internalType": "uint256",
          "name": "",
          "type": "uint256"
        },
        {
          "internalType": "string",
          "name": "",
          "type": "string"
        },
        {
          "internalType": "string",
          "name": "",
          "type": "string"
        },
        {
          "internalType": "string",
          "name": "",
          "type": "string"
        }
      ],
      "payable": false,
      "stateMutability": "nonpayable",
      "type": "function"
    }
  ],
  "bytecode": "0x608060405234801561001057600080fd5b50615ebf80620000216000396000f3fe608060405234801561001057600080fd5b50600436106101165760003560e01c80639ca549f2116100a2578063c85feec411610071578063c85feec4146118ed578063ca6acecc14611ad8578063ce2f42b814611f3c578063d0dd1cad14612084578063e6c18e591461220a57610116565b80639ca549f2146113db578063a96137be146114a2578063aabad71614611621578063bdb0bf37146116f457610116565b806333790845116100e957806333790845146108b05780633b561afc14610ab05780636f73672614610ade578063812f2b55146110f357806394e3a2f51461114b57610116565b80631152155e1461011b5780632b325557146103b95780632b4198db146104275780632c454fc61461078f575b600080fd5b6103b7600480360360e081101561013157600080fd5b81019080803590602001909291908035906020019064010000000081111561015857600080fd5b82018360208201111561016a57600080fd5b8035906020019184600183028401116401000000008311171561018c57600080fd5b91908080601f016020809104026020016040519081016040528093929190818152602001838380828437600081840152601f19601f82011690508083019250505050505050919291929080359060200190929190803590602001909291908035906020019064010000000081111561020357600080fd5b82018360208201111561021557600080fd5b8035906020019184600183028401116401000000008311171561023757600080fd5b91908080601f016020809104026020016040519081016040528093929190818152602001838380828437600081840152601f19601f8201169050808301925050505050505091929192908035906020019064010000000081111561029a57600080fd5b8201836020820111156102ac57600080fd5b803590602001918460018302840111640100000000831117156102ce57600080fd5b91908080601f016020809104026020016040519081016040528093929190818152602001838380828437600081840152601f19601f8201169050808301925050505050505091929192908035906020019064010000000081111561033157600080fd5b82018360208201111561034357600080fd5b8035906020019184600183028401116401000000008311171561036557600080fd5b91908080601f016020809104026020016040519081016040528093929190818152602001838380828437600081840152601f19601f820116905080830192505050505050509192919290505050612305565b005b6103e5600480360360208110156103cf57600080fd5b8101908080359060200190929190505050612845565b604051808273ffffffffffffffffffffffffffffffffffffffff1673ffffffffffffffffffffffffffffffffffffffff16815260200191505060405180910390f35b6104ea6004803603604081101561043d57600080fd5b81019080803590602001909291908035906020019064010000000081111561046457600080fd5b82018360208201111561047657600080fd5b8035906020019184600183028401116401000000008311171561049857600080fd5b91908080601f016020809104026020016040519081016040528093929190818152602001838380828437600081840152601f19601f820116905080830192505050505050509192919290505050612878565b6040518080602001806020018981526020018060200188815260200180602001806020018060200187810387528f818151815260200191508051906020019080838360005b8381101561054a57808201518184015260208101905061052f565b50505050905090810190601f1680156105775780820380516001836020036101000a031916815260200191505b5087810386528e818151815260200191508051906020019080838360005b838110156105b0578082015181840152602081019050610595565b50505050905090810190601f1680156105dd5780820380516001836020036101000a031916815260200191505b5087810385528c818151815260200191508051906020019080838360005b838110156106165780820151818401526020810190506105fb565b50505050905090810190601f1680156106435780820380516001836020036101000a031916815260200191505b5087810384528a818151815260200191508051906020019080838360005b8381101561067c578082015181840152602081019050610661565b50505050905090810190601f1680156106a95780820380516001836020036101000a031916815260200191505b50878103835289818151815260200191508051906020019080838360005b838110156106e25780820151818401526020810190506106c7565b50505050905090810190601f16801561070f5780820380516001836020036101000a031916815260200191505b50878103825288818151815260200191508051906020019080838360005b8381101561074857808201518184015260208101905061072d565b50505050905090810190601f1680156107755780820380516001836020036101000a031916815260200191505b509e50505050505050505050505050505060405180910390f35b6107bb600480360360208110156107a557600080fd5b810190808035906020019092919050505061326b565b604051808581526020018060200180602001848152602001838103835286818151815260200191508051906020019080838360005b8381101561080b5780820151818401526020810190506107f0565b50505050905090810190601f1680156108385780820380516001836020036101000a031916815260200191505b50838103825285818151815260200191508051906020019080838360005b83811015610871578082015181840152602081019050610856565b50505050905090810190601f16801561089e5780820380516001836020036101000a031916815260200191505b50965050505050505060405180910390f35b6108dc600480360360208110156108c657600080fd5b81019080803590602001909291905050506133d8565b604051808881526020018060200187815260200186815260200180602001806020018060200185810385528b818151815260200191508051906020019080838360005b8381101561093a57808201518184015260208101905061091f565b50505050905090810190601f1680156109675780820380516001836020036101000a031916815260200191505b50858103845288818151815260200191508051906020019080838360005b838110156109a0578082015181840152602081019050610985565b50505050905090810190601f1680156109cd5780820380516001836020036101000a031916815260200191505b50858103835287818151815260200191508051906020019080838360005b83811015610a065780820151818401526020810190506109eb565b50505050905090810190601f168015610a335780820380516001836020036101000a031916815260200191505b50858103825286818151815260200191508051906020019080838360005b83811015610a6c578082015181840152602081019050610a51565b50505050905090810190601f168015610a995780820380516001836020036101000a031916815260200191505b509b50505050505050505050505060405180910390f35b610adc60048036036020811015610ac657600080fd5b8101908080359060200190929190505050613687565b005b6110f16004803603610160811015610af557600080fd5b8101908080359060200190640100000000811115610b1257600080fd5b820183602082011115610b2457600080fd5b80359060200191846001830284011164010000000083111715610b4657600080fd5b91908080601f016020809104026020016040519081016040528093929190818152602001838380828437600081840152601f19601f82011690508083019250505050505050919291929080359060200190640100000000811115610ba957600080fd5b820183602082011115610bbb57600080fd5b80359060200191846001830284011164010000000083111715610bdd57600080fd5b91908080601f016020809104026020016040519081016040528093929190818152602001838380828437600081840152601f19601f82011690508083019250505050505050919291929080359060200190640100000000811115610c4057600080fd5b820183602082011115610c5257600080fd5b80359060200191846001830284011164010000000083111715610c7457600080fd5b91908080601f016020809104026020016040519081016040528093929190818152602001838380828437600081840152601f19601f8201169050808301925050505050505091929192908035906020019092919080359060200190640100000000811115610ce157600080fd5b820183602082011115610cf357600080fd5b80359060200191846001830284011164010000000083111715610d1557600080fd5b91908080601f016020809104026020016040519081016040528093929190818152602001838380828437600081840152601f19601f82011690508083019250505050505050919291929080359060200190640100000000811115610d7857600080fd5b820183602082011115610d8a57600080fd5b80359060200191846001830284011164010000000083111715610dac57600080fd5b91908080601f016020809104026020016040519081016040528093929190818152602001838380828437600081840152601f19601f82011690508083019250505050505050919291929080359060200190640100000000811115610e0f57600080fd5b820183602082011115610e2157600080fd5b80359060200191846001830284011164010000000083111715610e4357600080fd5b91908080601f016020809104026020016040519081016040528093929190818152602001838380828437600081840152601f19601f82011690508083019250505050505050919291929080359060200190640100000000811115610ea657600080fd5b820183602082011115610eb857600080fd5b80359060200191846001830284011164010000000083111715610eda57600080fd5b91908080601f016020809104026020016040519081016040528093929190818152602001838380828437600081840152601f19601f82011690508083019250505050505050919291929080359060200190640100000000811115610f3d57600080fd5b820183602082011115610f4f57600080fd5b80359060200191846001830284011164010000000083111715610f7157600080fd5b91908080601f016020809104026020016040519081016040528093929190818152602001838380828437600081840152601f19601f82011690508083019250505050505050919291929080359060200190640100000000811115610fd457600080fd5b820183602082011115610fe657600080fd5b8035906020019184600183028401116401000000008311171561100857600080fd5b91908080601f016020809104026020016040519081016040528093929190818152602001838380828437600081840152601f19601f8201169050808301925050505050505091929192908035906020019064010000000081111561106b57600080fd5b82018360208201111561107d57600080fd5b8035906020019184600183028401116401000000008311171561109f57600080fd5b91908080601f016020809104026020016040519081016040528093929190818152602001838380828437600081840152601f19601f820116905080830192505050505050509192919290505050613c0d565b005b6111356004803603602081101561110957600080fd5b81019080803573ffffffffffffffffffffffffffffffffffffffff169060200190929190505050614274565b6040518082815260200191505060405180910390f35b61120e6004803603604081101561116157600080fd5b81019080803590602001909291908035906020019064010000000081111561118857600080fd5b82018360208201111561119a57600080fd5b803590602001918460018302840111640100000000831117156111bc57600080fd5b91908080601f016020809104026020016040519081016040528093929190818152602001838380828437600081840152601f19601f82011690508083019250505050505050919291929050505061428c565b604051808060200187815260200186815260200180602001806020018060200185810385528b818151815260200191508051906020019080838360005b8381101561126657808201518184015260208101905061124b565b50505050905090810190601f1680156112935780820380516001836020036101000a031916815260200191505b50858103845288818151815260200191508051906020019080838360005b838110156112cc5780820151818401526020810190506112b1565b50505050905090810190601f1680156112f95780820380516001836020036101000a031916815260200191505b50858103835287818151815260200191508051906020019080838360005b83811015611332578082015181840152602081019050611317565b50505050905090810190601f16801561135f5780820380516001836020036101000a031916815260200191505b50858103825286818151815260200191508051906020019080838360005b8381101561139857808201518184015260208101905061137d565b50505050905090810190601f1680156113c55780820380516001836020036101000a031916815260200191505b509a505050505050505050505060405180910390f35b611427600480360360408110156113f157600080fd5b81019080803573ffffffffffffffffffffffffffffffffffffffff169060200190929190803590602001909291905050506148f5565b6040518080602001828103825283818151815260200191508051906020019080838360005b8381101561146757808201518184015260208101905061144c565b50505050905090810190601f1680156114945780820380516001836020036101000a031916815260200191505b509250505060405180910390f35b6114ce600480360360208110156114b857600080fd5b81019080803590602001909291905050506149bb565b60405180806020018060200180602001848103845287818151815260200191508051906020019080838360005b838110156115165780820151818401526020810190506114fb565b50505050905090810190601f1680156115435780820380516001836020036101000a031916815260200191505b50848103835286818151815260200191508051906020019080838360005b8381101561157c578082015181840152602081019050611561565b50505050905090810190601f1680156115a95780820380516001836020036101000a031916815260200191505b50848103825285818151815260200191508051906020019080838360005b838110156115e25780820151818401526020810190506115c7565b50505050905090810190601f16801561160f5780820380516001836020036101000a031916815260200191505b50965050505050505060405180910390f35b6116da6004803603602081101561163757600080fd5b810190808035906020019064010000000081111561165457600080fd5b82018360208201111561166657600080fd5b8035906020019184600183028401116401000000008311171561168857600080fd5b91908080601f016020809104026020016040519081016040528093929190818152602001838380828437600081840152601f19601f820116905080830192505050505050509192919290505050614bba565b604051808215151515815260200191505060405180910390f35b6117206004803603602081101561170a57600080fd5b8101908080359060200190929190505050614bf0565b604051808781526020018060200186815260200180602001806020018060200185810385528a818151815260200191508051906020019080838360005b8381101561177857808201518184015260208101905061175d565b50505050905090810190601f1680156117a55780820380516001836020036101000a031916815260200191505b50858103845288818151815260200191508051906020019080838360005b838110156117de5780820151818401526020810190506117c3565b50505050905090810190601f16801561180b5780820380516001836020036101000a031916815260200191505b50858103835287818151815260200191508051906020019080838360005b83811015611844578082015181840152602081019050611829565b50505050905090810190601f1680156118715780820380516001836020036101000a031916815260200191505b50858103825286818151815260200191508051906020019080838360005b838110156118aa57808201518184015260208101905061188f565b50505050905090810190601f1680156118d75780820380516001836020036101000a031916815260200191505b509a505050505050505050505060405180910390f35b6119196004803603602081101561190357600080fd5b8101908080359060200190929190505050614e99565b6040518080602001806020018060200180602001858103855289818151815260200191508051906020019080838360005b8381101561196557808201518184015260208101905061194a565b50505050905090810190601f1680156119925780820380516001836020036101000a031916815260200191505b50858103845288818151815260200191508051906020019080838360005b838110156119cb5780820151818401526020810190506119b0565b50505050905090810190601f1680156119f85780820380516001836020036101000a031916815260200191505b50858103835287818151815260200191508051906020019080838360005b83811015611a31578082015181840152602081019050611a16565b50505050905090810190601f168015611a5e5780820380516001836020036101000a031916815260200191505b50858103825286818151815260200191508051906020019080838360005b83811015611a97578082015181840152602081019050611a7c565b50505050905090810190601f168015611ac45780820380516001836020036101000a031916815260200191505b509850505050505050505060405180910390f35b611f3a6004803603610140811015611aef57600080fd5b810190808035906020019092919080359060200190640100000000811115611b1657600080fd5b820183602082011115611b2857600080fd5b80359060200191846001830284011164010000000083111715611b4a57600080fd5b91908080601f016020809104026020016040519081016040528093929190818152602001838380828437600081840152601f19601f82011690508083019250505050505050919291929080359060200190640100000000811115611bad57600080fd5b820183602082011115611bbf57600080fd5b80359060200191846001830284011164010000000083111715611be157600080fd5b91908080601f016020809104026020016040519081016040528093929190818152602001838380828437600081840152601f19601f82011690508083019250505050505050919291929080359060200190640100000000811115611c4457600080fd5b820183602082011115611c5657600080fd5b80359060200191846001830284011164010000000083111715611c7857600080fd5b91908080601f016020809104026020016040519081016040528093929190818152602001838380828437600081840152601f19601f8201169050808301925050505050505091929192908035906020019092919080359060200190640100000000811115611ce557600080fd5b820183602082011115611cf757600080fd5b80359060200191846001830284011164010000000083111715611d1957600080fd5b91908080601f016020809104026020016040519081016040528093929190818152602001838380828437600081840152601f19601f8201169050808301925050505050505091929192908035906020019092919080359060200190640100000000811115611d8657600080fd5b820183602082011115611d9857600080fd5b80359060200191846001830284011164010000000083111715611dba57600080fd5b91908080601f016020809104026020016040519081016040528093929190818152602001838380828437600081840152601f19601f82011690508083019250505050505050919291929080359060200190640100000000811115611e1d57600080fd5b820183602082011115611e2f57600080fd5b80359060200191846001830284011164010000000083111715611e5157600080fd5b91908080601f016020809104026020016040519081016040528093929190818152602001838380828437600081840152601f19601f82011690508083019250505050505050919291929080359060200190640100000000811115611eb457600080fd5b820183602082011115611ec657600080fd5b80359060200191846001830284011164010000000083111715611ee857600080fd5b91908080601f016020809104026020016040519081016040528093929190818152602001838380828437600081840152601f19601f820116905080830192505050505050509192919290505050615136565b005b61200960048036036060811015611f5257600080fd5b810190808035906020019092919080359060200190640100000000811115611f7957600080fd5b820183602082011115611f8b57600080fd5b80359060200191846001830284011164010000000083111715611fad57600080fd5b91908080601f016020809104026020016040519081016040528093929190818152602001838380828437600081840152601f19601f8201169050808301925050505050505091929192908035906020019092919050505061568b565b6040518080602001828103825283818151815260200191508051906020019080838360005b8381101561204957808201518184015260208101905061202e565b50505050905090810190601f1680156120765780820380516001836020036101000a031916815260200191505b509250505060405180910390f35b6120b06004803603602081101561209a57600080fd5b8101908080359060200190929190505050615774565b60405180858152602001806020018060200180602001848103845287818151815260200191508051906020019080838360005b838110156120fe5780820151818401526020810190506120e3565b50505050905090810190601f16801561212b5780820380516001836020036101000a031916815260200191505b50848103835286818151815260200191508051906020019080838360005b83811015612164578082015181840152602081019050612149565b50505050905090810190601f1680156121915780820380516001836020036101000a031916815260200191505b50848103825285818151815260200191508051906020019080838360005b838110156121ca5780820151818401526020810190506121af565b50505050905090810190601f1680156121f75780820380516001836020036101000a031916815260200191505b5097505050505050505060405180910390f35b6122c36004803603602081101561222057600080fd5b810190808035906020019064010000000081111561223d57600080fd5b82018360208201111561224f57600080fd5b8035906020019184600183028401116401000000008311171561227157600080fd5b91908080601f016020809104026020016040519081016040528093929190818152602001838380828437600081840152601f19601f820116905080830192505050505050509192919290505050615979565b604051808273ffffffffffffffffffffffffffffffffffffffff1673ffffffffffffffffffffffffffffffffffffffff16815260200191505060405180910390f35b3373ffffffffffffffffffffffffffffffffffffffff1660008089815260200190815260200160002060009054906101000a900473ffffffffffffffffffffffffffffffffffffffff1673ffffffffffffffffffffffffffffffffffffffff16146123d8576040517f08c379a00000000000000000000000000000000000000000000000000000000081526004018080602001828103825260108152602001807f4e6f7420796f7572206163636f756e740000000000000000000000000000000081525060200191505060405180910390fd5b600115156007876040518082805190602001908083835b6020831061241257805182526020820191506020810190506020830392506123ef565b6001836020036101000a038019825116818451168082178552505050505050905001915050908152602001604051809103902060009054906101000a900460ff16151514156124c9576040517f08c379a00000000000000000000000000000000000000000000000000000000081526004018080602001828103825260158152602001807f4c6963656e736520616464656420616c7265616479000000000000000000000081525060200191505060405180910390fd5b60086040518060e00160405280898152602001888152602001878152602001868152602001858152602001848152602001838152509080600181540180825580915050906001820390600052602060002090600702016000909192909190915060008201518160000155602082015181600101908051906020019061254f929190615d43565b5060408201518160020155606082015181600301556080820151816004019080519060200190612580929190615d43565b5060a082015181600501908051906020019061259d929190615d43565b5060c08201518160060190805190602001906125ba929190615d43565b5050505060016007876040518082805190602001908083835b602083106125f657805182526020820191506020810190506020830392506125d3565b6001836020036101000a038019825116818451168082178552505050505050905001915050908152602001604051809103902060006101000a81548160ff021916908315150217905550336005876040518082805190602001908083835b602083106126775780518252602082019150602081019050602083039250612654565b6001836020036101000a038019825116818451168082178552505050505050905001915050908152602001604051809103902060006101000a81548173ffffffffffffffffffffffffffffffffffffffff021916908373ffffffffffffffffffffffffffffffffffffffff160217905550600660003373ffffffffffffffffffffffffffffffffffffffff1673ffffffffffffffffffffffffffffffffffffffff168152602001908152602001600020869080600181540180825580915050906001820390600052602060002001600090919290919091509080519060200190612762929190615dc3565b50507f5193be4edf57bce3ca93ba998f927ac1cfe0dd7e561d8a93dd844b4c6680e548338888604051808473ffffffffffffffffffffffffffffffffffffffff1673ffffffffffffffffffffffffffffffffffffffff16815260200183815260200180602001828103825283818151815260200191508051906020019080838360005b838110156128005780820151818401526020810190506127e5565b50505050905090810190601f16801561282d5780820380516001836020036101000a031916815260200191505b5094505050505060405180910390a150505050505050565b60006020528060005260406000206000915054906101000a900473ffffffffffffffffffffffffffffffffffffffff1681565b60608060006060600060608060603373ffffffffffffffffffffffffffffffffffffffff166000808c815260200190815260200160002060009054906101000a900473ffffffffffffffffffffffffffffffffffffffff1673ffffffffffffffffffffffffffffffffffffffff1614612959576040517f08c379a00000000000000000000000000000000000000000000000000000000081526004018080602001828103825260108152602001807f4e6f7420796f7572206163636f756e740000000000000000000000000000000081525060200191505060405180910390fd5b600080600090505b600a8054905081101561325b578b600a828154811061297c57fe5b906000526020600020906004020160000154148015612aa157508a6040516020018082805190602001908083835b602083106129cd57805182526020820191506020810190506020830392506129aa565b6001836020036101000a03801982511681845116808217855250505050505090500191505060405160208183030381529060405280519060200120600a8281548110612a1557fe5b90600052602060002090600402016001016040516020018082805460018160011615610100020316600290048015612a845780601f10612a62576101008083540402835291820191612a84565b820191906000526020600020905b815481529060010190602001808311612a70575b505091505060405160208183030381529060405280519060200120145b1561324e5760008190507fd76344d1508676c135f52177f3774bcab63954158dfc96939a0b8feaaa0e9eef600a8281548110612ad957fe5b9060005260206000209060040201600101600b8381548110612af757fe5b906000526020600020906006020160020154600b8481548110612b1657fe5b9060005260206000209060060201600101600b8581548110612b3457fe5b9060005260206000209060060201600401600b8681548110612b5257fe5b9060005260206000209060060201600501604051808060200186815260200180602001806020018060200185810385528a818154600181600116156101000203166002900481526020019150805460018160011615610100020316600290048015612bfe5780601f10612bd357610100808354040283529160200191612bfe565b820191906000526020600020905b815481529060010190602001808311612be157829003601f168201915b5050858103845288818154600181600116156101000203166002900481526020019150805460018160011615610100020316600290048015612c815780601f10612c5657610100808354040283529160200191612c81565b820191906000526020600020905b815481529060010190602001808311612c6457829003601f168201915b5050858103835287818154600181600116156101000203166002900481526020019150805460018160011615610100020316600290048015612d045780601f10612cd957610100808354040283529160200191612d04565b820191906000526020600020905b815481529060010190602001808311612ce757829003601f168201915b5050858103825286818154600181600116156101000203166002900481526020019150805460018160011615610100020316600290048015612d875780601f10612d5c57610100808354040283529160200191612d87565b820191906000526020600020905b815481529060010190602001808311612d6a57829003601f168201915b5050995050505050505050505060405180910390a1600a8281548110612da957fe5b9060005260206000209060040201600101600a8381548110612dc757fe5b9060005260206000209060040201600201600a8481548110612de557fe5b906000526020600020906004020160030154600b8581548110612e0457fe5b9060005260206000209060060201600101600b8681548110612e2257fe5b906000526020600020906006020160020154600b8781548110612e4157fe5b9060005260206000209060060201600301600b8881548110612e5f57fe5b9060005260206000209060060201600401600b8981548110612e7d57fe5b9060005260206000209060060201600501878054600181600116156101000203166002900480601f016020809104026020016040519081016040528092919081815260200182805460018160011615610100020316600290048015612f235780601f10612ef857610100808354040283529160200191612f23565b820191906000526020600020905b815481529060010190602001808311612f0657829003601f168201915b50505050509750868054600181600116156101000203166002900480601f016020809104026020016040519081016040528092919081815260200182805460018160011615610100020316600290048015612fbf5780601f10612f9457610100808354040283529160200191612fbf565b820191906000526020600020905b815481529060010190602001808311612fa257829003601f168201915b50505050509650848054600181600116156101000203166002900480601f01602080910402602001604051908101604052809291908181526020018280546001816001161561010002031660029004801561305b5780601f106130305761010080835404028352916020019161305b565b820191906000526020600020905b81548152906001019060200180831161303e57829003601f168201915b50505050509450828054600181600116156101000203166002900480601f0160208091040260200160405190810160405280929190818152602001828054600181600116156101000203166002900480156130f75780601f106130cc576101008083540402835291602001916130f7565b820191906000526020600020905b8154815290600101906020018083116130da57829003601f168201915b50505050509250818054600181600116156101000203166002900480601f0160208091040260200160405190810160405280929190818152602001828054600181600116156101000203166002900480156131935780601f1061316857610100808354040283529160200191613193565b820191906000526020600020905b81548152906001019060200180831161317657829003601f168201915b50505050509150808054600181600116156101000203166002900480601f01602080910402602001604051908101604052809291908181526020018280546001816001161561010002031660029004801561322f5780601f106132045761010080835404028352916020019161322f565b820191906000526020600020905b81548152906001019060200180831161321257829003601f168201915b505050505090509a509a509a509a509a509a509a509a5050505061325e565b8080600101915050612961565b50505b9295985092959890939650565b600a818154811061327857fe5b9060005260206000209060040201600091509050806000015490806001018054600181600116156101000203166002900480601f01602080910402602001604051908101604052809291908181526020018280546001816001161561010002031660029004801561332a5780601f106132ff5761010080835404028352916020019161332a565b820191906000526020600020905b81548152906001019060200180831161330d57829003601f168201915b505050505090806002018054600181600116156101000203166002900480601f0160208091040260200160405190810160405280929190818152602001828054600181600116156101000203166002900480156133c85780601f1061339d576101008083540402835291602001916133c8565b820191906000526020600020905b8154815290600101906020018083116133ab57829003601f168201915b5050505050908060030154905084565b600881815481106133e557fe5b9060005260206000209060070201600091509050806000015490806001018054600181600116156101000203166002900480601f0160208091040260200160405190810160405280929190818152602001828054600181600116156101000203166002900480156134975780601f1061346c57610100808354040283529160200191613497565b820191906000526020600020905b81548152906001019060200180831161347a57829003601f168201915b505050505090806002015490806003015490806004018054600181600116156101000203166002900480601f0160208091040260200160405190810160405280929190818152602001828054600181600116156101000203166002900480156135415780601f1061351657610100808354040283529160200191613541565b820191906000526020600020905b81548152906001019060200180831161352457829003601f168201915b505050505090806005018054600181600116156101000203166002900480601f0160208091040260200160405190810160405280929190818152602001828054600181600116156101000203166002900480156135df5780601f106135b4576101008083540402835291602001916135df565b820191906000526020600020905b8154815290600101906020018083116135c257829003601f168201915b505050505090806006018054600181600116156101000203166002900480601f01602080910402602001604051908101604052809291908181526020018280546001816001161561010002031660029004801561367d5780601f106136525761010080835404028352916020019161367d565b820191906000526020600020905b81548152906001019060200180831161366057829003601f168201915b5050505050905087565b803373ffffffffffffffffffffffffffffffffffffffff1660008083815260200190815260200160002060009054906101000a900473ffffffffffffffffffffffffffffffffffffffff1673ffffffffffffffffffffffffffffffffffffffff161461375b576040517f08c379a00000000000000000000000000000000000000000000000000000000081526004018080602001828103825260108152602001807f4e6f7420796f7572206163636f756e740000000000000000000000000000000081525060200191505060405180910390fd5b613764826159c2565b5050505061377182615b40565b5050505061377e82615caa565b505050507ff26ad77430b1781c51897f09c9ed9254e2ca0d20c086cf719af4530d0ef77cc860008084815260200190815260200160002060009054906101000a900473ffffffffffffffffffffffffffffffffffffffff1683600285815481106137e457fe5b90600052602060002090600302016000016002868154811061380257fe5b90600052602060002090600302016001016002878154811061382057fe5b90600052602060002090600302016002016003888154811061383e57fe5b90600052602060002090600402016001016003898154811061385c57fe5b906000526020600020906004020160020160038a8154811061387a57fe5b9060005260206000209060040201600301604051808973ffffffffffffffffffffffffffffffffffffffff1673ffffffffffffffffffffffffffffffffffffffff16815260200188815260200180602001806020018060200180602001806020018060200187810387528d8181546001816001161561010002031660029004815260200191508054600181600116156101000203166002900480156139605780601f1061393557610100808354040283529160200191613960565b820191906000526020600020905b81548152906001019060200180831161394357829003601f168201915b505087810386528c8181546001816001161561010002031660029004815260200191508054600181600116156101000203166002900480156139e35780601f106139b8576101008083540402835291602001916139e3565b820191906000526020600020905b8154815290600101906020018083116139c657829003601f168201915b505087810385528b818154600181600116156101000203166002900481526020019150805460018160011615610100020316600290048015613a665780601f10613a3b57610100808354040283529160200191613a66565b820191906000526020600020905b815481529060010190602001808311613a4957829003601f168201915b505087810384528a818154600181600116156101000203166002900481526020019150805460018160011615610100020316600290048015613ae95780601f10613abe57610100808354040283529160200191613ae9565b820191906000526020600020905b815481529060010190602001808311613acc57829003601f168201915b5050878103835289818154600181600116156101000203166002900481526020019150805460018160011615610100020316600290048015613b6c5780601f10613b4157610100808354040283529160200191613b6c565b820191906000526020600020905b815481529060010190602001808311613b4f57829003601f168201915b5050878103825288818154600181600116156101000203166002900481526020019150805460018160011615610100020316600290048015613bef5780601f10613bc457610100808354040283529160200191613bef565b820191906000526020600020905b815481529060010190602001808311613bd257829003601f168201915b50509e50505050505050505050505050505060405180910390a15050565b6000600160003373ffffffffffffffffffffffffffffffffffffffff1673ffffffffffffffffffffffffffffffffffffffff1681526020019081526020016000205414613ca5576040517f08c379a0000000000000000000000000000000000000000000000000000000008152600401808060200182810382526022815260200180615e696022913960400191505060405180910390fd5b600260405180606001604052808d81526020018c81526020018b815250908060018154018082558091505090600182039060005260206000209060030201600090919290919091506000820151816000019080519060200190613d09929190615d43565b506020820151816001019080519060200190613d26929190615d43565b506040820151816002019080519060200190613d43929190615d43565b50505050600360405180608001604052808a81526020018981526020018881526020018781525090806001815401808255809150509060018203906000526020600020906004020160009091929091909150600082015181600001556020820151816001019080519060200190613dbb929190615d43565b506040820151816002019080519060200190613dd8929190615d43565b506060820151816003019080519060200190613df5929190615d43565b505050506004604051806080016040528086815260200185815260200184815260200183815250908060018154018082558091505090600182039060005260206000209060040201600090919290919091506000820151816000019080519060200190613e63929190615d43565b506020820151816001019080519060200190613e80929190615d43565b506040820151816002019080519060200190613e9d929190615d43565b506060820151816003019080519060200190613eba929190615d43565b5050505033600080600160028054905003815260200190815260200160002060006101000a81548173ffffffffffffffffffffffffffffffffffffffff021916908373ffffffffffffffffffffffffffffffffffffffff160217905550600160003373ffffffffffffffffffffffffffffffffffffffff1673ffffffffffffffffffffffffffffffffffffffff168152602001908152602001600020600081548092919060010191905055507f5e12c0cb56ade5f1eee122a4f6a88aa40bed7c7c8d485a155c7390cf129de517336001600280549050038d8d8d8c8c8c604051808973ffffffffffffffffffffffffffffffffffffffff1673ffffffffffffffffffffffffffffffffffffffff16815260200188815260200180602001806020018060200180602001806020018060200187810387528d818151815260200191508051906020019080838360005b83811015614023578082015181840152602081019050614008565b50505050905090810190601f1680156140505780820380516001836020036101000a031916815260200191505b5087810386528c818151815260200191508051906020019080838360005b8381101561408957808201518184015260208101905061406e565b50505050905090810190601f1680156140b65780820380516001836020036101000a031916815260200191505b5087810385528b818151815260200191508051906020019080838360005b838110156140ef5780820151818401526020810190506140d4565b50505050905090810190601f16801561411c5780820380516001836020036101000a031916815260200191505b5087810384528a818151815260200191508051906020019080838360005b8381101561415557808201518184015260208101905061413a565b50505050905090810190601f1680156141825780820380516001836020036101000a031916815260200191505b50878103835289818151815260200191508051906020019080838360005b838110156141bb5780820151818401526020810190506141a0565b50505050905090810190601f1680156141e85780820380516001836020036101000a031916815260200191505b50878103825288818151815260200191508051906020019080838360005b83811015614221578082015181840152602081019050614206565b50505050905090810190601f16801561424e5780820380516001836020036101000a031916815260200191505b509e50505050505050505050505050505060405180910390a15050505050505050505050565b60016020528060005260406000206000915090505481565b606060008060608060603373ffffffffffffffffffffffffffffffffffffffff166000808a815260200190815260200160002060009054906101000a900473ffffffffffffffffffffffffffffffffffffffff1673ffffffffffffffffffffffffffffffffffffffff1614614369576040517f08c379a00000000000000000000000000000000000000000000000000000000081526004018080602001828103825260108152602001807f4e6f7420796f7572206163636f756e740000000000000000000000000000000081525060200191505060405180910390fd5b3373ffffffffffffffffffffffffffffffffffffffff166005886040518082805190602001908083835b602083106143b65780518252602082019150602081019050602083039250614393565b6001836020036101000a038019825116818451168082178552505050505050905001915050908152602001604051809103902060009054906101000a900473ffffffffffffffffffffffffffffffffffffffff1673ffffffffffffffffffffffffffffffffffffffff1614614493576040517f08c379a00000000000000000000000000000000000000000000000000000000081526004018080602001828103825260108152602001807f4e6f7420796f7572206c6963656e73650000000000000000000000000000000081525060200191505060405180910390fd5b60008090505b6008805490508110156148e95788600882815481106144b457fe5b90600052602060002090600702016000015414156148dc577ff39d45c52086918c2a5605e579be1b7739b0f301de329f1d3bcf0bb8be74c405338a8a604051808473ffffffffffffffffffffffffffffffffffffffff1673ffffffffffffffffffffffffffffffffffffffff16815260200183815260200180602001828103825283818151815260200191508051906020019080838360005b8381101561456857808201518184015260208101905061454d565b50505050905090810190601f1680156145955780820380516001836020036101000a031916815260200191505b5094505050505060405180910390a1600881815481106145b157fe5b9060005260206000209060070201600101600882815481106145cf57fe5b906000526020600020906007020160020154600883815481106145ee57fe5b9060005260206000209060070201600301546008848154811061460d57fe5b90600052602060002090600702016004016008858154811061462b57fe5b90600052602060002090600702016005016008868154811061464957fe5b9060005260206000209060070201600601858054600181600116156101000203166002900480601f0160208091040260200160405190810160405280929190818152602001828054600181600116156101000203166002900480156146ef5780601f106146c4576101008083540402835291602001916146ef565b820191906000526020600020905b8154815290600101906020018083116146d257829003601f168201915b50505050509550828054600181600116156101000203166002900480601f01602080910402602001604051908101604052809291908181526020018280546001816001161561010002031660029004801561478b5780601f106147605761010080835404028352916020019161478b565b820191906000526020600020905b81548152906001019060200180831161476e57829003601f168201915b50505050509250818054600181600116156101000203166002900480601f0160208091040260200160405190810160405280929190818152602001828054600181600116156101000203166002900480156148275780601f106147fc57610100808354040283529160200191614827565b820191906000526020600020905b81548152906001019060200180831161480a57829003601f168201915b50505050509150808054600181600116156101000203166002900480601f0160208091040260200160405190810160405280929190818152602001828054600181600116156101000203166002900480156148c35780601f10614898576101008083540402835291602001916148c3565b820191906000526020600020905b8154815290600101906020018083116148a657829003601f168201915b50505050509050965096509650965096509650506148eb565b8080600101915050614499565b505b9295509295509295565b6006602052816000526040600020818154811061490e57fe5b90600052602060002001600091509150508054600181600116156101000203166002900480601f0160208091040260200160405190810160405280929190818152602001828054600181600116156101000203166002900480156149b35780601f10614988576101008083540402835291602001916149b3565b820191906000526020600020905b81548152906001019060200180831161499657829003601f168201915b505050505081565b600281815481106149c857fe5b9060005260206000209060030201600091509050806000018054600181600116156101000203166002900480601f016020809104026020016040519081016040528092919081815260200182805460018160011615610100020316600290048015614a745780601f10614a4957610100808354040283529160200191614a74565b820191906000526020600020905b815481529060010190602001808311614a5757829003601f168201915b505050505090806001018054600181600116156101000203166002900480601f016020809104026020016040519081016040528092919081815260200182805460018160011615610100020316600290048015614b125780601f10614ae757610100808354040283529160200191614b12565b820191906000526020600020905b815481529060010190602001808311614af557829003601f168201915b505050505090806002018054600181600116156101000203166002900480601f016020809104026020016040519081016040528092919081815260200182805460018160011615610100020316600290048015614bb05780601f10614b8557610100808354040283529160200191614bb0565b820191906000526020600020905b815481529060010190602001808311614b9357829003601f168201915b5050505050905083565b6007818051602081018201805184825260208301602085012081835280955050505050506000915054906101000a900460ff1681565b600b8181548110614bfd57fe5b9060005260206000209060060201600091509050806000015490806001018054600181600116156101000203166002900480601f016020809104026020016040519081016040528092919081815260200182805460018160011615610100020316600290048015614caf5780601f10614c8457610100808354040283529160200191614caf565b820191906000526020600020905b815481529060010190602001808311614c9257829003601f168201915b505050505090806002015490806003018054600181600116156101000203166002900480601f016020809104026020016040519081016040528092919081815260200182805460018160011615610100020316600290048015614d535780601f10614d2857610100808354040283529160200191614d53565b820191906000526020600020905b815481529060010190602001808311614d3657829003601f168201915b505050505090806004018054600181600116156101000203166002900480601f016020809104026020016040519081016040528092919081815260200182805460018160011615610100020316600290048015614df15780601f10614dc657610100808354040283529160200191614df1565b820191906000526020600020905b815481529060010190602001808311614dd457829003601f168201915b505050505090806005018054600181600116156101000203166002900480601f016020809104026020016040519081016040528092919081815260200182805460018160011615610100020316600290048015614e8f5780601f10614e6457610100808354040283529160200191614e8f565b820191906000526020600020905b815481529060010190602001808311614e7257829003601f168201915b5050505050905086565b60048181548110614ea657fe5b9060005260206000209060040201600091509050806000018054600181600116156101000203166002900480601f016020809104026020016040519081016040528092919081815260200182805460018160011615610100020316600290048015614f525780601f10614f2757610100808354040283529160200191614f52565b820191906000526020600020905b815481529060010190602001808311614f3557829003601f168201915b505050505090806001018054600181600116156101000203166002900480601f016020809104026020016040519081016040528092919081815260200182805460018160011615610100020316600290048015614ff05780601f10614fc557610100808354040283529160200191614ff0565b820191906000526020600020905b815481529060010190602001808311614fd357829003601f168201915b505050505090806002018054600181600116156101000203166002900480601f01602080910402602001604051908101604052809291908181526020018280546001816001161561010002031660029004801561508e5780601f106150635761010080835404028352916020019161508e565b820191906000526020600020905b81548152906001019060200180831161507157829003601f168201915b505050505090806003018054600181600116156101000203166002900480601f01602080910402602001604051908101604052809291908181526020018280546001816001161561010002031660029004801561512c5780601f106151015761010080835404028352916020019161512c565b820191906000526020600020905b81548152906001019060200180831161510f57829003601f168201915b5050505050905084565b3373ffffffffffffffffffffffffffffffffffffffff166000808c815260200190815260200160002060009054906101000a900473ffffffffffffffffffffffffffffffffffffffff1673ffffffffffffffffffffffffffffffffffffffff1614615209576040517f08c379a00000000000000000000000000000000000000000000000000000000081526004018080602001828103825260108152602001807f4e6f7420796f7572206163636f756e740000000000000000000000000000000081525060200191505060405180910390fd5b3373ffffffffffffffffffffffffffffffffffffffff1660058a6040518082805190602001908083835b602083106152565780518252602082019150602081019050602083039250615233565b6001836020036101000a038019825116818451168082178552505050505050905001915050908152602001604051809103902060009054906101000a900473ffffffffffffffffffffffffffffffffffffffff1673ffffffffffffffffffffffffffffffffffffffff1614615333576040517f08c379a00000000000000000000000000000000000000000000000000000000081526004018080602001828103825260108152602001807f6e6f7420796f7572206c6963656e73650000000000000000000000000000000081525060200191505060405180910390fd5b600a60405180608001604052808c81526020018a815260200189815260200188815250908060018154018082558091505090600182039060005260206000209060040201600090919290919091506000820151816000015560208201518160010190805190602001906153a7929190615d43565b5060408201518160020190805190602001906153c4929190615d43565b5060608201518160030155505050600b6040518060c001604052808c81526020018781526020018681526020018581526020018481526020018381525090806001815401808255809150509060018203906000526020600020906006020160009091929091909150600082015181600001556020820151816001019080519060200190615452929190615d43565b50604082015181600201556060820151816003019080519060200190615479929190615d43565b506080820151816004019080519060200190615496929190615d43565b5060a08201518160050190805190602001906154b3929190615d43565b50505050600960008b8152602001908152602001600020896040518082805190602001908083835b602083106154fe57805182526020820191506020810190506020830392506154db565b6001836020036101000a038019825116818451168082178552505050505050905001915050908152602001604051809103902088908060018154018082558091505090600182039060005260206000200160009091929091909150908051906020019061556c929190615dc3565b50507fc521a744d58b34696a2a372b7d7019eafff6893b1a8e65b42f8e5071e2e368a98a8a8a604051808481526020018060200180602001838103835285818151815260200191508051906020019080838360005b838110156155dc5780820151818401526020810190506155c1565b50505050905090810190601f1680156156095780820380516001836020036101000a031916815260200191505b50838103825284818151815260200191508051906020019080838360005b83811015615642578082015181840152602081019050615627565b50505050905090810190601f16801561566f5780820380516001836020036101000a031916815260200191505b509550505050505060405180910390a150505050505050505050565b60096020528260005260406000208280516020810182018051848252602083016020850120818352809550505050505081815481106156c657fe5b9060005260206000200160009250925050508054600181600116156101000203166002900480601f01602080910402602001604051908101604052809291908181526020018280546001816001161561010002031660029004801561576c5780601f106157415761010080835404028352916020019161576c565b820191906000526020600020905b81548152906001019060200180831161574f57829003601f168201915b505050505081565b6003818154811061578157fe5b9060005260206000209060040201600091509050806000015490806001018054600181600116156101000203166002900480601f0160208091040260200160405190810160405280929190818152602001828054600181600116156101000203166002900480156158335780601f1061580857610100808354040283529160200191615833565b820191906000526020600020905b81548152906001019060200180831161581657829003601f168201915b505050505090806002018054600181600116156101000203166002900480601f0160208091040260200160405190810160405280929190818152602001828054600181600116156101000203166002900480156158d15780601f106158a6576101008083540402835291602001916158d1565b820191906000526020600020905b8154815290600101906020018083116158b457829003601f168201915b505050505090806003018054600181600116156101000203166002900480601f01602080910402602001604051908101604052809291908181526020018280546001816001161561010002031660029004801561596f5780601f106159445761010080835404028352916020019161596f565b820191906000526020600020905b81548152906001019060200180831161595257829003601f168201915b5050505050905084565b6005818051602081018201805184825260208301602085012081835280955050505050506000915054906101000a900473ffffffffffffffffffffffffffffffffffffffff1681565b6000806000803373ffffffffffffffffffffffffffffffffffffffff1660008087815260200190815260200160002060009054906101000a900473ffffffffffffffffffffffffffffffffffffffff1673ffffffffffffffffffffffffffffffffffffffff1614615a9b576040517f08c379a00000000000000000000000000000000000000000000000000000000081526004018080602001828103825260108152602001807f4e6f7420796f7572206163636f756e740000000000000000000000000000000081525060200191505060405180910390fd5b60008086815260200190815260200160002060009054906101000a900473ffffffffffffffffffffffffffffffffffffffff1660028681548110615adb57fe5b906000526020600020906003020160000160028781548110615af957fe5b906000526020600020906003020160010160028881548110615b1757fe5b906000526020600020906003020160020182925081915080905093509350935093509193509193565b6000806000803373ffffffffffffffffffffffffffffffffffffffff1660008087815260200190815260200160002060009054906101000a900473ffffffffffffffffffffffffffffffffffffffff1673ffffffffffffffffffffffffffffffffffffffff1614615c19576040517f08c379a00000000000000000000000000000000000000000000000000000000081526004018080602001828103825260108152602001807f4e6f7420796f7572206163636f756e740000000000000000000000000000000081525060200191505060405180910390fd5b60038581548110615c2657fe5b90600052602060002090600402016000015460038681548110615c4557fe5b906000526020600020906004020160010160038781548110615c6357fe5b906000526020600020906004020160020160038881548110615c8157fe5b906000526020600020906004020160030182925081915080905093509350935093509193509193565b60008060008060048581548110615cbd57fe5b906000526020600020906004020160000160048681548110615cdb57fe5b906000526020600020906004020160010160048781548110615cf957fe5b906000526020600020906004020160020160048881548110615d1757fe5b906000526020600020906004020160030183935082925081915080905093509350935093509193509193565b828054600181600116156101000203166002900490600052602060002090601f016020900481019282601f10615d8457805160ff1916838001178555615db2565b82800160010185558215615db2579182015b82811115615db1578251825591602001919060010190615d96565b5b509050615dbf9190615e43565b5090565b828054600181600116156101000203166002900490600052602060002090601f016020900481019282601f10615e0457805160ff1916838001178555615e32565b82800160010185558215615e32579182015b82811115615e31578251825591602001919060010190615e16565b5b509050615e3f9190615e43565b5090565b615e6591905b80821115615e61576000816000905550600101615e49565b5090565b9056fe55736572732063616e206f6e6c7920637265617465206f6e652070726f66696c6521a265627a7a72315820055b313dfaea12aaf3398982d205c051eea3b0f1d5519422e5f312fe96d8d1d464736f6c63430005100032",
  "source": "// SPDX-License-Identifier: MIT\npragma solidity >=0.4.22 <0.9.0;\nimport \"./LicenseFactory.sol\";\ncontract RegistrationFactory is LicenseFactory {\n\n  event RegistrationAdded(uint driverId, string licenseNumber, string plateNumber);\n  event RegistrationGotten(string plateNumber, uint carYear, string carMake, string carModel, string carColor);\n\n  //maps drivers id to the mapping of a license number to a plate number\n  mapping (uint => mapping(string => string[])) public ownerLicReg;\n\n  //Registrations details database\n  RegistrationDetail[] public registrationDetails;\n  //Registration features database\n  CarFeature[] public carFeatures;\n\n  struct RegistrationDetail {\n    uint driverId;\n    string plateNumber;\n    string vin;\n    uint goodThru;\n  }\n\n  struct CarFeature {\n    uint driverId;\n    string make;\n    uint256 year;\n    string carType;\n    string model;\n    string color;\n  }\n\n\n  function setRegistration(\n    uint _driverId,\n    string memory _licNumber,\n    string memory _plateNumber,\n    string memory _vin,\n    uint _goodThru,\n    string memory _make,\n    uint _year,\n    string memory _carType,\n    string memory _model,\n    string memory _color\n    ) public {\n      require(driverToOwner[_driverId] == msg.sender, \"Not your account\");\n      require(licenseToOwner[_licNumber] == msg.sender, \"not your license\");\n      registrationDetails.push(RegistrationDetail(_driverId, _plateNumber, _vin, _goodThru));\n      carFeatures.push(CarFeature(_driverId, _make, _year, _carType, _model, _color));\n      ownerLicReg[_driverId][_licNumber].push(_plateNumber);\n      emit RegistrationAdded(_driverId, _licNumber, _plateNumber);\n  }\n\n  //Gets registration info\n  function getRegistration(uint _driverId, string memory _plateNumber) public returns (\n    string memory,\n    string memory,\n    uint,\n    string memory,\n    uint256,\n    string memory,\n    string memory,\n    string memory\n  )\n  {\n    require(driverToOwner[_driverId] == msg.sender, \"Not your account\");\n    uint index;\n    for (uint i = 0; i < registrationDetails.length; i++) {\n      if (registrationDetails[i].driverId == _driverId &&\n        keccak256(abi.encodePacked(registrationDetails[i].plateNumber)) == keccak256(abi.encodePacked(_plateNumber))) {\n        uint index = i;\n        emit RegistrationGotten(\n          registrationDetails[index].plateNumber,\n          carFeatures[index].year,\n          carFeatures[index].make,\n          carFeatures[index].model,\n          carFeatures[index].color\n        );\n        return (\n          registrationDetails[i].plateNumber,\n          registrationDetails[i].vin,\n          registrationDetails[i].goodThru,\n          carFeatures[i].make,\n          carFeatures[i].year,\n          carFeatures[i].carType,\n          carFeatures[i].model,\n          carFeatures[i].color\n        );\n      } else {\n        continue;\n      }\n    }\n  }\n\n  //Returns a driver's list of license plates\n  function _getDriverCars(uint _driverId, string memory _licNum) internal view returns (string[] memory) {\n    require(driverToOwner[_driverId] == msg.sender, \"Not your Account\");\n    require (licenseToOwner[_licNum] == msg.sender, \"Not your license\");\n    return ownerLicReg[_driverId][_licNum];\n  }\n\n}\n",
  "sourcePath": "/Users/Marcus/Documents/Projects/dmvAppContracts/contracts/RegistrationFactory.sol",
  "compiler": {
    "name": "solc",
    "version": "0.5.16+commit.9c3226ce.Emscripten.clang"
  },
  "schemaVersion": "3.4.4",
  "updatedAt": "2022-01-10T21:08:41.475Z",
  "devdoc": {
    "methods": {}
  },
  "userdoc": {
    "methods": {}
  }
}