{
  "contractName": "RegistrationFactory",
  "abi": [
    {
      "anonymous": false,
      "inputs": [
        {
          "indexed": false,
          "internalType": "address",
          "name": "walletAddress",
          "type": "address"
        },
        {
          "components": [
            {
              "internalType": "string",
              "name": "firstName",
              "type": "string"
            },
            {
              "internalType": "string",
              "name": "middleInitial",
              "type": "string"
            },
            {
              "internalType": "string",
              "name": "lastName",
              "type": "string"
            },
            {
              "internalType": "uint256",
              "name": "dob",
              "type": "uint256"
            },
            {
              "internalType": "string",
              "name": "sex",
              "type": "string"
            },
            {
              "internalType": "string",
              "name": "height",
              "type": "string"
            },
            {
              "internalType": "string",
              "name": "eyes",
              "type": "string"
            },
            {
              "internalType": "string",
              "name": "addressLineOne",
              "type": "string"
            },
            {
              "internalType": "string",
              "name": "city",
              "type": "string"
            },
            {
              "internalType": "string",
              "name": "state",
              "type": "string"
            },
            {
              "internalType": "string",
              "name": "zip",
              "type": "string"
            }
          ],
          "indexed": false,
          "internalType": "struct DriverFactory.Account",
          "name": "account",
          "type": "tuple"
        }
      ],
      "name": "DriverReturned",
      "type": "event"
    },
    {
      "anonymous": false,
      "inputs": [
        {
          "indexed": false,
          "internalType": "address",
          "name": "walletAddress",
          "type": "address"
        },
        {
          "components": [
            {
              "internalType": "string",
              "name": "firstName",
              "type": "string"
            },
            {
              "internalType": "string",
              "name": "middleInitial",
              "type": "string"
            },
            {
              "internalType": "string",
              "name": "lastName",
              "type": "string"
            },
            {
              "internalType": "uint256",
              "name": "dob",
              "type": "uint256"
            },
            {
              "internalType": "string",
              "name": "sex",
              "type": "string"
            },
            {
              "internalType": "string",
              "name": "height",
              "type": "string"
            },
            {
              "internalType": "string",
              "name": "eyes",
              "type": "string"
            },
            {
              "internalType": "string",
              "name": "addressLineOne",
              "type": "string"
            },
            {
              "internalType": "string",
              "name": "city",
              "type": "string"
            },
            {
              "internalType": "string",
              "name": "state",
              "type": "string"
            },
            {
              "internalType": "string",
              "name": "zip",
              "type": "string"
            }
          ],
          "indexed": false,
          "internalType": "struct DriverFactory.Account",
          "name": "account",
          "type": "tuple"
        }
      ],
      "name": "DriverSet",
      "type": "event"
    },
    {
      "anonymous": false,
      "inputs": [
        {
          "indexed": false,
          "internalType": "address",
          "name": "walletAddress",
          "type": "address"
        },
        {
          "indexed": false,
          "internalType": "string",
          "name": "licenseNumber",
          "type": "string"
        }
      ],
      "name": "LicenseAdded",
      "type": "event"
    },
    {
      "anonymous": false,
      "inputs": [
        {
          "indexed": false,
          "internalType": "address",
          "name": "walletAddress",
          "type": "address"
        },
        {
          "components": [
            {
              "internalType": "string",
              "name": "licenseNumber",
              "type": "string"
            },
            {
              "internalType": "uint256",
              "name": "issued",
              "type": "uint256"
            },
            {
              "internalType": "uint256",
              "name": "exp",
              "type": "uint256"
            },
            {
              "internalType": "string",
              "name": "cl",
              "type": "string"
            },
            {
              "internalType": "string",
              "name": "end",
              "type": "string"
            },
            {
              "internalType": "string",
              "name": "restr",
              "type": "string"
            }
          ],
          "indexed": false,
          "internalType": "struct LicenseFactory.License[]",
          "name": "licenseNumber",
          "type": "tuple[]"
        }
      ],
      "name": "LicenseListReturned",
      "type": "event"
    },
    {
      "anonymous": false,
      "inputs": [
        {
          "indexed": false,
          "internalType": "address",
          "name": "walletAddress",
          "type": "address"
        },
        {
          "indexed": false,
          "internalType": "string",
          "name": "licenseNumber",
          "type": "string"
        },
        {
          "indexed": false,
          "internalType": "string",
          "name": "plateNumber",
          "type": "string"
        },
        {
          "indexed": false,
          "internalType": "string",
          "name": "vin",
          "type": "string"
        }
      ],
      "name": "VehicleAdded",
      "type": "event"
    },
    {
      "anonymous": false,
      "inputs": [
        {
          "indexed": false,
          "internalType": "address",
          "name": "walletAddress",
          "type": "address"
        }
      ],
      "name": "VehicleReturned",
      "type": "event"
    },
    {
      "constant": true,
      "inputs": [
        {
          "internalType": "address",
          "name": "",
          "type": "address"
        }
      ],
      "name": "account",
      "outputs": [
        {
          "internalType": "string",
          "name": "firstName",
          "type": "string"
        },
        {
          "internalType": "string",
          "name": "middleInitial",
          "type": "string"
        },
        {
          "internalType": "string",
          "name": "lastName",
          "type": "string"
        },
        {
          "internalType": "uint256",
          "name": "dob",
          "type": "uint256"
        },
        {
          "internalType": "string",
          "name": "sex",
          "type": "string"
        },
        {
          "internalType": "string",
          "name": "height",
          "type": "string"
        },
        {
          "internalType": "string",
          "name": "eyes",
          "type": "string"
        },
        {
          "internalType": "string",
          "name": "addressLineOne",
          "type": "string"
        },
        {
          "internalType": "string",
          "name": "city",
          "type": "string"
        },
        {
          "internalType": "string",
          "name": "state",
          "type": "string"
        },
        {
          "internalType": "string",
          "name": "zip",
          "type": "string"
        }
      ],
      "payable": false,
      "stateMutability": "view",
      "type": "function"
    },
    {
      "constant": false,
      "inputs": [],
      "name": "getAccount",
      "outputs": [
        {
          "components": [
            {
              "internalType": "string",
              "name": "firstName",
              "type": "string"
            },
            {
              "internalType": "string",
              "name": "middleInitial",
              "type": "string"
            },
            {
              "internalType": "string",
              "name": "lastName",
              "type": "string"
            },
            {
              "internalType": "uint256",
              "name": "dob",
              "type": "uint256"
            },
            {
              "internalType": "string",
              "name": "sex",
              "type": "string"
            },
            {
              "internalType": "string",
              "name": "height",
              "type": "string"
            },
            {
              "internalType": "string",
              "name": "eyes",
              "type": "string"
            },
            {
              "internalType": "string",
              "name": "addressLineOne",
              "type": "string"
            },
            {
              "internalType": "string",
              "name": "city",
              "type": "string"
            },
            {
              "internalType": "string",
              "name": "state",
              "type": "string"
            },
            {
              "internalType": "string",
              "name": "zip",
              "type": "string"
            }
          ],
          "internalType": "struct DriverFactory.Account",
          "name": "",
          "type": "tuple"
        }
      ],
      "payable": false,
      "stateMutability": "nonpayable",
      "type": "function"
    },
    {
      "constant": false,
      "inputs": [],
      "name": "getLicense",
      "outputs": [
        {
          "components": [
            {
              "internalType": "string",
              "name": "licenseNumber",
              "type": "string"
            },
            {
              "internalType": "uint256",
              "name": "issued",
              "type": "uint256"
            },
            {
              "internalType": "uint256",
              "name": "exp",
              "type": "uint256"
            },
            {
              "internalType": "string",
              "name": "cl",
              "type": "string"
            },
            {
              "internalType": "string",
              "name": "end",
              "type": "string"
            },
            {
              "internalType": "string",
              "name": "restr",
              "type": "string"
            }
          ],
          "internalType": "struct LicenseFactory.License[]",
          "name": "",
          "type": "tuple[]"
        }
      ],
      "payable": false,
      "stateMutability": "nonpayable",
      "type": "function"
    },
    {
      "constant": true,
      "inputs": [
        {
          "internalType": "address",
          "name": "",
          "type": "address"
        }
      ],
      "name": "hasAccount",
      "outputs": [
        {
          "internalType": "bool",
          "name": "",
          "type": "bool"
        }
      ],
      "payable": false,
      "stateMutability": "view",
      "type": "function"
    },
    {
      "constant": false,
      "inputs": [
        {
          "internalType": "string",
          "name": "_first",
          "type": "string"
        },
        {
          "internalType": "string",
          "name": "_midInit",
          "type": "string"
        },
        {
          "internalType": "string",
          "name": "_last",
          "type": "string"
        },
        {
          "internalType": "uint256",
          "name": "_dob",
          "type": "uint256"
        },
        {
          "internalType": "string",
          "name": "_sx",
          "type": "string"
        },
        {
          "internalType": "string",
          "name": "_ht",
          "type": "string"
        },
        {
          "internalType": "string",
          "name": "_eyeColor",
          "type": "string"
        },
        {
          "internalType": "string",
          "name": "_addressLineOne",
          "type": "string"
        },
        {
          "internalType": "string",
          "name": "_city",
          "type": "string"
        },
        {
          "internalType": "string",
          "name": "_state",
          "type": "string"
        },
        {
          "internalType": "string",
          "name": "_zip",
          "type": "string"
        }
      ],
      "name": "setAccount",
      "outputs": [],
      "payable": false,
      "stateMutability": "nonpayable",
      "type": "function"
    },
    {
      "constant": false,
      "inputs": [
        {
          "internalType": "string",
          "name": "_licNum",
          "type": "string"
        },
        {
          "internalType": "uint256",
          "name": "_licIssued",
          "type": "uint256"
        },
        {
          "internalType": "uint256",
          "name": "_licExp",
          "type": "uint256"
        },
        {
          "internalType": "string",
          "name": "_licClass",
          "type": "string"
        },
        {
          "internalType": "string",
          "name": "_licEnd",
          "type": "string"
        },
        {
          "internalType": "string",
          "name": "_licRestr",
          "type": "string"
        }
      ],
      "name": "setLicense",
      "outputs": [],
      "payable": false,
      "stateMutability": "nonpayable",
      "type": "function"
    },
    {
      "constant": false,
      "inputs": [
        {
          "internalType": "string",
          "name": "_licNumber",
          "type": "string"
        },
        {
          "internalType": "string",
          "name": "_plateNumber",
          "type": "string"
        },
        {
          "internalType": "string",
          "name": "_vin",
          "type": "string"
        },
        {
          "internalType": "uint256",
          "name": "_goodThru",
          "type": "uint256"
        },
        {
          "internalType": "string",
          "name": "_make",
          "type": "string"
        },
        {
          "internalType": "uint256",
          "name": "_year",
          "type": "uint256"
        },
        {
          "internalType": "string",
          "name": "_carType",
          "type": "string"
        },
        {
          "internalType": "string",
          "name": "_model",
          "type": "string"
        },
        {
          "internalType": "string",
          "name": "_color",
          "type": "string"
        }
      ],
      "name": "setRegistration",
      "outputs": [],
      "payable": false,
      "stateMutability": "nonpayable",
      "type": "function"
    },
    {
      "constant": false,
      "inputs": [],
      "name": "getRegisteredVehicles",
      "outputs": [
        {
          "components": [
            {
              "internalType": "string",
              "name": "licenseNum",
              "type": "string"
            },
            {
              "internalType": "string",
              "name": "plateNumber",
              "type": "string"
            },
            {
              "internalType": "string",
              "name": "vin",
              "type": "string"
            },
            {
              "internalType": "uint256",
              "name": "goodThru",
              "type": "uint256"
            },
            {
              "internalType": "string",
              "name": "make",
              "type": "string"
            },
            {
              "internalType": "uint256",
              "name": "year",
              "type": "uint256"
            },
            {
              "internalType": "string",
              "name": "carType",
              "type": "string"
            },
            {
              "internalType": "string",
              "name": "model",
              "type": "string"
            },
            {
              "internalType": "string",
              "name": "color",
              "type": "string"
            }
          ],
          "internalType": "struct RegistrationFactory.Registration[]",
          "name": "",
          "type": "tuple[]"
        }
      ],
      "payable": false,
      "stateMutability": "nonpayable",
      "type": "function"
    }
  ],
  "bytecode": "0x60806040526000600160003373ffffffffffffffffffffffffffffffffffffffff1673ffffffffffffffffffffffffffffffffffffffff16815260200190815260200160002060006101000a81548160ff0219169083151502179055506134c58061006b6000396000f3fe608060405234801561001057600080fd5b50600436106100885760003560e01c8063c5e4dd821161005b578063c5e4dd821461011d578063c8e40fbf1461013b578063db613e811461016b578063fb0160561461018957610088565b806335e0af4c1461008d5780635a33d667146100a957806373b9aa91146100c557806379d27086146100ff575b600080fd5b6100a760048036036100a291908101906122a8565b6101a5565b005b6100c360048036036100be91908101906125f6565b610451565b005b6100df60048036036100da919081019061227f565b610647565b6040516100f69b9a999897969594939291906130ba565b60405180910390f35b610107610c91565b604051610114919061307d565b60405180910390f35b61012561127a565b604051610132919061305b565b60405180910390f35b6101556004803603610150919081019061227f565b6116bc565b604051610162919061309f565b60405180910390f35b6101736116dc565b60405161018091906131eb565b60405180910390f35b6101a3600480360361019e9190810190612488565b611e9a565b005b60001515600160003373ffffffffffffffffffffffffffffffffffffffff1673ffffffffffffffffffffffffffffffffffffffff16815260200190815260200160002060009054906101000a900460ff16151514610238576040517f08c379a000000000000000000000000000000000000000000000000000000000815260040161022f906131cb565b60405180910390fd5b6040518061016001604052808c81526020018b81526020018a8152602001898152602001888152602001878152602001868152602001858152602001848152602001838152602001828152506000803373ffffffffffffffffffffffffffffffffffffffff1673ffffffffffffffffffffffffffffffffffffffff16815260200190815260200160002060008201518160000190805190602001906102de929190612102565b5060208201518160010190805190602001906102fb929190612102565b506040820151816002019080519060200190610318929190612102565b5060608201518160030155608082015181600401908051906020019061033f929190612102565b5060a082015181600501908051906020019061035c929190612102565b5060c0820151816006019080519060200190610379929190612102565b5060e0820151816007019080519060200190610396929190612102565b506101008201518160080190805190602001906103b4929190612102565b506101208201518160090190805190602001906103d2929190612102565b5061014082015181600a0190805190602001906103f0929190612102565b5090505060011515600160003373ffffffffffffffffffffffffffffffffffffffff1673ffffffffffffffffffffffffffffffffffffffff16815260200190815260200160002060009054906101000a905050505050505050505050505050565b60011515600160003373ffffffffffffffffffffffffffffffffffffffff1673ffffffffffffffffffffffffffffffffffffffff16815260200190815260200160002060009054906101000a900460ff161515146104e4576040517f08c379a00000000000000000000000000000000000000000000000000000000081526004016104db906131ab565b60405180910390fd5b7fa0d8c398d30fd0147d57089b54c3519605ada1a237f683aa9199404bf5ad93503387604051610515929190612fa1565b60405180910390a1600260003373ffffffffffffffffffffffffffffffffffffffff1673ffffffffffffffffffffffffffffffffffffffff1681526020019081526020016000206040518060c00160405280888152602001878152602001868152602001858152602001848152602001838152509080600181540180825580915050906001820390600052602060002090600602016000909192909190915060008201518160000190805190602001906105d0929190612102565b5060208201518160010155604082015181600201556060820151816003019080519060200190610601929190612102565b50608082015181600401908051906020019061061e929190612102565b5060a082015181600501908051906020019061063b929190612102565b50505050505050505050565b6000602052806000526040600020600091509050806000018054600181600116156101000203166002900480601f0160208091040260200160405190810160405280929190818152602001828054600181600116156101000203166002900480156106f35780601f106106c8576101008083540402835291602001916106f3565b820191906000526020600020905b8154815290600101906020018083116106d657829003601f168201915b505050505090806001018054600181600116156101000203166002900480601f0160208091040260200160405190810160405280929190818152602001828054600181600116156101000203166002900480156107915780601f1061076657610100808354040283529160200191610791565b820191906000526020600020905b81548152906001019060200180831161077457829003601f168201915b505050505090806002018054600181600116156101000203166002900480601f01602080910402602001604051908101604052809291908181526020018280546001816001161561010002031660029004801561082f5780601f106108045761010080835404028352916020019161082f565b820191906000526020600020905b81548152906001019060200180831161081257829003601f168201915b505050505090806003015490806004018054600181600116156101000203166002900480601f0160208091040260200160405190810160405280929190818152602001828054600181600116156101000203166002900480156108d35780601f106108a8576101008083540402835291602001916108d3565b820191906000526020600020905b8154815290600101906020018083116108b657829003601f168201915b505050505090806005018054600181600116156101000203166002900480601f0160208091040260200160405190810160405280929190818152602001828054600181600116156101000203166002900480156109715780601f1061094657610100808354040283529160200191610971565b820191906000526020600020905b81548152906001019060200180831161095457829003601f168201915b505050505090806006018054600181600116156101000203166002900480601f016020809104026020016040519081016040528092919081815260200182805460018160011615610100020316600290048015610a0f5780601f106109e457610100808354040283529160200191610a0f565b820191906000526020600020905b8154815290600101906020018083116109f257829003601f168201915b505050505090806007018054600181600116156101000203166002900480601f016020809104026020016040519081016040528092919081815260200182805460018160011615610100020316600290048015610aad5780601f10610a8257610100808354040283529160200191610aad565b820191906000526020600020905b815481529060010190602001808311610a9057829003601f168201915b505050505090806008018054600181600116156101000203166002900480601f016020809104026020016040519081016040528092919081815260200182805460018160011615610100020316600290048015610b4b5780601f10610b2057610100808354040283529160200191610b4b565b820191906000526020600020905b815481529060010190602001808311610b2e57829003601f168201915b505050505090806009018054600181600116156101000203166002900480601f016020809104026020016040519081016040528092919081815260200182805460018160011615610100020316600290048015610be95780601f10610bbe57610100808354040283529160200191610be9565b820191906000526020600020905b815481529060010190602001808311610bcc57829003601f168201915b50505050509080600a018054600181600116156101000203166002900480601f016020809104026020016040519081016040528092919081815260200182805460018160011615610100020316600290048015610c875780601f10610c5c57610100808354040283529160200191610c87565b820191906000526020600020905b815481529060010190602001808311610c6a57829003601f168201915b505050505090508b565b606060011515600160003373ffffffffffffffffffffffffffffffffffffffff1673ffffffffffffffffffffffffffffffffffffffff16815260200190815260200160002060009054906101000a900460ff16151514610d26576040517f08c379a0000000000000000000000000000000000000000000000000000000008152600401610d1d906131ab565b60405180910390fd5b7f7d038358fee8b1305406b7642719438eb883908731260b9e66a4b535c8f8aa0d33604051610d559190612f56565b60405180910390a1600360003373ffffffffffffffffffffffffffffffffffffffff1673ffffffffffffffffffffffffffffffffffffffff168152602001908152602001600020805480602002602001604051908101604052809291908181526020016000905b82821015611271578382906000526020600020906009020160405180610120016040529081600082018054600181600116156101000203166002900480601f016020809104026020016040519081016040528092919081815260200182805460018160011615610100020316600290048015610e795780601f10610e4e57610100808354040283529160200191610e79565b820191906000526020600020905b815481529060010190602001808311610e5c57829003601f168201915b50505050508152602001600182018054600181600116156101000203166002900480601f016020809104026020016040519081016040528092919081815260200182805460018160011615610100020316600290048015610f1b5780601f10610ef057610100808354040283529160200191610f1b565b820191906000526020600020905b815481529060010190602001808311610efe57829003601f168201915b50505050508152602001600282018054600181600116156101000203166002900480601f016020809104026020016040519081016040528092919081815260200182805460018160011615610100020316600290048015610fbd5780601f10610f9257610100808354040283529160200191610fbd565b820191906000526020600020905b815481529060010190602001808311610fa057829003601f168201915b5050505050815260200160038201548152602001600482018054600181600116156101000203166002900480601f0160208091040260200160405190810160405280929190818152602001828054600181600116156101000203166002900480156110695780601f1061103e57610100808354040283529160200191611069565b820191906000526020600020905b81548152906001019060200180831161104c57829003601f168201915b5050505050815260200160058201548152602001600682018054600181600116156101000203166002900480601f0160208091040260200160405190810160405280929190818152602001828054600181600116156101000203166002900480156111155780601f106110ea57610100808354040283529160200191611115565b820191906000526020600020905b8154815290600101906020018083116110f857829003601f168201915b50505050508152602001600782018054600181600116156101000203166002900480601f0160208091040260200160405190810160405280929190818152602001828054600181600116156101000203166002900480156111b75780601f1061118c576101008083540402835291602001916111b7565b820191906000526020600020905b81548152906001019060200180831161119a57829003601f168201915b50505050508152602001600882018054600181600116156101000203166002900480601f0160208091040260200160405190810160405280929190818152602001828054600181600116156101000203166002900480156112595780601f1061122e57610100808354040283529160200191611259565b820191906000526020600020905b81548152906001019060200180831161123c57829003601f168201915b50505050508152505081526020019060010190610dbc565b50505050905090565b606060011515600160003373ffffffffffffffffffffffffffffffffffffffff1673ffffffffffffffffffffffffffffffffffffffff16815260200190815260200160002060009054906101000a900460ff1615151461130f576040517f08c379a0000000000000000000000000000000000000000000000000000000008152600401611306906131ab565b60405180910390fd5b7ffad9d45e54d012fb78096a6fa7b92a4ad136b1fa62e6c8b5aa39294022dc564e33600260003373ffffffffffffffffffffffffffffffffffffffff1673ffffffffffffffffffffffffffffffffffffffff16815260200190815260200160002060405161137e929190612f71565b60405180910390a1600260003373ffffffffffffffffffffffffffffffffffffffff1673ffffffffffffffffffffffffffffffffffffffff168152602001908152602001600020805480602002602001604051908101604052809291908181526020016000905b828210156116b357838290600052602060002090600602016040518060c0016040529081600082018054600181600116156101000203166002900480601f0160208091040260200160405190810160405280929190818152602001828054600181600116156101000203166002900480156114a15780601f10611476576101008083540402835291602001916114a1565b820191906000526020600020905b81548152906001019060200180831161148457829003601f168201915b505050505081526020016001820154815260200160028201548152602001600382018054600181600116156101000203166002900480601f0160208091040260200160405190810160405280929190818152602001828054600181600116156101000203166002900480156115575780601f1061152c57610100808354040283529160200191611557565b820191906000526020600020905b81548152906001019060200180831161153a57829003601f168201915b50505050508152602001600482018054600181600116156101000203166002900480601f0160208091040260200160405190810160405280929190818152602001828054600181600116156101000203166002900480156115f95780601f106115ce576101008083540402835291602001916115f9565b820191906000526020600020905b8154815290600101906020018083116115dc57829003601f168201915b50505050508152602001600582018054600181600116156101000203166002900480601f01602080910402602001604051908101604052809291908181526020018280546001816001161561010002031660029004801561169b5780601f106116705761010080835404028352916020019161169b565b820191906000526020600020905b81548152906001019060200180831161167e57829003601f168201915b505050505081525050815260200190600101906113e5565b50505050905090565b60016020528060005260406000206000915054906101000a900460ff1681565b6116e4612182565b60011515600160003373ffffffffffffffffffffffffffffffffffffffff1673ffffffffffffffffffffffffffffffffffffffff16815260200190815260200160002060009054906101000a900460ff16151514611777576040517f08c379a000000000000000000000000000000000000000000000000000000000815260040161176e906131ab565b60405180910390fd5b7f07f82f11950654413668f96f23437566482859b4074abd60ad2cd84e50bdc3fb336000803373ffffffffffffffffffffffffffffffffffffffff1673ffffffffffffffffffffffffffffffffffffffff1681526020019081526020016000206040516117e592919061302b565b60405180910390a16000803373ffffffffffffffffffffffffffffffffffffffff1673ffffffffffffffffffffffffffffffffffffffff16815260200190815260200160002060405180610160016040529081600082018054600181600116156101000203166002900480601f0160208091040260200160405190810160405280929190818152602001828054600181600116156101000203166002900480156118d05780601f106118a5576101008083540402835291602001916118d0565b820191906000526020600020905b8154815290600101906020018083116118b357829003601f168201915b50505050508152602001600182018054600181600116156101000203166002900480601f0160208091040260200160405190810160405280929190818152602001828054600181600116156101000203166002900480156119725780601f1061194757610100808354040283529160200191611972565b820191906000526020600020905b81548152906001019060200180831161195557829003601f168201915b50505050508152602001600282018054600181600116156101000203166002900480601f016020809104026020016040519081016040528092919081815260200182805460018160011615610100020316600290048015611a145780601f106119e957610100808354040283529160200191611a14565b820191906000526020600020905b8154815290600101906020018083116119f757829003601f168201915b5050505050815260200160038201548152602001600482018054600181600116156101000203166002900480601f016020809104026020016040519081016040528092919081815260200182805460018160011615610100020316600290048015611ac05780601f10611a9557610100808354040283529160200191611ac0565b820191906000526020600020905b815481529060010190602001808311611aa357829003601f168201915b50505050508152602001600582018054600181600116156101000203166002900480601f016020809104026020016040519081016040528092919081815260200182805460018160011615610100020316600290048015611b625780601f10611b3757610100808354040283529160200191611b62565b820191906000526020600020905b815481529060010190602001808311611b4557829003601f168201915b50505050508152602001600682018054600181600116156101000203166002900480601f016020809104026020016040519081016040528092919081815260200182805460018160011615610100020316600290048015611c045780601f10611bd957610100808354040283529160200191611c04565b820191906000526020600020905b815481529060010190602001808311611be757829003601f168201915b50505050508152602001600782018054600181600116156101000203166002900480601f016020809104026020016040519081016040528092919081815260200182805460018160011615610100020316600290048015611ca65780601f10611c7b57610100808354040283529160200191611ca6565b820191906000526020600020905b815481529060010190602001808311611c8957829003601f168201915b50505050508152602001600882018054600181600116156101000203166002900480601f016020809104026020016040519081016040528092919081815260200182805460018160011615610100020316600290048015611d485780601f10611d1d57610100808354040283529160200191611d48565b820191906000526020600020905b815481529060010190602001808311611d2b57829003601f168201915b50505050508152602001600982018054600181600116156101000203166002900480601f016020809104026020016040519081016040528092919081815260200182805460018160011615610100020316600290048015611dea5780601f10611dbf57610100808354040283529160200191611dea565b820191906000526020600020905b815481529060010190602001808311611dcd57829003601f168201915b50505050508152602001600a82018054600181600116156101000203166002900480601f016020809104026020016040519081016040528092919081815260200182805460018160011615610100020316600290048015611e8c5780601f10611e6157610100808354040283529160200191611e8c565b820191906000526020600020905b815481529060010190602001808311611e6f57829003601f168201915b505050505081525050905090565b60011515600160003373ffffffffffffffffffffffffffffffffffffffff1673ffffffffffffffffffffffffffffffffffffffff16815260200190815260200160002060009054906101000a900460ff16151514611f2d576040517f08c379a0000000000000000000000000000000000000000000000000000000008152600401611f24906131ab565b60405180910390fd5b7faaa8ca530e7e6f3bf34935415a78c18270ec7aa1d317f1d49e56720e54434372338a8a8a604051611f629493929190612fd1565b60405180910390a1600360003373ffffffffffffffffffffffffffffffffffffffff1673ffffffffffffffffffffffffffffffffffffffff1681526020019081526020016000206040518061012001604052808b81526020018a815260200189815260200188815260200187815260200186815260200185815260200184815260200183815250908060018154018082558091505090600182039060005260206000209060090201600090919290919091506000820151816000019080519060200190612030929190612102565b50602082015181600101908051906020019061204d929190612102565b50604082015181600201908051906020019061206a929190612102565b50606082015181600301556080820151816004019080519060200190612091929190612102565b5060a0820151816005015560c08201518160060190805190602001906120b8929190612102565b5060e08201518160070190805190602001906120d5929190612102565b506101008201518160080190805190602001906120f3929190612102565b50505050505050505050505050565b828054600181600116156101000203166002900490600052602060002090601f016020900481019282601f1061214357805160ff1916838001178555612171565b82800160010185558215612171579182015b82811115612170578251825591602001919060010190612155565b5b50905061217e91906121dc565b5090565b60405180610160016040528060608152602001606081526020016060815260200160008152602001606081526020016060815260200160608152602001606081526020016060815260200160608152602001606081525090565b6121fe91905b808211156121fa5760008160009055506001016121e2565b5090565b90565b60008135905061221081613454565b92915050565b600082601f83011261222757600080fd5b813561223a6122358261323a565b61320d565b9150808252602083016020830185838301111561225657600080fd5b6122618382846133da565b50505092915050565b6000813590506122798161346b565b92915050565b60006020828403121561229157600080fd5b600061229f84828501612201565b91505092915050565b60008060008060008060008060008060006101608c8e0312156122ca57600080fd5b60008c013567ffffffffffffffff8111156122e457600080fd5b6122f08e828f01612216565b9b505060208c013567ffffffffffffffff81111561230d57600080fd5b6123198e828f01612216565b9a505060408c013567ffffffffffffffff81111561233657600080fd5b6123428e828f01612216565b99505060606123538e828f0161226a565b98505060808c013567ffffffffffffffff81111561237057600080fd5b61237c8e828f01612216565b97505060a08c013567ffffffffffffffff81111561239957600080fd5b6123a58e828f01612216565b96505060c08c013567ffffffffffffffff8111156123c257600080fd5b6123ce8e828f01612216565b95505060e08c013567ffffffffffffffff8111156123eb57600080fd5b6123f78e828f01612216565b9450506101008c013567ffffffffffffffff81111561241557600080fd5b6124218e828f01612216565b9350506101208c013567ffffffffffffffff81111561243f57600080fd5b61244b8e828f01612216565b9250506101408c013567ffffffffffffffff81111561246957600080fd5b6124758e828f01612216565b9150509295989b509295989b9093969950565b60008060008060008060008060006101208a8c0312156124a757600080fd5b60008a013567ffffffffffffffff8111156124c157600080fd5b6124cd8c828d01612216565b99505060208a013567ffffffffffffffff8111156124ea57600080fd5b6124f68c828d01612216565b98505060408a013567ffffffffffffffff81111561251357600080fd5b61251f8c828d01612216565b97505060606125308c828d0161226a565b96505060808a013567ffffffffffffffff81111561254d57600080fd5b6125598c828d01612216565b95505060a061256a8c828d0161226a565b94505060c08a013567ffffffffffffffff81111561258757600080fd5b6125938c828d01612216565b93505060e08a013567ffffffffffffffff8111156125b057600080fd5b6125bc8c828d01612216565b9250506101008a013567ffffffffffffffff8111156125da57600080fd5b6125e68c828d01612216565b9150509295985092959850929598565b60008060008060008060c0878903121561260f57600080fd5b600087013567ffffffffffffffff81111561262957600080fd5b61263589828a01612216565b965050602061264689828a0161226a565b955050604061265789828a0161226a565b945050606087013567ffffffffffffffff81111561267457600080fd5b61268089828a01612216565b935050608087013567ffffffffffffffff81111561269d57600080fd5b6126a989828a01612216565b92505060a087013567ffffffffffffffff8111156126c657600080fd5b6126d289828a01612216565b9150509295509295509295565b60006126eb8383612cf9565b905092915050565b60006126ff8383612d97565b905092915050565b60006127138383612e49565b905092915050565b612724816133a4565b82525050565b6000612735826132b0565b61273f818561330e565b93508360208202850161275185613266565b8060005b8581101561278d578484038952815161276e85826126df565b9450612779836132e7565b925060208a01995050600181019050612755565b50829750879550505050505092915050565b60006127aa826132bb565b6127b4818561330e565b9350836020820285016127c685613276565b8060005b85811015612801578484038952816127e285826126f3565b94506127ed836132f4565b925060208a019950506001810190506127ca565b50829750879550505050505092915050565b600061281e826132c6565b612828818561331f565b93508360208202850161283a8561328b565b8060005b8581101561287657848403895281516128578582612707565b945061286283613301565b925060208a0199505060018101905061283e565b50829750879550505050505092915050565b6128918161336e565b82525050565b60006128a2826132dc565b6128ac8185613341565b93506128bc8185602086016133e9565b6128c581613436565b840191505092915050565b60006128db826132d1565b6128e58185613330565b93506128f58185602086016133e9565b6128fe81613436565b840191505092915050565b6000612914826132d1565b61291e8185613341565b935061292e8185602086016133e9565b61293781613436565b840191505092915050565b60008154600181166000811461295f5760018114612985576129c9565b607f60028304166129708187613330565b955060ff1983168652602086019350506129c9565b600282046129938187613330565b955061299e8561329b565b60005b828110156129c0578154818901526001820191506020810190506129a1565b80880195505050505b505092915050565b60006129de602783613341565b91507f4163636f756e74206d757374206265206372656174656420666f72207468697360008301527f20667574757265000000000000000000000000000000000000000000000000006020830152604082019050919050565b6000612a44602283613341565b91507f55736572732063616e206f6e6c7920637265617465206f6e652070726f66696c60008301527f65210000000000000000000000000000000000000000000000000000000000006020830152604082019050919050565b6000610160830160008301518482036000860152612abb82826128d0565b91505060208301518482036020860152612ad582826128d0565b91505060408301518482036040860152612aef82826128d0565b9150506060830151612b046060860182612f38565b5060808301518482036080860152612b1c82826128d0565b91505060a083015184820360a0860152612b3682826128d0565b91505060c083015184820360c0860152612b5082826128d0565b91505060e083015184820360e0860152612b6a82826128d0565b915050610100830151848203610100860152612b8682826128d0565b915050610120830151848203610120860152612ba282826128d0565b915050610140830151848203610140860152612bbe82826128d0565b9150508091505092915050565b6000610160830160008084018583036000870152612be98382612942565b925050600184018583036020870152612c028382612942565b925050600284018583036040870152612c1b8382612942565b92505060038401549050612c2e8161341c565b612c3b6060870182612f38565b50600484018583036080870152612c528382612942565b9250506005840185830360a0870152612c6b8382612942565b9250506006840185830360c0870152612c848382612942565b9250506007840185830360e0870152612c9d8382612942565b92505060088401858303610100870152612cb78382612942565b92505060098401858303610120870152612cd18382612942565b925050600a8401858303610140870152612ceb8382612942565b925050819250505092915050565b600060c0830160008301518482036000860152612d1682826128d0565b9150506020830151612d2b6020860182612f38565b506040830151612d3e6040860182612f38565b5060608301518482036060860152612d5682826128d0565b91505060808301518482036080860152612d7082826128d0565b91505060a083015184820360a0860152612d8a82826128d0565b9150508091505092915050565b600060c0830160008084018583036000870152612db48382612942565b92505060018401549050612dc78161341c565b612dd46020870182612f38565b5060028401549050612de58161341c565b612df26040870182612f38565b50600384018583036060870152612e098382612942565b925050600484018583036080870152612e228382612942565b9250506005840185830360a0870152612e3b8382612942565b925050819250505092915050565b6000610120830160008301518482036000860152612e6782826128d0565b91505060208301518482036020860152612e8182826128d0565b91505060408301518482036040860152612e9b82826128d0565b9150506060830151612eb06060860182612f38565b5060808301518482036080860152612ec882826128d0565b91505060a0830151612edd60a0860182612f38565b5060c083015184820360c0860152612ef582826128d0565b91505060e083015184820360e0860152612f0f82826128d0565b915050610100830151848203610100860152612f2b82826128d0565b9150508091505092915050565b612f418161339a565b82525050565b612f508161339a565b82525050565b6000602082019050612f6b600083018461271b565b92915050565b6000604082019050612f86600083018561271b565b8181036020830152612f98818461279f565b90509392505050565b6000604082019050612fb6600083018561271b565b8181036020830152612fc88184612897565b90509392505050565b6000608082019050612fe6600083018761271b565b8181036020830152612ff88186612897565b9050818103604083015261300c8185612897565b905081810360608301526130208184612897565b905095945050505050565b6000604082019050613040600083018561271b565b81810360208301526130528184612bcb565b90509392505050565b60006020820190508181036000830152613075818461272a565b905092915050565b600060208201905081810360008301526130978184612813565b905092915050565b60006020820190506130b46000830184612888565b92915050565b60006101608201905081810360008301526130d5818e612909565b905081810360208301526130e9818d612909565b905081810360408301526130fd818c612909565b905061310c606083018b612f47565b818103608083015261311e818a612909565b905081810360a08301526131328189612909565b905081810360c08301526131468188612909565b905081810360e083015261315a8187612909565b905081810361010083015261316f8186612909565b90508181036101208301526131848185612909565b90508181036101408301526131998184612909565b90509c9b505050505050505050505050565b600060208201905081810360008301526131c4816129d1565b9050919050565b600060208201905081810360008301526131e481612a37565b9050919050565b600060208201905081810360008301526132058184612a9d565b905092915050565b6000604051905081810181811067ffffffffffffffff8211171561323057600080fd5b8060405250919050565b600067ffffffffffffffff82111561325157600080fd5b601f19601f8301169050602081019050919050565b6000819050602082019050919050565b60008190508160005260206000209050919050565b6000819050602082019050919050565b60008190508160005260206000209050919050565b600081519050919050565b600081549050919050565b600081519050919050565b600081519050919050565b600081519050919050565b6000602082019050919050565b6000600682019050919050565b6000602082019050919050565b600082825260208201905092915050565b600082825260208201905092915050565b600082825260208201905092915050565b600082825260208201905092915050565b6000819050919050565b60006133678261337a565b9050919050565b60008115159050919050565b600073ffffffffffffffffffffffffffffffffffffffff82169050919050565b6000819050919050565b60006133af826133b6565b9050919050565b60006133c1826133c8565b9050919050565b60006133d38261337a565b9050919050565b82818337600083830152505050565b60005b838110156134075780820151818401526020810190506133ec565b83811115613416576000848401525b50505050565b600061342f61342a83613447565b613352565b9050919050565b6000601f19601f8301169050919050565b60008160001c9050919050565b61345d8161335c565b811461346857600080fd5b50565b6134748161339a565b811461347f57600080fd5b5056fea365627a7a7231582025a25ebb4255d5a983c006559a7de7e75b78e10e7e445e5386e9d3877a10dbd06c6578706572696d656e74616cf564736f6c63430005100040",
  "source": "// SPDX-License-Identifier: MIT\npragma solidity >=0.4.22 <0.9.0;\npragma experimental ABIEncoderV2;\nimport \"./LicenseFactory.sol\";\ncontract RegistrationFactory is LicenseFactory {\n\n  event VehicleAdded(address walletAddress, string licenseNumber, string plateNumber, string vin);\n  event VehicleReturned(address walletAddress);\n\n  mapping (address => Registration[]) registeredVehicles;\n\n  struct Registration {\n    string licenseNum;\n    string plateNumber;\n    string vin;\n    uint goodThru;\n    string make;\n    uint256 year;\n    string carType;\n    string model;\n    string color;\n  }\n\n\n  function setRegistration(\n    string memory _licNumber,\n    string memory _plateNumber,\n    string memory _vin,\n    uint _goodThru,\n    string memory _make,\n    uint _year,\n    string memory _carType,\n    string memory _model,\n    string memory _color\n    ) public registered {\n      emit VehicleAdded(msg.sender, _licNumber, _plateNumber, _vin);\n      registeredVehicles[msg.sender].push(Registration(\n        _licNumber,\n        _plateNumber,\n        _vin,\n        _goodThru,\n        _make,\n        _year,\n        _carType,\n        _model,\n        _color\n      ));\n  }\n\n  //Gets registration info\n  function getRegisteredVehicles() public registered returns (\n    Registration[] memory\n  ){\n    emit VehicleReturned(msg.sender);\n    return registeredVehicles[msg.sender];\n  }\n}",
  "sourcePath": "/Users/Marcus/Documents/Projects/dmvAppContracts/contracts/RegistrationFactory.sol",
  "compiler": {
    "name": "solc",
    "version": "0.5.16+commit.9c3226ce.Emscripten.clang"
  },
  "schemaVersion": "3.4.4",
  "updatedAt": "2022-02-17T21:16:30.185Z",
  "devdoc": {
    "methods": {}
  },
  "userdoc": {
    "methods": {}
  }
}