{
  "contractName": "RegistrationFactory",
  "abi": [
    {
      "anonymous": false,
      "inputs": [
        {
          "indexed": false,
          "internalType": "address",
          "name": "walletAddress",
          "type": "address"
        },
        {
          "indexed": false,
          "internalType": "uint256",
          "name": "userId",
          "type": "uint256"
        },
        {
          "indexed": false,
          "internalType": "string",
          "name": "firstName",
          "type": "string"
        },
        {
          "indexed": false,
          "internalType": "string",
          "name": "middleInitial",
          "type": "string"
        },
        {
          "indexed": false,
          "internalType": "string",
          "name": "lastName",
          "type": "string"
        },
        {
          "indexed": false,
          "internalType": "string",
          "name": "sex",
          "type": "string"
        },
        {
          "indexed": false,
          "internalType": "string",
          "name": "height",
          "type": "string"
        },
        {
          "indexed": false,
          "internalType": "string",
          "name": "eyes",
          "type": "string"
        }
      ],
      "name": "DriverGotten",
      "type": "event"
    },
    {
      "anonymous": false,
      "inputs": [
        {
          "indexed": false,
          "internalType": "address",
          "name": "walletAddress",
          "type": "address"
        },
        {
          "indexed": false,
          "internalType": "uint256",
          "name": "driverId",
          "type": "uint256"
        },
        {
          "indexed": false,
          "internalType": "string",
          "name": "firstName",
          "type": "string"
        },
        {
          "indexed": false,
          "internalType": "string",
          "name": "middleInitial",
          "type": "string"
        },
        {
          "indexed": false,
          "internalType": "string",
          "name": "lastName",
          "type": "string"
        },
        {
          "indexed": false,
          "internalType": "string",
          "name": "sex",
          "type": "string"
        },
        {
          "indexed": false,
          "internalType": "string",
          "name": "height",
          "type": "string"
        },
        {
          "indexed": false,
          "internalType": "string",
          "name": "eyes",
          "type": "string"
        }
      ],
      "name": "DriverSet",
      "type": "event"
    },
    {
      "anonymous": false,
      "inputs": [
        {
          "indexed": false,
          "internalType": "address",
          "name": "walletAddress",
          "type": "address"
        },
        {
          "indexed": false,
          "internalType": "uint256",
          "name": "driverId",
          "type": "uint256"
        },
        {
          "indexed": false,
          "internalType": "string",
          "name": "licenseNumber",
          "type": "string"
        }
      ],
      "name": "LicenseAdded",
      "type": "event"
    },
    {
      "anonymous": false,
      "inputs": [
        {
          "indexed": false,
          "internalType": "address",
          "name": "walletAddress",
          "type": "address"
        },
        {
          "indexed": false,
          "internalType": "uint256",
          "name": "driverId",
          "type": "uint256"
        },
        {
          "indexed": false,
          "internalType": "string",
          "name": "licenseNumber",
          "type": "string"
        }
      ],
      "name": "LicenseGotten",
      "type": "event"
    },
    {
      "anonymous": false,
      "inputs": [
        {
          "indexed": false,
          "internalType": "uint256",
          "name": "driverId",
          "type": "uint256"
        },
        {
          "indexed": false,
          "internalType": "string",
          "name": "licenseNumber",
          "type": "string"
        },
        {
          "indexed": false,
          "internalType": "string",
          "name": "plateNumber",
          "type": "string"
        }
      ],
      "name": "RegistrationAdded",
      "type": "event"
    },
    {
      "anonymous": false,
      "inputs": [
        {
          "indexed": false,
          "internalType": "string",
          "name": "plateNumber",
          "type": "string"
        },
        {
          "indexed": false,
          "internalType": "uint256",
          "name": "carYear",
          "type": "uint256"
        },
        {
          "indexed": false,
          "internalType": "string",
          "name": "carMake",
          "type": "string"
        },
        {
          "indexed": false,
          "internalType": "string",
          "name": "carModel",
          "type": "string"
        },
        {
          "indexed": false,
          "internalType": "string",
          "name": "carColor",
          "type": "string"
        }
      ],
      "name": "RegistrationGotten",
      "type": "event"
    },
    {
      "constant": true,
      "inputs": [
        {
          "internalType": "uint256",
          "name": "",
          "type": "uint256"
        }
      ],
      "name": "carFeatures",
      "outputs": [
        {
          "internalType": "uint256",
          "name": "driverId",
          "type": "uint256"
        },
        {
          "internalType": "string",
          "name": "make",
          "type": "string"
        },
        {
          "internalType": "uint256",
          "name": "year",
          "type": "uint256"
        },
        {
          "internalType": "string",
          "name": "carType",
          "type": "string"
        },
        {
          "internalType": "string",
          "name": "model",
          "type": "string"
        },
        {
          "internalType": "string",
          "name": "color",
          "type": "string"
        }
      ],
      "payable": false,
      "stateMutability": "view",
      "type": "function"
    },
    {
      "constant": true,
      "inputs": [
        {
          "internalType": "uint256",
          "name": "",
          "type": "uint256"
        }
      ],
      "name": "driverAddresses",
      "outputs": [
        {
          "internalType": "string",
          "name": "addressLineOne",
          "type": "string"
        },
        {
          "internalType": "string",
          "name": "city",
          "type": "string"
        },
        {
          "internalType": "string",
          "name": "state",
          "type": "string"
        },
        {
          "internalType": "string",
          "name": "zip",
          "type": "string"
        }
      ],
      "payable": false,
      "stateMutability": "view",
      "type": "function"
    },
    {
      "constant": true,
      "inputs": [
        {
          "internalType": "uint256",
          "name": "",
          "type": "uint256"
        }
      ],
      "name": "driverFeatures",
      "outputs": [
        {
          "internalType": "string",
          "name": "sex",
          "type": "string"
        },
        {
          "internalType": "string",
          "name": "height",
          "type": "string"
        },
        {
          "internalType": "string",
          "name": "eyes",
          "type": "string"
        }
      ],
      "payable": false,
      "stateMutability": "view",
      "type": "function"
    },
    {
      "constant": true,
      "inputs": [
        {
          "internalType": "uint256",
          "name": "",
          "type": "uint256"
        }
      ],
      "name": "driverNames",
      "outputs": [
        {
          "internalType": "string",
          "name": "firstName",
          "type": "string"
        },
        {
          "internalType": "string",
          "name": "middleInitial",
          "type": "string"
        },
        {
          "internalType": "string",
          "name": "lastName",
          "type": "string"
        }
      ],
      "payable": false,
      "stateMutability": "view",
      "type": "function"
    },
    {
      "constant": true,
      "inputs": [
        {
          "internalType": "uint256",
          "name": "",
          "type": "uint256"
        }
      ],
      "name": "driverToOwner",
      "outputs": [
        {
          "internalType": "address",
          "name": "",
          "type": "address"
        }
      ],
      "payable": false,
      "stateMutability": "view",
      "type": "function"
    },
    {
      "constant": false,
      "inputs": [
        {
          "internalType": "uint256",
          "name": "_driverId",
          "type": "uint256"
        }
      ],
      "name": "getAccountInfo",
      "outputs": [],
      "payable": false,
      "stateMutability": "nonpayable",
      "type": "function"
    },
    {
      "constant": true,
      "inputs": [
        {
          "internalType": "string",
          "name": "",
          "type": "string"
        }
      ],
      "name": "licenseAdded",
      "outputs": [
        {
          "internalType": "bool",
          "name": "",
          "type": "bool"
        }
      ],
      "payable": false,
      "stateMutability": "view",
      "type": "function"
    },
    {
      "constant": true,
      "inputs": [
        {
          "internalType": "string",
          "name": "",
          "type": "string"
        }
      ],
      "name": "licenseToOwner",
      "outputs": [
        {
          "internalType": "address",
          "name": "",
          "type": "address"
        }
      ],
      "payable": false,
      "stateMutability": "view",
      "type": "function"
    },
    {
      "constant": true,
      "inputs": [
        {
          "internalType": "uint256",
          "name": "",
          "type": "uint256"
        }
      ],
      "name": "licenses",
      "outputs": [
        {
          "internalType": "uint256",
          "name": "driverId",
          "type": "uint256"
        },
        {
          "internalType": "string",
          "name": "licenseType",
          "type": "string"
        },
        {
          "internalType": "string",
          "name": "licenseNumber",
          "type": "string"
        },
        {
          "internalType": "uint256",
          "name": "issued",
          "type": "uint256"
        },
        {
          "internalType": "uint256",
          "name": "exp",
          "type": "uint256"
        },
        {
          "internalType": "string",
          "name": "cl",
          "type": "string"
        },
        {
          "internalType": "string",
          "name": "end",
          "type": "string"
        },
        {
          "internalType": "string",
          "name": "restr",
          "type": "string"
        }
      ],
      "payable": false,
      "stateMutability": "view",
      "type": "function"
    },
    {
      "constant": true,
      "inputs": [
        {
          "internalType": "uint256",
          "name": "",
          "type": "uint256"
        },
        {
          "internalType": "string",
          "name": "",
          "type": "string"
        },
        {
          "internalType": "uint256",
          "name": "",
          "type": "uint256"
        }
      ],
      "name": "ownerLicReg",
      "outputs": [
        {
          "internalType": "string",
          "name": "",
          "type": "string"
        }
      ],
      "payable": false,
      "stateMutability": "view",
      "type": "function"
    },
    {
      "constant": true,
      "inputs": [
        {
          "internalType": "address",
          "name": "",
          "type": "address"
        },
        {
          "internalType": "uint256",
          "name": "",
          "type": "uint256"
        }
      ],
      "name": "ownerLicensesList",
      "outputs": [
        {
          "internalType": "string",
          "name": "",
          "type": "string"
        }
      ],
      "payable": false,
      "stateMutability": "view",
      "type": "function"
    },
    {
      "constant": true,
      "inputs": [
        {
          "internalType": "uint256",
          "name": "",
          "type": "uint256"
        }
      ],
      "name": "registrationDetails",
      "outputs": [
        {
          "internalType": "uint256",
          "name": "driverId",
          "type": "uint256"
        },
        {
          "internalType": "string",
          "name": "plateNumber",
          "type": "string"
        },
        {
          "internalType": "uint256",
          "name": "titleId",
          "type": "uint256"
        },
        {
          "internalType": "string",
          "name": "vin",
          "type": "string"
        },
        {
          "internalType": "uint256",
          "name": "goodThru",
          "type": "uint256"
        }
      ],
      "payable": false,
      "stateMutability": "view",
      "type": "function"
    },
    {
      "constant": false,
      "inputs": [
        {
          "internalType": "string",
          "name": "_first",
          "type": "string"
        },
        {
          "internalType": "string",
          "name": "_midInit",
          "type": "string"
        },
        {
          "internalType": "string",
          "name": "_last",
          "type": "string"
        },
        {
          "internalType": "string",
          "name": "_sx",
          "type": "string"
        },
        {
          "internalType": "string",
          "name": "_ht",
          "type": "string"
        },
        {
          "internalType": "string",
          "name": "_eyeColor",
          "type": "string"
        },
        {
          "internalType": "string",
          "name": "_addressLineOne",
          "type": "string"
        },
        {
          "internalType": "string",
          "name": "_city",
          "type": "string"
        },
        {
          "internalType": "string",
          "name": "_state",
          "type": "string"
        },
        {
          "internalType": "string",
          "name": "_zip",
          "type": "string"
        }
      ],
      "name": "setDriver",
      "outputs": [],
      "payable": false,
      "stateMutability": "nonpayable",
      "type": "function"
    },
    {
      "constant": false,
      "inputs": [
        {
          "internalType": "uint256",
          "name": "_driverId",
          "type": "uint256"
        },
        {
          "internalType": "string",
          "name": "_licType",
          "type": "string"
        },
        {
          "internalType": "string",
          "name": "_licNum",
          "type": "string"
        },
        {
          "internalType": "uint256",
          "name": "_licIssued",
          "type": "uint256"
        },
        {
          "internalType": "uint256",
          "name": "_licExp",
          "type": "uint256"
        },
        {
          "internalType": "string",
          "name": "_licClass",
          "type": "string"
        },
        {
          "internalType": "string",
          "name": "_licEnd",
          "type": "string"
        },
        {
          "internalType": "string",
          "name": "_licRestr",
          "type": "string"
        }
      ],
      "name": "setLicense",
      "outputs": [],
      "payable": false,
      "stateMutability": "nonpayable",
      "type": "function"
    },
    {
      "constant": true,
      "inputs": [
        {
          "internalType": "address",
          "name": "",
          "type": "address"
        }
      ],
      "name": "userAccountsCount",
      "outputs": [
        {
          "internalType": "uint256",
          "name": "",
          "type": "uint256"
        }
      ],
      "payable": false,
      "stateMutability": "view",
      "type": "function"
    },
    {
      "constant": false,
      "inputs": [
        {
          "internalType": "uint256",
          "name": "_driverId",
          "type": "uint256"
        },
        {
          "internalType": "string",
          "name": "_licNumber",
          "type": "string"
        },
        {
          "internalType": "string",
          "name": "_plateNumber",
          "type": "string"
        },
        {
          "internalType": "uint256",
          "name": "_titleId",
          "type": "uint256"
        },
        {
          "internalType": "string",
          "name": "_vin",
          "type": "string"
        },
        {
          "internalType": "uint256",
          "name": "_goodThru",
          "type": "uint256"
        },
        {
          "internalType": "string",
          "name": "_make",
          "type": "string"
        },
        {
          "internalType": "uint256",
          "name": "_year",
          "type": "uint256"
        },
        {
          "internalType": "string",
          "name": "_carType",
          "type": "string"
        },
        {
          "internalType": "string",
          "name": "_model",
          "type": "string"
        },
        {
          "internalType": "string",
          "name": "_color",
          "type": "string"
        }
      ],
      "name": "setRegistration",
      "outputs": [],
      "payable": false,
      "stateMutability": "nonpayable",
      "type": "function"
    }
  ],
  "bytecode": "0x608060405234801561001057600080fd5b50614924806100206000396000f3fe608060405234801561001057600080fd5b50600436106101005760003560e01c80639ca549f211610097578063bdb0bf3711610066578063bdb0bf37146117d4578063c85feec4146119cd578063ce2f42b814611bb8578063e6c18e5914611d0057610100565b80639ca549f214610eb0578063a96137be14610f77578063aabad716146110f6578063b1da3c02146111c957610100565b806339c2c04d116100d357806339c2c04d146109755780633b561afc14610cab5780635f2d748514610cd9578063812f2b5514610e5857610100565b806302b7f491146101055780632b325557146105735780632c454fc6146105e15780633379084514610709575b600080fd5b610571600480360361016081101561011c57600080fd5b81019080803590602001909291908035906020019064010000000081111561014357600080fd5b82018360208201111561015557600080fd5b8035906020019184600183028401116401000000008311171561017757600080fd5b91908080601f016020809104026020016040519081016040528093929190818152602001838380828437600081840152601f19601f820116905080830192505050505050509192919290803590602001906401000000008111156101da57600080fd5b8201836020820111156101ec57600080fd5b8035906020019184600183028401116401000000008311171561020e57600080fd5b91908080601f016020809104026020016040519081016040528093929190818152602001838380828437600081840152601f19601f820116905080830192505050505050509192919290803590602001909291908035906020019064010000000081111561027b57600080fd5b82018360208201111561028d57600080fd5b803590602001918460018302840111640100000000831117156102af57600080fd5b91908080601f016020809104026020016040519081016040528093929190818152602001838380828437600081840152601f19601f820116905080830192505050505050509192919290803590602001909291908035906020019064010000000081111561031c57600080fd5b82018360208201111561032e57600080fd5b8035906020019184600183028401116401000000008311171561035057600080fd5b91908080601f016020809104026020016040519081016040528093929190818152602001838380828437600081840152601f19601f82011690508083019250505050505050919291929080359060200190929190803590602001906401000000008111156103bd57600080fd5b8201836020820111156103cf57600080fd5b803590602001918460018302840111640100000000831117156103f157600080fd5b91908080601f016020809104026020016040519081016040528093929190818152602001838380828437600081840152601f19601f8201169050808301925050505050505091929192908035906020019064010000000081111561045457600080fd5b82018360208201111561046657600080fd5b8035906020019184600183028401116401000000008311171561048857600080fd5b91908080601f016020809104026020016040519081016040528093929190818152602001838380828437600081840152601f19601f820116905080830192505050505050509192919290803590602001906401000000008111156104eb57600080fd5b8201836020820111156104fd57600080fd5b8035906020019184600183028401116401000000008311171561051f57600080fd5b91908080601f016020809104026020016040519081016040528093929190818152602001838380828437600081840152601f19601f820116905080830192505050505050509192919290505050611dfb565b005b61059f6004803603602081101561058957600080fd5b8101908080359060200190929190505050612361565b604051808273ffffffffffffffffffffffffffffffffffffffff1673ffffffffffffffffffffffffffffffffffffffff16815260200191505060405180910390f35b61060d600480360360208110156105f757600080fd5b8101908080359060200190929190505050612394565b604051808681526020018060200185815260200180602001848152602001838103835287818151815260200191508051906020019080838360005b83811015610663578082015181840152602081019050610648565b50505050905090810190601f1680156106905780820380516001836020036101000a031916815260200191505b50838103825285818151815260200191508051906020019080838360005b838110156106c95780820151818401526020810190506106ae565b50505050905090810190601f1680156106f65780820380516001836020036101000a031916815260200191505b5097505050505050505060405180910390f35b6107356004803603602081101561071f57600080fd5b8101908080359060200190929190505050612507565b60405180898152602001806020018060200188815260200187815260200180602001806020018060200186810386528d818151815260200191508051906020019080838360005b8381101561079757808201518184015260208101905061077c565b50505050905090810190601f1680156107c45780820380516001836020036101000a031916815260200191505b5086810385528c818151815260200191508051906020019080838360005b838110156107fd5780820151818401526020810190506107e2565b50505050905090810190601f16801561082a5780820380516001836020036101000a031916815260200191505b50868103845289818151815260200191508051906020019080838360005b83811015610863578082015181840152602081019050610848565b50505050905090810190601f1680156108905780820380516001836020036101000a031916815260200191505b50868103835288818151815260200191508051906020019080838360005b838110156108c95780820151818401526020810190506108ae565b50505050905090810190601f1680156108f65780820380516001836020036101000a031916815260200191505b50868103825287818151815260200191508051906020019080838360005b8381101561092f578082015181840152602081019050610914565b50505050905090810190601f16801561095c5780820380516001836020036101000a031916815260200191505b509d505050505050505050505050505060405180910390f35b610ca9600480360361010081101561098c57600080fd5b8101908080359060200190929190803590602001906401000000008111156109b357600080fd5b8201836020820111156109c557600080fd5b803590602001918460018302840111640100000000831117156109e757600080fd5b91908080601f016020809104026020016040519081016040528093929190818152602001838380828437600081840152601f19601f82011690508083019250505050505050919291929080359060200190640100000000811115610a4a57600080fd5b820183602082011115610a5c57600080fd5b80359060200191846001830284011164010000000083111715610a7e57600080fd5b91908080601f016020809104026020016040519081016040528093929190818152602001838380828437600081840152601f19601f820116905080830192505050505050509192919290803590602001909291908035906020019092919080359060200190640100000000811115610af557600080fd5b820183602082011115610b0757600080fd5b80359060200191846001830284011164010000000083111715610b2957600080fd5b91908080601f016020809104026020016040519081016040528093929190818152602001838380828437600081840152601f19601f82011690508083019250505050505050919291929080359060200190640100000000811115610b8c57600080fd5b820183602082011115610b9e57600080fd5b80359060200191846001830284011164010000000083111715610bc057600080fd5b91908080601f016020809104026020016040519081016040528093929190818152602001838380828437600081840152601f19601f82011690508083019250505050505050919291929080359060200190640100000000811115610c2357600080fd5b820183602082011115610c3557600080fd5b80359060200191846001830284011164010000000083111715610c5757600080fd5b91908080601f016020809104026020016040519081016040528093929190818152602001838380828437600081840152601f19601f820116905080830192505050505050509192919290505050612854565b005b610cd760048036036020811015610cc157600080fd5b8101908080359060200190929190505050612db9565b005b610d0560048036036020811015610cef57600080fd5b8101908080359060200190929190505050613269565b60405180806020018060200180602001848103845287818151815260200191508051906020019080838360005b83811015610d4d578082015181840152602081019050610d32565b50505050905090810190601f168015610d7a5780820380516001836020036101000a031916815260200191505b50848103835286818151815260200191508051906020019080838360005b83811015610db3578082015181840152602081019050610d98565b50505050905090810190601f168015610de05780820380516001836020036101000a031916815260200191505b50848103825285818151815260200191508051906020019080838360005b83811015610e19578082015181840152602081019050610dfe565b50505050905090810190601f168015610e465780820380516001836020036101000a031916815260200191505b50965050505050505060405180910390f35b610e9a60048036036020811015610e6e57600080fd5b81019080803573ffffffffffffffffffffffffffffffffffffffff169060200190929190505050613468565b6040518082815260200191505060405180910390f35b610efc60048036036040811015610ec657600080fd5b81019080803573ffffffffffffffffffffffffffffffffffffffff16906020019092919080359060200190929190505050613480565b6040518080602001828103825283818151815260200191508051906020019080838360005b83811015610f3c578082015181840152602081019050610f21565b50505050905090810190601f168015610f695780820380516001836020036101000a031916815260200191505b509250505060405180910390f35b610fa360048036036020811015610f8d57600080fd5b8101908080359060200190929190505050613546565b60405180806020018060200180602001848103845287818151815260200191508051906020019080838360005b83811015610feb578082015181840152602081019050610fd0565b50505050905090810190601f1680156110185780820380516001836020036101000a031916815260200191505b50848103835286818151815260200191508051906020019080838360005b83811015611051578082015181840152602081019050611036565b50505050905090810190601f16801561107e5780820380516001836020036101000a031916815260200191505b50848103825285818151815260200191508051906020019080838360005b838110156110b757808201518184015260208101905061109c565b50505050905090810190601f1680156110e45780820380516001836020036101000a031916815260200191505b50965050505050505060405180910390f35b6111af6004803603602081101561110c57600080fd5b810190808035906020019064010000000081111561112957600080fd5b82018360208201111561113b57600080fd5b8035906020019184600183028401116401000000008311171561115d57600080fd5b91908080601f016020809104026020016040519081016040528093929190818152602001838380828437600081840152601f19601f820116905080830192505050505050509192919290505050613745565b604051808215151515815260200191505060405180910390f35b6117d260048036036101408110156111e057600080fd5b81019080803590602001906401000000008111156111fd57600080fd5b82018360208201111561120f57600080fd5b8035906020019184600183028401116401000000008311171561123157600080fd5b91908080601f016020809104026020016040519081016040528093929190818152602001838380828437600081840152601f19601f8201169050808301925050505050505091929192908035906020019064010000000081111561129457600080fd5b8201836020820111156112a657600080fd5b803590602001918460018302840111640100000000831117156112c857600080fd5b91908080601f016020809104026020016040519081016040528093929190818152602001838380828437600081840152601f19601f8201169050808301925050505050505091929192908035906020019064010000000081111561132b57600080fd5b82018360208201111561133d57600080fd5b8035906020019184600183028401116401000000008311171561135f57600080fd5b91908080601f016020809104026020016040519081016040528093929190818152602001838380828437600081840152601f19601f820116905080830192505050505050509192919290803590602001906401000000008111156113c257600080fd5b8201836020820111156113d457600080fd5b803590602001918460018302840111640100000000831117156113f657600080fd5b91908080601f016020809104026020016040519081016040528093929190818152602001838380828437600081840152601f19601f8201169050808301925050505050505091929192908035906020019064010000000081111561145957600080fd5b82018360208201111561146b57600080fd5b8035906020019184600183028401116401000000008311171561148d57600080fd5b91908080601f016020809104026020016040519081016040528093929190818152602001838380828437600081840152601f19601f820116905080830192505050505050509192919290803590602001906401000000008111156114f057600080fd5b82018360208201111561150257600080fd5b8035906020019184600183028401116401000000008311171561152457600080fd5b91908080601f016020809104026020016040519081016040528093929190818152602001838380828437600081840152601f19601f8201169050808301925050505050505091929192908035906020019064010000000081111561158757600080fd5b82018360208201111561159957600080fd5b803590602001918460018302840111640100000000831117156115bb57600080fd5b91908080601f016020809104026020016040519081016040528093929190818152602001838380828437600081840152601f19601f8201169050808301925050505050505091929192908035906020019064010000000081111561161e57600080fd5b82018360208201111561163057600080fd5b8035906020019184600183028401116401000000008311171561165257600080fd5b91908080601f016020809104026020016040519081016040528093929190818152602001838380828437600081840152601f19601f820116905080830192505050505050509192919290803590602001906401000000008111156116b557600080fd5b8201836020820111156116c757600080fd5b803590602001918460018302840111640100000000831117156116e957600080fd5b91908080601f016020809104026020016040519081016040528093929190818152602001838380828437600081840152601f19601f8201169050808301925050505050505091929192908035906020019064010000000081111561174c57600080fd5b82018360208201111561175e57600080fd5b8035906020019184600183028401116401000000008311171561178057600080fd5b91908080601f016020809104026020016040519081016040528093929190818152602001838380828437600081840152601f19601f82011690508083019250505050505050919291929050505061377b565b005b611800600480360360208110156117ea57600080fd5b8101908080359060200190929190505050613dd1565b604051808781526020018060200186815260200180602001806020018060200185810385528a818151815260200191508051906020019080838360005b8381101561185857808201518184015260208101905061183d565b50505050905090810190601f1680156118855780820380516001836020036101000a031916815260200191505b50858103845288818151815260200191508051906020019080838360005b838110156118be5780820151818401526020810190506118a3565b50505050905090810190601f1680156118eb5780820380516001836020036101000a031916815260200191505b50858103835287818151815260200191508051906020019080838360005b83811015611924578082015181840152602081019050611909565b50505050905090810190601f1680156119515780820380516001836020036101000a031916815260200191505b50858103825286818151815260200191508051906020019080838360005b8381101561198a57808201518184015260208101905061196f565b50505050905090810190601f1680156119b75780820380516001836020036101000a031916815260200191505b509a505050505050505050505060405180910390f35b6119f9600480360360208110156119e357600080fd5b810190808035906020019092919050505061407a565b6040518080602001806020018060200180602001858103855289818151815260200191508051906020019080838360005b83811015611a45578082015181840152602081019050611a2a565b50505050905090810190601f168015611a725780820380516001836020036101000a031916815260200191505b50858103845288818151815260200191508051906020019080838360005b83811015611aab578082015181840152602081019050611a90565b50505050905090810190601f168015611ad85780820380516001836020036101000a031916815260200191505b50858103835287818151815260200191508051906020019080838360005b83811015611b11578082015181840152602081019050611af6565b50505050905090810190601f168015611b3e5780820380516001836020036101000a031916815260200191505b50858103825286818151815260200191508051906020019080838360005b83811015611b77578082015181840152602081019050611b5c565b50505050905090810190601f168015611ba45780820380516001836020036101000a031916815260200191505b509850505050505050505060405180910390f35b611c8560048036036060811015611bce57600080fd5b810190808035906020019092919080359060200190640100000000811115611bf557600080fd5b820183602082011115611c0757600080fd5b80359060200191846001830284011164010000000083111715611c2957600080fd5b91908080601f016020809104026020016040519081016040528093929190818152602001838380828437600081840152601f19601f82011690508083019250505050505050919291929080359060200190929190505050614317565b6040518080602001828103825283818151815260200191508051906020019080838360005b83811015611cc5578082015181840152602081019050611caa565b50505050905090810190601f168015611cf25780820380516001836020036101000a031916815260200191505b509250505060405180910390f35b611db960048036036020811015611d1657600080fd5b8101908080359060200190640100000000811115611d3357600080fd5b820183602082011115611d4557600080fd5b80359060200191846001830284011164010000000083111715611d6757600080fd5b91908080601f016020809104026020016040519081016040528093929190818152602001838380828437600081840152601f19601f820116905080830192505050505050509192919290505050614400565b604051808273ffffffffffffffffffffffffffffffffffffffff1673ffffffffffffffffffffffffffffffffffffffff16815260200191505060405180910390f35b3373ffffffffffffffffffffffffffffffffffffffff166000808d815260200190815260200160002060009054906101000a900473ffffffffffffffffffffffffffffffffffffffff1673ffffffffffffffffffffffffffffffffffffffff1614611ece576040517f08c379a00000000000000000000000000000000000000000000000000000000081526004018080602001828103825260108152602001807f4e6f7420796f7572206163636f756e740000000000000000000000000000000081525060200191505060405180910390fd5b3373ffffffffffffffffffffffffffffffffffffffff1660058b6040518082805190602001908083835b60208310611f1b5780518252602082019150602081019050602083039250611ef8565b6001836020036101000a038019825116818451168082178552505050505050905001915050908152602001604051809103902060009054906101000a900473ffffffffffffffffffffffffffffffffffffffff1673ffffffffffffffffffffffffffffffffffffffff1614611ff8576040517f08c379a00000000000000000000000000000000000000000000000000000000081526004018080602001828103825260108152602001807f6e6f7420796f7572206c6963656e73650000000000000000000000000000000081525060200191505060405180910390fd5b600a6040518060a001604052808d81526020018b81526020018a815260200189815260200188815250908060018154018082558091505090600182039060005260206000209060050201600090919290919091506000820151816000015560208201518160010190805190602001906120729291906147a8565b506040820151816002015560608201518160030190805190602001906120999291906147a8565b5060808201518160040155505050600b6040518060c001604052808d815260200187815260200186815260200185815260200184815260200183815250908060018154018082558091505090600182039060005260206000209060060201600090919290919091506000820151816000015560208201518160010190805190602001906121279291906147a8565b5060408201518160020155606082015181600301908051906020019061214e9291906147a8565b50608082015181600401908051906020019061216b9291906147a8565b5060a08201518160050190805190602001906121889291906147a8565b50505050600960008c81526020019081526020016000208a6040518082805190602001908083835b602083106121d357805182526020820191506020810190506020830392506121b0565b6001836020036101000a0380198251168184511680821785525050505050509050019150509081526020016040518091039020899080600181540180825580915050906001820390600052602060002001600090919290919091509080519060200190612241929190614828565b50507fc521a744d58b34696a2a372b7d7019eafff6893b1a8e65b42f8e5071e2e368a98b8b8b604051808481526020018060200180602001838103835285818151815260200191508051906020019080838360005b838110156122b1578082015181840152602081019050612296565b50505050905090810190601f1680156122de5780820380516001836020036101000a031916815260200191505b50838103825284818151815260200191508051906020019080838360005b838110156123175780820151818401526020810190506122fc565b50505050905090810190601f1680156123445780820380516001836020036101000a031916815260200191505b509550505050505060405180910390a15050505050505050505050565b60006020528060005260406000206000915054906101000a900473ffffffffffffffffffffffffffffffffffffffff1681565b600a81815481106123a157fe5b9060005260206000209060050201600091509050806000015490806001018054600181600116156101000203166002900480601f0160208091040260200160405190810160405280929190818152602001828054600181600116156101000203166002900480156124535780601f1061242857610100808354040283529160200191612453565b820191906000526020600020905b81548152906001019060200180831161243657829003601f168201915b505050505090806002015490806003018054600181600116156101000203166002900480601f0160208091040260200160405190810160405280929190818152602001828054600181600116156101000203166002900480156124f75780601f106124cc576101008083540402835291602001916124f7565b820191906000526020600020905b8154815290600101906020018083116124da57829003601f168201915b5050505050908060040154905085565b6008818154811061251457fe5b9060005260206000209060080201600091509050806000015490806001018054600181600116156101000203166002900480601f0160208091040260200160405190810160405280929190818152602001828054600181600116156101000203166002900480156125c65780601f1061259b576101008083540402835291602001916125c6565b820191906000526020600020905b8154815290600101906020018083116125a957829003601f168201915b505050505090806002018054600181600116156101000203166002900480601f0160208091040260200160405190810160405280929190818152602001828054600181600116156101000203166002900480156126645780601f1061263957610100808354040283529160200191612664565b820191906000526020600020905b81548152906001019060200180831161264757829003601f168201915b505050505090806003015490806004015490806005018054600181600116156101000203166002900480601f01602080910402602001604051908101604052809291908181526020018280546001816001161561010002031660029004801561270e5780601f106126e35761010080835404028352916020019161270e565b820191906000526020600020905b8154815290600101906020018083116126f157829003601f168201915b505050505090806006018054600181600116156101000203166002900480601f0160208091040260200160405190810160405280929190818152602001828054600181600116156101000203166002900480156127ac5780601f10612781576101008083540402835291602001916127ac565b820191906000526020600020905b81548152906001019060200180831161278f57829003601f168201915b505050505090806007018054600181600116156101000203166002900480601f01602080910402602001604051908101604052809291908181526020018280546001816001161561010002031660029004801561284a5780601f1061281f5761010080835404028352916020019161284a565b820191906000526020600020905b81548152906001019060200180831161282d57829003601f168201915b5050505050905088565b3373ffffffffffffffffffffffffffffffffffffffff166000808a815260200190815260200160002060009054906101000a900473ffffffffffffffffffffffffffffffffffffffff1673ffffffffffffffffffffffffffffffffffffffff1614612927576040517f08c379a00000000000000000000000000000000000000000000000000000000081526004018080602001828103825260108152602001807f4e6f7420796f7572206163636f756e740000000000000000000000000000000081525060200191505060405180910390fd5b600115156007876040518082805190602001908083835b60208310612961578051825260208201915060208101905060208303925061293e565b6001836020036101000a038019825116818451168082178552505050505050905001915050908152602001604051809103902060009054906101000a900460ff1615151415612a18576040517f08c379a00000000000000000000000000000000000000000000000000000000081526004018080602001828103825260158152602001807f4c6963656e736520616464656420616c7265616479000000000000000000000081525060200191505060405180910390fd5b60086040518061010001604052808a81526020018981526020018881526020018781526020018681526020018581526020018481526020018381525090806001815401808255809150509060018203906000526020600020906008020160009091929091909150600082015181600001556020820151816001019080519060200190612aa59291906147a8565b506040820151816002019080519060200190612ac29291906147a8565b50606082015181600301556080820151816004015560a0820151816005019080519060200190612af39291906147a8565b5060c0820151816006019080519060200190612b109291906147a8565b5060e0820151816007019080519060200190612b2d9291906147a8565b5050505060016007876040518082805190602001908083835b60208310612b695780518252602082019150602081019050602083039250612b46565b6001836020036101000a038019825116818451168082178552505050505050905001915050908152602001604051809103902060006101000a81548160ff021916908315150217905550336005876040518082805190602001908083835b60208310612bea5780518252602082019150602081019050602083039250612bc7565b6001836020036101000a038019825116818451168082178552505050505050905001915050908152602001604051809103902060006101000a81548173ffffffffffffffffffffffffffffffffffffffff021916908373ffffffffffffffffffffffffffffffffffffffff160217905550600660003373ffffffffffffffffffffffffffffffffffffffff1673ffffffffffffffffffffffffffffffffffffffff168152602001908152602001600020869080600181540180825580915050906001820390600052602060002001600090919290919091509080519060200190612cd5929190614828565b50507f5193be4edf57bce3ca93ba998f927ac1cfe0dd7e561d8a93dd844b4c6680e548338988604051808473ffffffffffffffffffffffffffffffffffffffff1673ffffffffffffffffffffffffffffffffffffffff16815260200183815260200180602001828103825283818151815260200191508051906020019080838360005b83811015612d73578082015181840152602081019050612d58565b50505050905090810190601f168015612da05780820380516001836020036101000a031916815260200191505b5094505050505060405180910390a15050505050505050565b612dc281614449565b50505050612dcf816145c7565b505050612ddb8161470f565b505050507ff26ad77430b1781c51897f09c9ed9254e2ca0d20c086cf719af4530d0ef77cc860008083815260200190815260200160002060009054906101000a900473ffffffffffffffffffffffffffffffffffffffff168260028481548110612e4157fe5b906000526020600020906003020160000160028581548110612e5f57fe5b906000526020600020906003020160010160028681548110612e7d57fe5b906000526020600020906003020160020160038781548110612e9b57fe5b906000526020600020906003020160000160038881548110612eb957fe5b906000526020600020906003020160010160038981548110612ed757fe5b9060005260206000209060030201600201604051808973ffffffffffffffffffffffffffffffffffffffff1673ffffffffffffffffffffffffffffffffffffffff16815260200188815260200180602001806020018060200180602001806020018060200187810387528d818154600181600116156101000203166002900481526020019150805460018160011615610100020316600290048015612fbd5780601f10612f9257610100808354040283529160200191612fbd565b820191906000526020600020905b815481529060010190602001808311612fa057829003601f168201915b505087810386528c8181546001816001161561010002031660029004815260200191508054600181600116156101000203166002900480156130405780601f1061301557610100808354040283529160200191613040565b820191906000526020600020905b81548152906001019060200180831161302357829003601f168201915b505087810385528b8181546001816001161561010002031660029004815260200191508054600181600116156101000203166002900480156130c35780601f10613098576101008083540402835291602001916130c3565b820191906000526020600020905b8154815290600101906020018083116130a657829003601f168201915b505087810384528a8181546001816001161561010002031660029004815260200191508054600181600116156101000203166002900480156131465780601f1061311b57610100808354040283529160200191613146565b820191906000526020600020905b81548152906001019060200180831161312957829003601f168201915b50508781038352898181546001816001161561010002031660029004815260200191508054600181600116156101000203166002900480156131c95780601f1061319e576101008083540402835291602001916131c9565b820191906000526020600020905b8154815290600101906020018083116131ac57829003601f168201915b505087810382528881815460018160011615610100020316600290048152602001915080546001816001161561010002031660029004801561324c5780601f106132215761010080835404028352916020019161324c565b820191906000526020600020905b81548152906001019060200180831161322f57829003601f168201915b50509e50505050505050505050505050505060405180910390a150565b6003818154811061327657fe5b9060005260206000209060030201600091509050806000018054600181600116156101000203166002900480601f0160208091040260200160405190810160405280929190818152602001828054600181600116156101000203166002900480156133225780601f106132f757610100808354040283529160200191613322565b820191906000526020600020905b81548152906001019060200180831161330557829003601f168201915b505050505090806001018054600181600116156101000203166002900480601f0160208091040260200160405190810160405280929190818152602001828054600181600116156101000203166002900480156133c05780601f10613395576101008083540402835291602001916133c0565b820191906000526020600020905b8154815290600101906020018083116133a357829003601f168201915b505050505090806002018054600181600116156101000203166002900480601f01602080910402602001604051908101604052809291908181526020018280546001816001161561010002031660029004801561345e5780601f106134335761010080835404028352916020019161345e565b820191906000526020600020905b81548152906001019060200180831161344157829003601f168201915b5050505050905083565b60016020528060005260406000206000915090505481565b6006602052816000526040600020818154811061349957fe5b90600052602060002001600091509150508054600181600116156101000203166002900480601f01602080910402602001604051908101604052809291908181526020018280546001816001161561010002031660029004801561353e5780601f106135135761010080835404028352916020019161353e565b820191906000526020600020905b81548152906001019060200180831161352157829003601f168201915b505050505081565b6002818154811061355357fe5b9060005260206000209060030201600091509050806000018054600181600116156101000203166002900480601f0160208091040260200160405190810160405280929190818152602001828054600181600116156101000203166002900480156135ff5780601f106135d4576101008083540402835291602001916135ff565b820191906000526020600020905b8154815290600101906020018083116135e257829003601f168201915b505050505090806001018054600181600116156101000203166002900480601f01602080910402602001604051908101604052809291908181526020018280546001816001161561010002031660029004801561369d5780601f106136725761010080835404028352916020019161369d565b820191906000526020600020905b81548152906001019060200180831161368057829003601f168201915b505050505090806002018054600181600116156101000203166002900480601f01602080910402602001604051908101604052809291908181526020018280546001816001161561010002031660029004801561373b5780601f106137105761010080835404028352916020019161373b565b820191906000526020600020905b81548152906001019060200180831161371e57829003601f168201915b5050505050905083565b6007818051602081018201805184825260208301602085012081835280955050505050506000915054906101000a900460ff1681565b6000600160003373ffffffffffffffffffffffffffffffffffffffff1673ffffffffffffffffffffffffffffffffffffffff1681526020019081526020016000205414613813576040517f08c379a00000000000000000000000000000000000000000000000000000000081526004018080602001828103825260228152602001806148ce6022913960400191505060405180910390fd5b600260405180606001604052808c81526020018b81526020018a8152509080600181540180825580915050906001820390600052602060002090600302016000909192909190915060008201518160000190805190602001906138779291906147a8565b5060208201518160010190805190602001906138949291906147a8565b5060408201518160020190805190602001906138b19291906147a8565b5050505060036040518060600160405280898152602001888152602001878152509080600181540180825580915050906001820390600052602060002090600302016000909192909190915060008201518160000190805190602001906139199291906147a8565b5060208201518160010190805190602001906139369291906147a8565b5060408201518160020190805190602001906139539291906147a8565b5050505060046040518060800160405280868152602001858152602001848152602001838152509080600181540180825580915050906001820390600052602060002090600402016000909192909190915060008201518160000190805190602001906139c19291906147a8565b5060208201518160010190805190602001906139de9291906147a8565b5060408201518160020190805190602001906139fb9291906147a8565b506060820151816003019080519060200190613a189291906147a8565b5050505033600080600160028054905003815260200190815260200160002060006101000a81548173ffffffffffffffffffffffffffffffffffffffff021916908373ffffffffffffffffffffffffffffffffffffffff160217905550600160003373ffffffffffffffffffffffffffffffffffffffff1673ffffffffffffffffffffffffffffffffffffffff168152602001908152602001600020600081548092919060010191905055507f5e12c0cb56ade5f1eee122a4f6a88aa40bed7c7c8d485a155c7390cf129de517336001600280549050038c8c8c8c8c8c604051808973ffffffffffffffffffffffffffffffffffffffff1673ffffffffffffffffffffffffffffffffffffffff16815260200188815260200180602001806020018060200180602001806020018060200187810387528d818151815260200191508051906020019080838360005b83811015613b81578082015181840152602081019050613b66565b50505050905090810190601f168015613bae5780820380516001836020036101000a031916815260200191505b5087810386528c818151815260200191508051906020019080838360005b83811015613be7578082015181840152602081019050613bcc565b50505050905090810190601f168015613c145780820380516001836020036101000a031916815260200191505b5087810385528b818151815260200191508051906020019080838360005b83811015613c4d578082015181840152602081019050613c32565b50505050905090810190601f168015613c7a5780820380516001836020036101000a031916815260200191505b5087810384528a818151815260200191508051906020019080838360005b83811015613cb3578082015181840152602081019050613c98565b50505050905090810190601f168015613ce05780820380516001836020036101000a031916815260200191505b50878103835289818151815260200191508051906020019080838360005b83811015613d19578082015181840152602081019050613cfe565b50505050905090810190601f168015613d465780820380516001836020036101000a031916815260200191505b50878103825288818151815260200191508051906020019080838360005b83811015613d7f578082015181840152602081019050613d64565b50505050905090810190601f168015613dac5780820380516001836020036101000a031916815260200191505b509e50505050505050505050505050505060405180910390a150505050505050505050565b600b8181548110613dde57fe5b9060005260206000209060060201600091509050806000015490806001018054600181600116156101000203166002900480601f016020809104026020016040519081016040528092919081815260200182805460018160011615610100020316600290048015613e905780601f10613e6557610100808354040283529160200191613e90565b820191906000526020600020905b815481529060010190602001808311613e7357829003601f168201915b505050505090806002015490806003018054600181600116156101000203166002900480601f016020809104026020016040519081016040528092919081815260200182805460018160011615610100020316600290048015613f345780601f10613f0957610100808354040283529160200191613f34565b820191906000526020600020905b815481529060010190602001808311613f1757829003601f168201915b505050505090806004018054600181600116156101000203166002900480601f016020809104026020016040519081016040528092919081815260200182805460018160011615610100020316600290048015613fd25780601f10613fa757610100808354040283529160200191613fd2565b820191906000526020600020905b815481529060010190602001808311613fb557829003601f168201915b505050505090806005018054600181600116156101000203166002900480601f0160208091040260200160405190810160405280929190818152602001828054600181600116156101000203166002900480156140705780601f1061404557610100808354040283529160200191614070565b820191906000526020600020905b81548152906001019060200180831161405357829003601f168201915b5050505050905086565b6004818154811061408757fe5b9060005260206000209060040201600091509050806000018054600181600116156101000203166002900480601f0160208091040260200160405190810160405280929190818152602001828054600181600116156101000203166002900480156141335780601f1061410857610100808354040283529160200191614133565b820191906000526020600020905b81548152906001019060200180831161411657829003601f168201915b505050505090806001018054600181600116156101000203166002900480601f0160208091040260200160405190810160405280929190818152602001828054600181600116156101000203166002900480156141d15780601f106141a6576101008083540402835291602001916141d1565b820191906000526020600020905b8154815290600101906020018083116141b457829003601f168201915b505050505090806002018054600181600116156101000203166002900480601f01602080910402602001604051908101604052809291908181526020018280546001816001161561010002031660029004801561426f5780601f106142445761010080835404028352916020019161426f565b820191906000526020600020905b81548152906001019060200180831161425257829003601f168201915b505050505090806003018054600181600116156101000203166002900480601f01602080910402602001604051908101604052809291908181526020018280546001816001161561010002031660029004801561430d5780601f106142e25761010080835404028352916020019161430d565b820191906000526020600020905b8154815290600101906020018083116142f057829003601f168201915b5050505050905084565b600960205282600052604060002082805160208101820180518482526020830160208501208183528095505050505050818154811061435257fe5b9060005260206000200160009250925050508054600181600116156101000203166002900480601f0160208091040260200160405190810160405280929190818152602001828054600181600116156101000203166002900480156143f85780601f106143cd576101008083540402835291602001916143f8565b820191906000526020600020905b8154815290600101906020018083116143db57829003601f168201915b505050505081565b6005818051602081018201805184825260208301602085012081835280955050505050506000915054906101000a900473ffffffffffffffffffffffffffffffffffffffff1681565b6000806000803373ffffffffffffffffffffffffffffffffffffffff1660008087815260200190815260200160002060009054906101000a900473ffffffffffffffffffffffffffffffffffffffff1673ffffffffffffffffffffffffffffffffffffffff1614614522576040517f08c379a00000000000000000000000000000000000000000000000000000000081526004018080602001828103825260108152602001807f4e6f7420796f7572206163636f756e740000000000000000000000000000000081525060200191505060405180910390fd5b60008086815260200190815260200160002060009054906101000a900473ffffffffffffffffffffffffffffffffffffffff166002868154811061456257fe5b90600052602060002090600302016000016002878154811061458057fe5b90600052602060002090600302016001016002888154811061459e57fe5b906000526020600020906003020160020182925081915080905093509350935093509193509193565b60008060003373ffffffffffffffffffffffffffffffffffffffff1660008086815260200190815260200160002060009054906101000a900473ffffffffffffffffffffffffffffffffffffffff1673ffffffffffffffffffffffffffffffffffffffff161461469f576040517f08c379a00000000000000000000000000000000000000000000000000000000081526004018080602001828103825260108152602001807f4e6f7420796f7572206163636f756e740000000000000000000000000000000081525060200191505060405180910390fd5b600384815481106146ac57fe5b9060005260206000209060030201600001600385815481106146ca57fe5b9060005260206000209060030201600101600386815481106146e857fe5b90600052602060002090600302016002018292508191508090509250925092509193909250565b6000806000806004858154811061472257fe5b90600052602060002090600402016000016004868154811061474057fe5b90600052602060002090600402016001016004878154811061475e57fe5b90600052602060002090600402016002016004888154811061477c57fe5b906000526020600020906004020160030183935082925081915080905093509350935093509193509193565b828054600181600116156101000203166002900490600052602060002090601f016020900481019282601f106147e957805160ff1916838001178555614817565b82800160010185558215614817579182015b828111156148165782518255916020019190600101906147fb565b5b50905061482491906148a8565b5090565b828054600181600116156101000203166002900490600052602060002090601f016020900481019282601f1061486957805160ff1916838001178555614897565b82800160010185558215614897579182015b8281111561489657825182559160200191906001019061487b565b5b5090506148a491906148a8565b5090565b6148ca91905b808211156148c65760008160009055506001016148ae565b5090565b9056fe55736572732063616e206f6e6c7920637265617465206f6e652070726f66696c6521a265627a7a7231582082fdb82762c284b3c615fc6a46c780c1478375ccf3c35ff385521c644847f52164736f6c63430005100032",
  "source": "// SPDX-License-Identifier: MIT\npragma solidity >=0.4.22 <0.9.0;\nimport \"./LicenseFactory.sol\";\ncontract RegistrationFactory is LicenseFactory {\n\n  event RegistrationAdded(uint driverId, string licenseNumber, string plateNumber);\n  event RegistrationGotten(string plateNumber, uint carYear, string carMake, string carModel, string carColor);\n\n  //maps drivers id to the mapping of a license number to a plate number\n  mapping (uint => mapping(string => string[])) public ownerLicReg;\n\n  //Registrations details database\n  RegistrationDetail[] public registrationDetails;\n  //Registration features database\n  CarFeature[] public carFeatures;\n\n  struct RegistrationDetail {\n    uint driverId;\n    string plateNumber;\n    uint256 titleId;\n    string vin;\n    uint goodThru;\n  }\n\n  struct CarFeature {\n    uint driverId;\n    string make;\n    uint256 year;\n    string carType;\n    string model;\n    string color;\n  }\n\n\n  function setRegistration(\n    uint _driverId,\n    string memory _licNumber,\n    string memory _plateNumber,\n    uint _titleId,\n    string memory _vin,\n    uint _goodThru,\n    string memory _make,\n    uint _year,\n    string memory _carType,\n    string memory _model,\n    string memory _color\n    ) public {\n      require(driverToOwner[_driverId] == msg.sender, \"Not your account\");\n      require(licenseToOwner[_licNumber] == msg.sender, \"not your license\");\n      registrationDetails.push(RegistrationDetail(_driverId, _plateNumber, _titleId, _vin, _goodThru));\n      carFeatures.push(CarFeature(_driverId, _make, _year, _carType, _model, _color));\n      ownerLicReg[_driverId][_licNumber].push(_plateNumber);\n      emit RegistrationAdded(_driverId, _licNumber, _plateNumber);\n  }\n\n  //Gets registration info\n  function _getRegistration(uint _driverId, string memory _plateNumber) internal returns (\n    string memory,\n    uint256,\n    string memory,\n    uint,\n    string memory,\n    uint256,\n    string memory,\n    string memory,\n    string memory\n  )\n  {\n    require(driverToOwner[_driverId] == msg.sender, \"Not your account\");\n    uint index;\n    for (uint i = 0; i < registrationDetails.length; i++) {\n      if (registrationDetails[i].driverId == _driverId &&\n        keccak256(abi.encodePacked(registrationDetails[i].plateNumber)) == keccak256(abi.encodePacked(_plateNumber))) {\n        uint index = i;\n        return (\n          registrationDetails[i].plateNumber,\n          registrationDetails[i].titleId,\n          registrationDetails[i].vin,\n          registrationDetails[i].goodThru,\n          carFeatures[i].make,\n          carFeatures[i].year,\n          carFeatures[i].carType,\n          carFeatures[i].model,\n          carFeatures[i].color\n        );\n      } else {\n        continue;\n      }\n    }\n    emit RegistrationGotten(\n      registrationDetails[index].plateNumber,\n      carFeatures[index].year,\n      carFeatures[index].make,\n      carFeatures[index].model,\n      carFeatures[index].color\n    );\n\n  }\n\n  //Returns a driver's list of license plates\n  function _getDriverCars(uint _driverId, string memory _licNum) internal view returns (string[] memory) {\n    require(driverToOwner[_driverId] == msg.sender, \"Not your Account\");\n    require (licenseToOwner[_licNum] == msg.sender, \"Not your license\");\n    return ownerLicReg[_driverId][_licNum];\n  }\n\n}\n",
  "sourcePath": "/Users/Marcus/Documents/Projects/dmvAppContracts/contracts/RegistrationFactory.sol",
  "compiler": {
    "name": "solc",
    "version": "0.5.16+commit.9c3226ce.Emscripten.clang"
  },
  "schemaVersion": "3.4.4",
  "updatedAt": "2022-01-09T19:24:56.598Z",
  "devdoc": {
    "methods": {}
  },
  "userdoc": {
    "methods": {}
  }
}